{
  "_format": "hh-sol-artifact-1",
  "contractName": "DigitalArt",
  "sourceName": "contracts/DigitalArt.sol",
  "abi": [
    {
      "inputs": [],
      "stateMutability": "nonpayable",
      "type": "constructor"
    },
    {
      "anonymous": false,
      "inputs": [
        {
          "indexed": true,
          "internalType": "address",
          "name": "owner",
          "type": "address"
        },
        {
          "indexed": true,
          "internalType": "address",
          "name": "approved",
          "type": "address"
        },
        {
          "indexed": true,
          "internalType": "uint256",
          "name": "tokenId",
          "type": "uint256"
        }
      ],
      "name": "Approval",
      "type": "event"
    },
    {
      "anonymous": false,
      "inputs": [
        {
          "indexed": true,
          "internalType": "address",
          "name": "owner",
          "type": "address"
        },
        {
          "indexed": true,
          "internalType": "address",
          "name": "operator",
          "type": "address"
        },
        {
          "indexed": false,
          "internalType": "bool",
          "name": "approved",
          "type": "bool"
        }
      ],
      "name": "ApprovalForAll",
      "type": "event"
    },
    {
      "anonymous": false,
      "inputs": [
        {
          "indexed": false,
          "internalType": "uint256",
          "name": "tokenId",
          "type": "uint256"
        },
        {
          "indexed": false,
          "internalType": "uint256",
          "name": "oldDailyLicensePrice",
          "type": "uint256"
        },
        {
          "indexed": false,
          "internalType": "uint256",
          "name": "newDailyLicensePrice",
          "type": "uint256"
        }
      ],
      "name": "DailyLicensePriceUpdated",
      "type": "event"
    },
    {
      "anonymous": false,
      "inputs": [
        {
          "indexed": false,
          "internalType": "uint256",
          "name": "tokenId",
          "type": "uint256"
        },
        {
          "indexed": false,
          "internalType": "uint256",
          "name": "timestamp",
          "type": "uint256"
        },
        {
          "indexed": false,
          "internalType": "bytes32",
          "name": "infringmentAttemptsHash",
          "type": "bytes32"
        }
      ],
      "name": "InfringmentAttemptsRecorded",
      "type": "event"
    },
    {
      "anonymous": false,
      "inputs": [
        {
          "indexed": false,
          "internalType": "uint256",
          "name": "tokenId",
          "type": "uint256"
        },
        {
          "indexed": false,
          "internalType": "uint256",
          "name": "durationInDays",
          "type": "uint256"
        },
        {
          "indexed": false,
          "internalType": "uint256",
          "name": "price",
          "type": "uint256"
        },
        {
          "indexed": false,
          "internalType": "uint256",
          "name": "endDateInMillis",
          "type": "uint256"
        },
        {
          "indexed": false,
          "internalType": "address payable",
          "name": "sender",
          "type": "address"
        },
        {
          "indexed": false,
          "internalType": "uint256",
          "name": "timestamp",
          "type": "uint256"
        }
      ],
      "name": "LicensePurchased",
      "type": "event"
    },
    {
      "anonymous": false,
      "inputs": [
        {
          "indexed": true,
          "internalType": "address",
          "name": "previousOwner",
          "type": "address"
        },
        {
          "indexed": true,
          "internalType": "address",
          "name": "newOwner",
          "type": "address"
        }
      ],
      "name": "OwnershipTransferred",
      "type": "event"
    },
    {
      "anonymous": false,
      "inputs": [
        {
          "indexed": false,
          "internalType": "address payable",
          "name": "to",
          "type": "address"
        },
        {
          "indexed": false,
          "internalType": "uint256",
          "name": "amount",
          "type": "uint256"
        }
      ],
      "name": "PaymentExecuted",
      "type": "event"
    },
    {
      "anonymous": false,
      "inputs": [
        {
          "indexed": false,
          "internalType": "uint256",
          "name": "tokenId",
          "type": "uint256"
        },
        {
          "indexed": false,
          "internalType": "uint256",
          "name": "oldSellingPrice",
          "type": "uint256"
        },
        {
          "indexed": false,
          "internalType": "uint256",
          "name": "newSellingPrice",
          "type": "uint256"
        }
      ],
      "name": "SellingPriceUpdated",
      "type": "event"
    },
    {
      "anonymous": false,
      "inputs": [
        {
          "indexed": false,
          "internalType": "uint256",
          "name": "tokenId",
          "type": "uint256"
        },
        {
          "indexed": false,
          "internalType": "uint256",
          "name": "sellingPrice",
          "type": "uint256"
        },
        {
          "indexed": false,
          "internalType": "uint256",
          "name": "dailyLicensePrice",
          "type": "uint256"
        },
        {
          "indexed": false,
          "internalType": "string",
          "name": "tokenURI",
          "type": "string"
        },
        {
          "indexed": false,
          "internalType": "address",
          "name": "owner",
          "type": "address"
        }
      ],
      "name": "TokenMinted",
      "type": "event"
    },
    {
      "anonymous": false,
      "inputs": [
        {
          "indexed": false,
          "internalType": "uint256",
          "name": "tokenId",
          "type": "uint256"
        },
        {
          "indexed": false,
          "internalType": "address",
          "name": "oldOwner",
          "type": "address"
        },
        {
          "indexed": false,
          "internalType": "address",
          "name": "newOwner",
          "type": "address"
        },
        {
          "indexed": false,
          "internalType": "uint256",
          "name": "price",
          "type": "uint256"
        },
        {
          "indexed": false,
          "internalType": "uint256",
          "name": "timestamp",
          "type": "uint256"
        }
      ],
      "name": "TokenPurchased",
      "type": "event"
    },
    {
      "anonymous": false,
      "inputs": [
        {
          "indexed": true,
          "internalType": "address",
          "name": "from",
          "type": "address"
        },
        {
          "indexed": true,
          "internalType": "address",
          "name": "to",
          "type": "address"
        },
        {
          "indexed": true,
          "internalType": "uint256",
          "name": "tokenId",
          "type": "uint256"
        }
      ],
      "name": "Transfer",
      "type": "event"
    },
    {
      "inputs": [
        {
          "internalType": "address",
          "name": "to",
          "type": "address"
        },
        {
          "internalType": "uint256",
          "name": "tokenId",
          "type": "uint256"
        }
      ],
      "name": "approve",
      "outputs": [],
      "stateMutability": "nonpayable",
      "type": "function"
    },
    {
      "inputs": [],
      "name": "artistLicenseRoyalty",
      "outputs": [
        {
          "internalType": "uint256",
          "name": "",
          "type": "uint256"
        }
      ],
      "stateMutability": "view",
      "type": "function"
    },
    {
      "inputs": [],
      "name": "artistResellingRoyalty",
      "outputs": [
        {
          "internalType": "uint256",
          "name": "",
          "type": "uint256"
        }
      ],
      "stateMutability": "view",
      "type": "function"
    },
    {
      "inputs": [
        {
          "internalType": "address",
          "name": "owner",
          "type": "address"
        }
      ],
      "name": "balanceOf",
      "outputs": [
        {
          "internalType": "uint256",
          "name": "",
          "type": "uint256"
        }
      ],
      "stateMutability": "view",
      "type": "function"
    },
    {
      "inputs": [
        {
          "internalType": "uint256",
          "name": "_tokenId",
          "type": "uint256"
        }
      ],
      "name": "getAllLicensesForToken",
      "outputs": [
        {
          "components": [
            {
              "internalType": "uint256",
              "name": "tokenId",
              "type": "uint256"
            },
            {
              "internalType": "uint256",
              "name": "start",
              "type": "uint256"
            },
            {
              "internalType": "uint256",
              "name": "end",
              "type": "uint256"
            },
            {
              "internalType": "uint256",
              "name": "price",
              "type": "uint256"
            },
            {
              "internalType": "address",
              "name": "recipient",
              "type": "address"
            }
          ],
          "internalType": "struct DigitalArt.License[]",
          "name": "_licenses",
          "type": "tuple[]"
        }
      ],
      "stateMutability": "view",
      "type": "function"
    },
    {
      "inputs": [
        {
          "internalType": "uint256",
          "name": "tokenId",
          "type": "uint256"
        }
      ],
      "name": "getApproved",
      "outputs": [
        {
          "internalType": "address",
          "name": "",
          "type": "address"
        }
      ],
      "stateMutability": "view",
      "type": "function"
    },
    {
      "inputs": [
        {
          "internalType": "uint256",
          "name": "",
          "type": "uint256"
        }
      ],
      "name": "idToInfringmentAttemptsHash",
      "outputs": [
        {
          "internalType": "bytes32",
          "name": "",
          "type": "bytes32"
        }
      ],
      "stateMutability": "view",
      "type": "function"
    },
    {
      "inputs": [
        {
          "internalType": "uint256",
          "name": "",
          "type": "uint256"
        }
      ],
      "name": "idToNFT",
      "outputs": [
        {
          "internalType": "uint256",
          "name": "id",
          "type": "uint256"
        },
        {
          "internalType": "uint256",
          "name": "sellingPrice",
          "type": "uint256"
        },
        {
          "internalType": "uint256",
          "name": "dailyLicensePrice",
          "type": "uint256"
        },
        {
          "internalType": "string",
          "name": "uri",
          "type": "string"
        },
        {
          "internalType": "address payable",
          "name": "artist",
          "type": "address"
        },
        {
          "internalType": "address payable",
          "name": "owner",
          "type": "address"
        }
      ],
      "stateMutability": "view",
      "type": "function"
    },
    {
      "inputs": [
        {
          "internalType": "address",
          "name": "owner",
          "type": "address"
        },
        {
          "internalType": "address",
          "name": "operator",
          "type": "address"
        }
      ],
      "name": "isApprovedForAll",
      "outputs": [
        {
          "internalType": "bool",
          "name": "",
          "type": "bool"
        }
      ],
      "stateMutability": "view",
      "type": "function"
    },
    {
      "inputs": [],
      "name": "name",
      "outputs": [
        {
          "internalType": "string",
          "name": "",
          "type": "string"
        }
      ],
      "stateMutability": "view",
      "type": "function"
    },
    {
      "inputs": [],
      "name": "owner",
      "outputs": [
        {
          "internalType": "address",
          "name": "",
          "type": "address"
        }
      ],
      "stateMutability": "view",
      "type": "function"
    },
    {
      "inputs": [
        {
          "internalType": "uint256",
          "name": "tokenId",
          "type": "uint256"
        }
      ],
      "name": "ownerOf",
      "outputs": [
        {
          "internalType": "address",
          "name": "",
          "type": "address"
        }
      ],
      "stateMutability": "view",
      "type": "function"
    },
    {
      "inputs": [
        {
          "internalType": "uint256",
          "name": "_tokenId",
          "type": "uint256"
        },
        {
          "internalType": "uint256",
          "name": "_days",
          "type": "uint256"
        },
        {
          "internalType": "uint256",
          "name": "_timestamp",
          "type": "uint256"
        }
      ],
      "name": "purchaseLicense",
      "outputs": [],
      "stateMutability": "payable",
      "type": "function"
    },
    {
      "inputs": [
        {
          "internalType": "uint256",
          "name": "_tokenId",
          "type": "uint256"
        },
        {
          "internalType": "uint256",
          "name": "_timestamp",
          "type": "uint256"
        }
      ],
      "name": "purchaseNFT",
      "outputs": [],
      "stateMutability": "payable",
      "type": "function"
    },
    {
      "inputs": [
        {
          "internalType": "uint256",
          "name": "_tokenId",
          "type": "uint256"
        },
        {
          "internalType": "uint256",
          "name": "_timestamp",
          "type": "uint256"
        },
        {
          "internalType": "bytes32",
          "name": "_infringmentAttemptsHash",
          "type": "bytes32"
        }
      ],
      "name": "recordIPRInfringementAttempts",
      "outputs": [],
      "stateMutability": "nonpayable",
      "type": "function"
    },
    {
      "inputs": [],
      "name": "renounceOwnership",
      "outputs": [],
      "stateMutability": "nonpayable",
      "type": "function"
    },
    {
      "inputs": [
        {
          "internalType": "string",
          "name": "_tokenURI",
          "type": "string"
        },
        {
          "internalType": "uint256",
          "name": "_sellingPrice",
          "type": "uint256"
        },
        {
          "internalType": "uint256",
          "name": "_dailyLicensePrice",
          "type": "uint256"
        }
      ],
      "name": "safeMint",
      "outputs": [
        {
          "internalType": "uint256",
          "name": "_newTokenId",
          "type": "uint256"
        }
      ],
      "stateMutability": "nonpayable",
      "type": "function"
    },
    {
      "inputs": [
        {
          "internalType": "address",
          "name": "from",
          "type": "address"
        },
        {
          "internalType": "address",
          "name": "to",
          "type": "address"
        },
        {
          "internalType": "uint256",
          "name": "tokenId",
          "type": "uint256"
        }
      ],
      "name": "safeTransferFrom",
      "outputs": [],
      "stateMutability": "nonpayable",
      "type": "function"
    },
    {
      "inputs": [
        {
          "internalType": "address",
          "name": "from",
          "type": "address"
        },
        {
          "internalType": "address",
          "name": "to",
          "type": "address"
        },
        {
          "internalType": "uint256",
          "name": "tokenId",
          "type": "uint256"
        },
        {
          "internalType": "bytes",
          "name": "_data",
          "type": "bytes"
        }
      ],
      "name": "safeTransferFrom",
      "outputs": [],
      "stateMutability": "nonpayable",
      "type": "function"
    },
    {
      "inputs": [
        {
          "internalType": "address",
          "name": "operator",
          "type": "address"
        },
        {
          "internalType": "bool",
          "name": "approved",
          "type": "bool"
        }
      ],
      "name": "setApprovalForAll",
      "outputs": [],
      "stateMutability": "nonpayable",
      "type": "function"
    },
    {
      "inputs": [
        {
          "internalType": "bytes4",
          "name": "interfaceId",
          "type": "bytes4"
        }
      ],
      "name": "supportsInterface",
      "outputs": [
        {
          "internalType": "bool",
          "name": "",
          "type": "bool"
        }
      ],
      "stateMutability": "view",
      "type": "function"
    },
    {
      "inputs": [],
      "name": "symbol",
      "outputs": [
        {
          "internalType": "string",
          "name": "",
          "type": "string"
        }
      ],
      "stateMutability": "view",
      "type": "function"
    },
    {
      "inputs": [
        {
          "internalType": "uint256",
          "name": "tokenId",
          "type": "uint256"
        }
      ],
      "name": "tokenURI",
      "outputs": [
        {
          "internalType": "string",
          "name": "",
          "type": "string"
        }
      ],
      "stateMutability": "view",
      "type": "function"
    },
    {
      "inputs": [
        {
          "internalType": "address",
          "name": "from",
          "type": "address"
        },
        {
          "internalType": "address",
          "name": "to",
          "type": "address"
        },
        {
          "internalType": "uint256",
          "name": "tokenId",
          "type": "uint256"
        }
      ],
      "name": "transferFrom",
      "outputs": [],
      "stateMutability": "nonpayable",
      "type": "function"
    },
    {
      "inputs": [
        {
          "internalType": "address",
          "name": "newOwner",
          "type": "address"
        }
      ],
      "name": "transferOwnership",
      "outputs": [],
      "stateMutability": "nonpayable",
      "type": "function"
    },
    {
      "inputs": [
        {
          "internalType": "uint256",
          "name": "_tokenId",
          "type": "uint256"
        },
        {
          "internalType": "uint256",
          "name": "_newDailyLicensePrice",
          "type": "uint256"
        }
      ],
      "name": "updateDailyLicensePrice",
      "outputs": [],
      "stateMutability": "nonpayable",
      "type": "function"
    },
    {
      "inputs": [
        {
          "internalType": "uint256",
          "name": "_tokenId",
          "type": "uint256"
        },
        {
          "internalType": "uint256",
          "name": "_newSellingPrice",
          "type": "uint256"
        }
      ],
      "name": "updateSellingPrice",
      "outputs": [],
      "stateMutability": "nonpayable",
      "type": "function"
    }
  ],
  "bytecode": "0x6080604052600760085560036009553480156200001b57600080fd5b506040518060400160405280600a81526020017f4469676974616c417274000000000000000000000000000000000000000000008152506040518060400160405280600381526020017f44415400000000000000000000000000000000000000000000000000000000008152508160009080519060200190620000a09291906200017b565b508060019080519060200190620000b99291906200017b565b5050506000620000ce6200017360201b60201c565b905080600760006101000a81548173ffffffffffffffffffffffffffffffffffffffff021916908373ffffffffffffffffffffffffffffffffffffffff1602179055508073ffffffffffffffffffffffffffffffffffffffff16600073ffffffffffffffffffffffffffffffffffffffff167f8be0079c531659141344cd1fd0a4f28419497f9722a3daafe3b4186f6b6457e060405160405180910390a35062000290565b600033905090565b82805462000189906200022b565b90600052602060002090601f016020900481019282620001ad5760008555620001f9565b82601f10620001c857805160ff1916838001178555620001f9565b82800160010185558215620001f9579182015b82811115620001f8578251825591602001919060010190620001db565b5b5090506200020891906200020c565b5090565b5b80821115620002275760008160009055506001016200020d565b5090565b600060028204905060018216806200024457607f821691505b602082108114156200025b576200025a62000261565b5b50919050565b7f4e487b7100000000000000000000000000000000000000000000000000000000600052602260045260246000fd5b615c6a80620002a06000396000f3fe60806040526004361061019c5760003560e01c80636e1f94e1116100ec578063ad4451a31161008a578063cd1f6ed911610064578063cd1f6ed9146105e3578063d650f94c1461060e578063e985e9c514610639578063f2fde38b146106765761019c565b8063ad4451a314610561578063b88d4fde1461057d578063c87b56dd146105a65761019c565b80638da5cb5b116100c65780638da5cb5b146104a5578063917a11d4146104d057806395d89b411461050d578063a22cb465146105385761019c565b80636e1f94e11461041457806370a0823114610451578063715018a61461048e5761019c565b80632ef6ea7a11610159578063571a2b6f11610133578063571a2b6f1461035c57806361d317d3146103855780636352211e146103ae5780636a5c6397146103eb5761019c565b80632ef6ea7a146102b457806333aa49cd146102f157806342842e0e146103335761019c565b806301ffc9a7146101a157806306fdde03146101de578063081812fc14610209578063095ea7b3146102465780630c7a35681461026f57806323b872dd1461028b575b600080fd5b3480156101ad57600080fd5b506101c860048036038101906101c3919061414e565b61069f565b6040516101d5919061507b565b60405180910390f35b3480156101ea57600080fd5b506101f3610781565b60405161020091906150b1565b60405180910390f35b34801561021557600080fd5b50610230600480360381019061022b9190614207565b610813565b60405161023d9190614f92565b60405180910390f35b34801561025257600080fd5b5061026d600480360381019061026891906140d1565b610898565b005b610289600480360381019061028491906142bb565b6109b0565b005b34801561029757600080fd5b506102b260048036038101906102ad9190613fcb565b610eaf565b005b3480156102c057600080fd5b506102db60048036038101906102d69190614207565b610f0f565b6040516102e89190615059565b60405180910390f35b3480156102fd57600080fd5b5061031860048036038101906103139190614207565b610fff565b60405161032a96959493929190615629565b60405180910390f35b34801561033f57600080fd5b5061035a60048036038101906103559190613fcb565b611103565b005b34801561036857600080fd5b50610383600480360381019061037e9190614230565b611123565b005b34801561039157600080fd5b506103ac60048036038101906103a79190614230565b611568565b005b3480156103ba57600080fd5b506103d560048036038101906103d09190614207565b611950565b6040516103e29190614f92565b60405180910390f35b3480156103f757600080fd5b50610412600480360381019061040d919061426c565b611a02565b005b34801561042057600080fd5b5061043b600480360381019061043691906141a0565b611cf4565b60405161044891906154f3565b60405180910390f35b34801561045d57600080fd5b5061047860048036038101906104739190613f66565b611fbd565b60405161048591906154f3565b60405180910390f35b34801561049a57600080fd5b506104a3612075565b005b3480156104b157600080fd5b506104ba6121b2565b6040516104c79190614f92565b60405180910390f35b3480156104dc57600080fd5b506104f760048036038101906104f29190614207565b6121dc565b6040516105049190615096565b60405180910390f35b34801561051957600080fd5b506105226121f4565b60405161052f91906150b1565b60405180910390f35b34801561054457600080fd5b5061055f600480360381019061055a9190614095565b612286565b005b61057b60048036038101906105769190614230565b612407565b005b34801561058957600080fd5b506105a4600480360381019061059f919061401a565b612922565b005b3480156105b257600080fd5b506105cd60048036038101906105c89190614207565b612984565b6040516105da91906150b1565b60405180910390f35b3480156105ef57600080fd5b506105f8612ad6565b60405161060591906154f3565b60405180910390f35b34801561061a57600080fd5b50610623612adc565b60405161063091906154f3565b60405180910390f35b34801561064557600080fd5b50610660600480360381019061065b9190613f8f565b612ae2565b60405161066d919061507b565b60405180910390f35b34801561068257600080fd5b5061069d60048036038101906106989190613f66565b612b76565b005b60007f80ac58cd000000000000000000000000000000000000000000000000000000007bffffffffffffffffffffffffffffffffffffffffffffffffffffffff1916827bffffffffffffffffffffffffffffffffffffffffffffffffffffffff1916148061076a57507f5b5e139f000000000000000000000000000000000000000000000000000000007bffffffffffffffffffffffffffffffffffffffffffffffffffffffff1916827bffffffffffffffffffffffffffffffffffffffffffffffffffffffff1916145b8061077a575061077982612d22565b5b9050919050565b60606000805461079090615a48565b80601f01602080910402602001604051908101604052809291908181526020018280546107bc90615a48565b80156108095780601f106107de57610100808354040283529160200191610809565b820191906000526020600020905b8154815290600101906020018083116107ec57829003601f168201915b5050505050905090565b600061081e82612d8c565b61085d576040517f08c379a0000000000000000000000000000000000000000000000000000000008152600401610854906153d3565b60405180910390fd5b6004600083815260200190815260200160002060009054906101000a900473ffffffffffffffffffffffffffffffffffffffff169050919050565b60006108a382611950565b90508073ffffffffffffffffffffffffffffffffffffffff168373ffffffffffffffffffffffffffffffffffffffff161415610914576040517f08c379a000000000000000000000000000000000000000000000000000000000815260040161090b90615453565b60405180910390fd5b8073ffffffffffffffffffffffffffffffffffffffff16610933612df8565b73ffffffffffffffffffffffffffffffffffffffff16148061096257506109618161095c612df8565b612ae2565b5b6109a1576040517f08c379a0000000000000000000000000000000000000000000000000000000008152600401610998906152d3565b60405180910390fd5b6109ab8383612e00565b505050565b6000600a60008581526020019081526020016000206040518060c00160405290816000820154815260200160018201548152602001600282015481526020016003820180546109fe90615a48565b80601f0160208091040260200160405190810160405280929190818152602001828054610a2a90615a48565b8015610a775780601f10610a4c57610100808354040283529160200191610a77565b820191906000526020600020905b815481529060010190602001808311610a5a57829003601f168201915b505050505081526020016004820160009054906101000a900473ffffffffffffffffffffffffffffffffffffffff1673ffffffffffffffffffffffffffffffffffffffff1673ffffffffffffffffffffffffffffffffffffffff1681526020016005820160009054906101000a900473ffffffffffffffffffffffffffffffffffffffff1673ffffffffffffffffffffffffffffffffffffffff1673ffffffffffffffffffffffffffffffffffffffff16815250509050610b38600c612eb9565b8411158015610b4a5750838160000151145b610b89576040517f08c379a0000000000000000000000000000000000000000000000000000000008152600401610b8090615353565b60405180910390fd5b3373ffffffffffffffffffffffffffffffffffffffff168160a0015173ffffffffffffffffffffffffffffffffffffffff161415610bfc576040517f08c379a0000000000000000000000000000000000000000000000000000000008152600401610bf3906151d3565b60405180910390fd5b6000816040015111610c43576040517f08c379a0000000000000000000000000000000000000000000000000000000008152600401610c3a906154d3565b60405180910390fd5b60008311610c86576040517f08c379a0000000000000000000000000000000000000000000000000000000008152600401610c7d906150f3565b60405180910390fd5b34838260400151610c9791906158b2565b1115610cd8576040517f08c379a0000000000000000000000000000000000000000000000000000000008152600401610ccf90615293565b60405180910390fd5b610ce3338584612ec7565b60006009546064858460400151610cfa91906158b2565b610d049190615881565b610d0e91906158b2565b9050600081858460400151610d2391906158b2565b610d2d919061590c565b9050610d3d8360800151836130fb565b610d4b8360a00151826130fb565b60006305265c0086610d5d91906158b2565b905060006040518060a001604052808981526020018781526020018388610d84919061582b565b81526020013481526020013373ffffffffffffffffffffffffffffffffffffffff168152509050600e60008981526020019081526020016000208190806001815401808255809150506001900390600052602060002090600502016000909190919091506000820151816000015560208201518160010155604082015181600201556060820151816003015560808201518160040160006101000a81548173ffffffffffffffffffffffffffffffffffffffff021916908373ffffffffffffffffffffffffffffffffffffffff16021790555050507fee6d96e6bb15c556dad9055c074dc60e2b01d0b67378d3922ccbbad8d4d7ea8a888834858a610e89919061582b565b338b604051610e9d96959493929190615691565b60405180910390a15050505050505050565b610ec0610eba612df8565b826131ac565b610eff576040517f08c379a0000000000000000000000000000000000000000000000000000000008152600401610ef690615493565b60405180910390fd5b610f0a83838361328a565b505050565b6060600e6000838152602001908152602001600020805480602002602001604051908101604052809291908181526020016000905b82821015610ff457838290600052602060002090600502016040518060a0016040529081600082015481526020016001820154815260200160028201548152602001600382015481526020016004820160009054906101000a900473ffffffffffffffffffffffffffffffffffffffff1673ffffffffffffffffffffffffffffffffffffffff1673ffffffffffffffffffffffffffffffffffffffff168152505081526020019060010190610f44565b505050509050919050565b600a60205280600052604060002060009150905080600001549080600101549080600201549080600301805461103490615a48565b80601f016020809104026020016040519081016040528092919081815260200182805461106090615a48565b80156110ad5780601f10611082576101008083540402835291602001916110ad565b820191906000526020600020905b81548152906001019060200180831161109057829003601f168201915b5050505050908060040160009054906101000a900473ffffffffffffffffffffffffffffffffffffffff16908060050160009054906101000a900473ffffffffffffffffffffffffffffffffffffffff16905086565b61111e83838360405180602001604052806000815250612922565b505050565b6000600a60008481526020019081526020016000206040518060c001604052908160008201548152602001600182015481526020016002820154815260200160038201805461117190615a48565b80601f016020809104026020016040519081016040528092919081815260200182805461119d90615a48565b80156111ea5780601f106111bf576101008083540402835291602001916111ea565b820191906000526020600020905b8154815290600101906020018083116111cd57829003601f168201915b505050505081526020016004820160009054906101000a900473ffffffffffffffffffffffffffffffffffffffff1673ffffffffffffffffffffffffffffffffffffffff1673ffffffffffffffffffffffffffffffffffffffff1681526020016005820160009054906101000a900473ffffffffffffffffffffffffffffffffffffffff1673ffffffffffffffffffffffffffffffffffffffff1673ffffffffffffffffffffffffffffffffffffffff168152505090506112ab600c612eb9565b83111580156112bd5750828160000151145b6112fc576040517f08c379a00000000000000000000000000000000000000000000000000000000081526004016112f390615353565b60405180910390fd5b3373ffffffffffffffffffffffffffffffffffffffff168160a0015173ffffffffffffffffffffffffffffffffffffffff161461136e576040517f08c379a000000000000000000000000000000000000000000000000000000000815260040161136590615273565b60405180910390fd5b600081602001511480156113825750600082115b8061139e57506000816020015111801561139d575060008210155b5b6113dd576040517f08c379a00000000000000000000000000000000000000000000000000000000081526004016113d490615173565b60405180910390fd5b7ffbf96fcc78e52dc724126274324663c8a5bc540e16d8133f3d113477187329e88382602001518460405161141493929190615598565b60405180910390a1600073ffffffffffffffffffffffffffffffffffffffff1661143d84610813565b73ffffffffffffffffffffffffffffffffffffffff161415611464576114633084610898565b5b600082141561147957611478600084610898565b5b8181602001818152505080600a600085815260200190815260200160002060008201518160000155602082015181600101556040820151816002015560608201518160030190805190602001906114d1929190613c2d565b5060808201518160040160006101000a81548173ffffffffffffffffffffffffffffffffffffffff021916908373ffffffffffffffffffffffffffffffffffffffff16021790555060a08201518160050160006101000a81548173ffffffffffffffffffffffffffffffffffffffff021916908373ffffffffffffffffffffffffffffffffffffffff160217905550905050505050565b6000600a60008481526020019081526020016000206040518060c00160405290816000820154815260200160018201548152602001600282015481526020016003820180546115b690615a48565b80601f01602080910402602001604051908101604052809291908181526020018280546115e290615a48565b801561162f5780601f106116045761010080835404028352916020019161162f565b820191906000526020600020905b81548152906001019060200180831161161257829003601f168201915b505050505081526020016004820160009054906101000a900473ffffffffffffffffffffffffffffffffffffffff1673ffffffffffffffffffffffffffffffffffffffff1673ffffffffffffffffffffffffffffffffffffffff1681526020016005820160009054906101000a900473ffffffffffffffffffffffffffffffffffffffff1673ffffffffffffffffffffffffffffffffffffffff1673ffffffffffffffffffffffffffffffffffffffff168152505090506116f0600c612eb9565b83111580156117025750828160000151145b611741576040517f08c379a000000000000000000000000000000000000000000000000000000000815260040161173890615353565b60405180910390fd5b3373ffffffffffffffffffffffffffffffffffffffff168160a0015173ffffffffffffffffffffffffffffffffffffffff16146117b3576040517f08c379a00000000000000000000000000000000000000000000000000000000081526004016117aa90615273565b60405180910390fd5b600081604001511480156117c75750600082115b806117e35750600081604001511180156117e2575060008210155b5b611822576040517f08c379a000000000000000000000000000000000000000000000000000000000815260040161181990615193565b60405180910390fd5b7fd74f4dda031330fab8da16fb8a42ef6b85772d9fe0a056e14a221a7fa18a2fe98382604001518460405161185993929190615598565b60405180910390a18181604001818152505080600a600085815260200190815260200160002060008201518160000155602082015181600101556040820151816002015560608201518160030190805190602001906118b9929190613c2d565b5060808201518160040160006101000a81548173ffffffffffffffffffffffffffffffffffffffff021916908373ffffffffffffffffffffffffffffffffffffffff16021790555060a08201518160050160006101000a81548173ffffffffffffffffffffffffffffffffffffffff021916908373ffffffffffffffffffffffffffffffffffffffff160217905550905050505050565b6000806002600084815260200190815260200160002060009054906101000a900473ffffffffffffffffffffffffffffffffffffffff169050600073ffffffffffffffffffffffffffffffffffffffff168173ffffffffffffffffffffffffffffffffffffffff1614156119f9576040517f08c379a00000000000000000000000000000000000000000000000000000000081526004016119f090615313565b60405180910390fd5b80915050919050565b611a0a612df8565b73ffffffffffffffffffffffffffffffffffffffff16611a286121b2565b73ffffffffffffffffffffffffffffffffffffffff1614611a7e576040517f08c379a0000000000000000000000000000000000000000000000000000000008152600401611a75906153f3565b60405180910390fd5b6000600a60008581526020019081526020016000206040518060c0016040529081600082015481526020016001820154815260200160028201548152602001600382018054611acc90615a48565b80601f0160208091040260200160405190810160405280929190818152602001828054611af890615a48565b8015611b455780601f10611b1a57610100808354040283529160200191611b45565b820191906000526020600020905b815481529060010190602001808311611b2857829003601f168201915b505050505081526020016004820160009054906101000a900473ffffffffffffffffffffffffffffffffffffffff1673ffffffffffffffffffffffffffffffffffffffff1673ffffffffffffffffffffffffffffffffffffffff1681526020016005820160009054906101000a900473ffffffffffffffffffffffffffffffffffffffff1673ffffffffffffffffffffffffffffffffffffffff1673ffffffffffffffffffffffffffffffffffffffff16815250509050611c06600c612eb9565b8411158015611c185750838160000151145b611c57576040517f08c379a0000000000000000000000000000000000000000000000000000000008152600401611c4e90615353565b60405180910390fd5b6000821415611c9b576040517f08c379a0000000000000000000000000000000000000000000000000000000008152600401611c92906151f3565b60405180910390fd5b7ff765e420c90c4b989d30cbf0aa346cde4706be3fefbb6a1f31108f0904c8c7e2848484604051611cce93929190615561565b60405180910390a181600b60008681526020019081526020016000208190555050505050565b600080600d85604051611d079190614f57565b90815260200160405180910390205414611d56576040517f08c379a0000000000000000000000000000000000000000000000000000000008152600401611d4d90615473565b60405180910390fd5b60008311611d99576040517f08c379a0000000000000000000000000000000000000000000000000000000008152600401611d90906150d3565b60405180910390fd5b60008211611ddc576040517f08c379a0000000000000000000000000000000000000000000000000000000008152600401611dd3906152b3565b60405180910390fd5b611de6600c6134e6565b6000611df2600c612eb9565b9050611dfe33826134fc565b611e08818661351a565b60006040518060c001604052808381526020018681526020018581526020018781526020013373ffffffffffffffffffffffffffffffffffffffff1681526020013373ffffffffffffffffffffffffffffffffffffffff16815250905080600a60008481526020019081526020016000206000820151816000015560208201518160010155604082015181600201556060820151816003019080519060200190611eb3929190613c2d565b5060808201518160040160006101000a81548173ffffffffffffffffffffffffffffffffffffffff021916908373ffffffffffffffffffffffffffffffffffffffff16021790555060a08201518160050160006101000a81548173ffffffffffffffffffffffffffffffffffffffff021916908373ffffffffffffffffffffffffffffffffffffffff16021790555090505081600d87604051611f569190614f57565b908152602001604051809103902081905550611f723083610898565b7f584e81111629cd59f3aa4829f0765e569d6e7f1a11237dc8733a72f6b2ee2c588286868933604051611fa99594939291906155cf565b60405180910390a181925050509392505050565b60008073ffffffffffffffffffffffffffffffffffffffff168273ffffffffffffffffffffffffffffffffffffffff16141561202e576040517f08c379a0000000000000000000000000000000000000000000000000000000008152600401612025906152f3565b60405180910390fd5b600360008373ffffffffffffffffffffffffffffffffffffffff1673ffffffffffffffffffffffffffffffffffffffff168152602001908152602001600020549050919050565b61207d612df8565b73ffffffffffffffffffffffffffffffffffffffff1661209b6121b2565b73ffffffffffffffffffffffffffffffffffffffff16146120f1576040517f08c379a00000000000000000000000000000000000000000000000000000000081526004016120e8906153f3565b60405180910390fd5b600073ffffffffffffffffffffffffffffffffffffffff16600760009054906101000a900473ffffffffffffffffffffffffffffffffffffffff1673ffffffffffffffffffffffffffffffffffffffff167f8be0079c531659141344cd1fd0a4f28419497f9722a3daafe3b4186f6b6457e060405160405180910390a36000600760006101000a81548173ffffffffffffffffffffffffffffffffffffffff021916908373ffffffffffffffffffffffffffffffffffffffff160217905550565b6000600760009054906101000a900473ffffffffffffffffffffffffffffffffffffffff16905090565b600b6020528060005260406000206000915090505481565b60606001805461220390615a48565b80601f016020809104026020016040519081016040528092919081815260200182805461222f90615a48565b801561227c5780601f106122515761010080835404028352916020019161227c565b820191906000526020600020905b81548152906001019060200180831161225f57829003601f168201915b5050505050905090565b61228e612df8565b73ffffffffffffffffffffffffffffffffffffffff168273ffffffffffffffffffffffffffffffffffffffff1614156122fc576040517f08c379a00000000000000000000000000000000000000000000000000000000081526004016122f390615233565b60405180910390fd5b8060056000612309612df8565b73ffffffffffffffffffffffffffffffffffffffff1673ffffffffffffffffffffffffffffffffffffffff16815260200190815260200160002060008473ffffffffffffffffffffffffffffffffffffffff1673ffffffffffffffffffffffffffffffffffffffff16815260200190815260200160002060006101000a81548160ff0219169083151502179055508173ffffffffffffffffffffffffffffffffffffffff166123b6612df8565b73ffffffffffffffffffffffffffffffffffffffff167f17307eab39ab6107e8899845ad3d59bd9653f200f220920489ca2b5937696c31836040516123fb919061507b565b60405180910390a35050565b6000600a60008481526020019081526020016000206040518060c001604052908160008201548152602001600182015481526020016002820154815260200160038201805461245590615a48565b80601f016020809104026020016040519081016040528092919081815260200182805461248190615a48565b80156124ce5780601f106124a3576101008083540402835291602001916124ce565b820191906000526020600020905b8154815290600101906020018083116124b157829003601f168201915b505050505081526020016004820160009054906101000a900473ffffffffffffffffffffffffffffffffffffffff1673ffffffffffffffffffffffffffffffffffffffff1673ffffffffffffffffffffffffffffffffffffffff1681526020016005820160009054906101000a900473ffffffffffffffffffffffffffffffffffffffff1673ffffffffffffffffffffffffffffffffffffffff1673ffffffffffffffffffffffffffffffffffffffff1681525050905061258f600c612eb9565b83111580156125a15750828160000151145b6125e0576040517f08c379a00000000000000000000000000000000000000000000000000000000081526004016125d790615353565b60405180910390fd5b3373ffffffffffffffffffffffffffffffffffffffff168160a0015173ffffffffffffffffffffffffffffffffffffffff161415612653576040517f08c379a000000000000000000000000000000000000000000000000000000000815260040161264a906151d3565b60405180910390fd5b600081602001511161269a576040517f08c379a0000000000000000000000000000000000000000000000000000000008152600401612691906154b3565b60405180910390fd5b34816020015111156126e1576040517f08c379a00000000000000000000000000000000000000000000000000000000081526004016126d890615293565b60405180910390fd5b6000600854606483602001516126f79190615881565b61270191906158b2565b90506000818360200151612715919061590c565b90507f892605e5aa205718bf5422cbe570beb6c419fe374afe9a7f9c8fc114b99020a8858460a0015133348860405161275295949392919061550e565b60405180910390a13073ffffffffffffffffffffffffffffffffffffffff166342842e0e8460a001513386600001516040518463ffffffff1660e01b815260040161279f93929190614fad565b600060405180830381600087803b1580156127b957600080fd5b505af11580156127cd573d6000803e3d6000fd5b505050506127df8360800151836130fb565b6127ed8360a00151826130fb565b338360a0019073ffffffffffffffffffffffffffffffffffffffff16908173ffffffffffffffffffffffffffffffffffffffff16815250506000836020018181525050600083604001818152505082600a60008781526020019081526020016000206000820151816000015560208201518160010155604082015181600201556060820151816003019080519060200190612889929190613c2d565b5060808201518160040160006101000a81548173ffffffffffffffffffffffffffffffffffffffff021916908373ffffffffffffffffffffffffffffffffffffffff16021790555060a08201518160050160006101000a81548173ffffffffffffffffffffffffffffffffffffffff021916908373ffffffffffffffffffffffffffffffffffffffff1602179055509050505050505050565b61293361292d612df8565b836131ac565b612972576040517f08c379a000000000000000000000000000000000000000000000000000000000815260040161296990615493565b60405180910390fd5b61297e8484848461358e565b50505050565b606061298f82612d8c565b6129ce576040517f08c379a00000000000000000000000000000000000000000000000000000000081526004016129c5906153b3565b60405180910390fd5b60006006600084815260200190815260200160002080546129ee90615a48565b80601f0160208091040260200160405190810160405280929190818152602001828054612a1a90615a48565b8015612a675780601f10612a3c57610100808354040283529160200191612a67565b820191906000526020600020905b815481529060010190602001808311612a4a57829003601f168201915b505050505090506000612a786135ea565b9050600081511415612a8e578192505050612ad1565b600082511115612ac3578082604051602001612aab929190614f6e565b60405160208183030381529060405292505050612ad1565b612acc84613601565b925050505b919050565b60085481565b60095481565b6000600560008473ffffffffffffffffffffffffffffffffffffffff1673ffffffffffffffffffffffffffffffffffffffff16815260200190815260200160002060008373ffffffffffffffffffffffffffffffffffffffff1673ffffffffffffffffffffffffffffffffffffffff16815260200190815260200160002060009054906101000a900460ff16905092915050565b612b7e612df8565b73ffffffffffffffffffffffffffffffffffffffff16612b9c6121b2565b73ffffffffffffffffffffffffffffffffffffffff1614612bf2576040517f08c379a0000000000000000000000000000000000000000000000000000000008152600401612be9906153f3565b60405180910390fd5b600073ffffffffffffffffffffffffffffffffffffffff168173ffffffffffffffffffffffffffffffffffffffff161415612c62576040517f08c379a0000000000000000000000000000000000000000000000000000000008152600401612c5990615133565b60405180910390fd5b8073ffffffffffffffffffffffffffffffffffffffff16600760009054906101000a900473ffffffffffffffffffffffffffffffffffffffff1673ffffffffffffffffffffffffffffffffffffffff167f8be0079c531659141344cd1fd0a4f28419497f9722a3daafe3b4186f6b6457e060405160405180910390a380600760006101000a81548173ffffffffffffffffffffffffffffffffffffffff021916908373ffffffffffffffffffffffffffffffffffffffff16021790555050565b60007f01ffc9a7000000000000000000000000000000000000000000000000000000007bffffffffffffffffffffffffffffffffffffffffffffffffffffffff1916827bffffffffffffffffffffffffffffffffffffffffffffffffffffffff1916149050919050565b60008073ffffffffffffffffffffffffffffffffffffffff166002600084815260200190815260200160002060009054906101000a900473ffffffffffffffffffffffffffffffffffffffff1673ffffffffffffffffffffffffffffffffffffffff1614159050919050565b600033905090565b816004600083815260200190815260200160002060006101000a81548173ffffffffffffffffffffffffffffffffffffffff021916908373ffffffffffffffffffffffffffffffffffffffff160217905550808273ffffffffffffffffffffffffffffffffffffffff16612e7383611950565b73ffffffffffffffffffffffffffffffffffffffff167f8c5be1e5ebec7d5bd14f71427d1e84f3dd0314c0f7b2291e5b200ac8c7c3b92560405160405180910390a45050565b600081600001549050919050565b60003073ffffffffffffffffffffffffffffffffffffffff16632ef6ea7a846040518263ffffffff1660e01b8152600401612f0291906154f3565b60006040518083038186803b158015612f1a57600080fd5b505afa158015612f2e573d6000803e3d6000fd5b505050506040513d6000823e3d601f19601f82011682018060405250810190612f57919061410d565b905060005b81518110156130f4578473ffffffffffffffffffffffffffffffffffffffff16828281518110612fb5577f4e487b7100000000000000000000000000000000000000000000000000000000600052603260045260246000fd5b60200260200101516080015173ffffffffffffffffffffffffffffffffffffffff16148015613027575082828281518110613019577f4e487b7100000000000000000000000000000000000000000000000000000000600052603260045260246000fd5b602002602001015160400151105b806130a257508473ffffffffffffffffffffffffffffffffffffffff1682828151811061307d577f4e487b7100000000000000000000000000000000000000000000000000000000600052603260045260246000fd5b60200260200101516080015173ffffffffffffffffffffffffffffffffffffffff1614155b6130e1576040517f08c379a00000000000000000000000000000000000000000000000000000000081526004016130d890615373565b60405180910390fd5b80806130ec90615a7a565b915050612f5c565b5050505050565b7fc7b16f0c91d6e099a9fb831632a80052954f1f27b4c358262703709988e69856828260405161312c929190614fe4565b60405180910390a18173ffffffffffffffffffffffffffffffffffffffff166108fc829081150290604051600060405180830381858888f193505050506131a8576040517f08c379a000000000000000000000000000000000000000000000000000000000815260040161319f906151b3565b60405180910390fd5b5050565b60006131b782612d8c565b6131f6576040517f08c379a00000000000000000000000000000000000000000000000000000000081526004016131ed90615253565b60405180910390fd5b600061320183611950565b90508073ffffffffffffffffffffffffffffffffffffffff168473ffffffffffffffffffffffffffffffffffffffff16148061327057508373ffffffffffffffffffffffffffffffffffffffff1661325884610813565b73ffffffffffffffffffffffffffffffffffffffff16145b8061328157506132808185612ae2565b5b91505092915050565b8273ffffffffffffffffffffffffffffffffffffffff166132aa82611950565b73ffffffffffffffffffffffffffffffffffffffff1614613300576040517f08c379a00000000000000000000000000000000000000000000000000000000081526004016132f790615413565b60405180910390fd5b600073ffffffffffffffffffffffffffffffffffffffff168273ffffffffffffffffffffffffffffffffffffffff161415613370576040517f08c379a000000000000000000000000000000000000000000000000000000000815260040161336790615213565b60405180910390fd5b61337b8383836136a8565b613386600082612e00565b6001600360008573ffffffffffffffffffffffffffffffffffffffff1673ffffffffffffffffffffffffffffffffffffffff16815260200190815260200160002060008282546133d6919061590c565b925050819055506001600360008473ffffffffffffffffffffffffffffffffffffffff1673ffffffffffffffffffffffffffffffffffffffff168152602001908152602001600020600082825461342d919061582b565b92505081905550816002600083815260200190815260200160002060006101000a81548173ffffffffffffffffffffffffffffffffffffffff021916908373ffffffffffffffffffffffffffffffffffffffff160217905550808273ffffffffffffffffffffffffffffffffffffffff168473ffffffffffffffffffffffffffffffffffffffff167fddf252ad1be2c89b69c2b068fc378daa952ba7f163c4a11628f55a4df523b3ef60405160405180910390a4505050565b6001816000016000828254019250508190555050565b6135168282604051806020016040528060008152506136ad565b5050565b61352382612d8c565b613562576040517f08c379a000000000000000000000000000000000000000000000000000000000815260040161355990615333565b60405180910390fd5b80600660008481526020019081526020016000209080519060200190613589929190613c2d565b505050565b61359984848461328a565b6135a584848484613708565b6135e4576040517f08c379a00000000000000000000000000000000000000000000000000000000081526004016135db90615113565b60405180910390fd5b50505050565b606060405180602001604052806000815250905090565b606061360c82612d8c565b61364b576040517f08c379a000000000000000000000000000000000000000000000000000000000815260040161364290615433565b60405180910390fd5b60006136556135ea565b9050600081511161367557604051806020016040528060008152506136a0565b8061367f8461389f565b604051602001613690929190614f6e565b6040516020818303038152906040525b915050919050565b505050565b6136b78383613a4c565b6136c46000848484613708565b613703576040517f08c379a00000000000000000000000000000000000000000000000000000000081526004016136fa90615113565b60405180910390fd5b505050565b60006137298473ffffffffffffffffffffffffffffffffffffffff16613c1a565b15613892578373ffffffffffffffffffffffffffffffffffffffff1663150b7a02613752612df8565b8786866040518563ffffffff1660e01b8152600401613774949392919061500d565b602060405180830381600087803b15801561378e57600080fd5b505af19250505080156137bf57506040513d601f19601f820116820180604052508101906137bc9190614177565b60015b613842573d80600081146137ef576040519150601f19603f3d011682016040523d82523d6000602084013e6137f4565b606091505b5060008151141561383a576040517f08c379a000000000000000000000000000000000000000000000000000000000815260040161383190615113565b60405180910390fd5b805181602001fd5b63150b7a0260e01b7bffffffffffffffffffffffffffffffffffffffffffffffffffffffff1916817bffffffffffffffffffffffffffffffffffffffffffffffffffffffff191614915050613897565b600190505b949350505050565b606060008214156138e7576040518060400160405280600181526020017f30000000000000000000000000000000000000000000000000000000000000008152509050613a47565b600082905060005b6000821461391957808061390290615a7a565b915050600a826139129190615881565b91506138ef565b60008167ffffffffffffffff81111561395b577f4e487b7100000000000000000000000000000000000000000000000000000000600052604160045260246000fd5b6040519080825280601f01601f19166020018201604052801561398d5781602001600182028036833780820191505090505b5090505b60008514613a40576001826139a6919061590c565b9150600a856139b59190615ac3565b60306139c1919061582b565b60f81b8183815181106139fd577f4e487b7100000000000000000000000000000000000000000000000000000000600052603260045260246000fd5b60200101907effffffffffffffffffffffffffffffffffffffffffffffffffffffffffffff1916908160001a905350600a85613a399190615881565b9450613991565b8093505050505b919050565b600073ffffffffffffffffffffffffffffffffffffffff168273ffffffffffffffffffffffffffffffffffffffff161415613abc576040517f08c379a0000000000000000000000000000000000000000000000000000000008152600401613ab390615393565b60405180910390fd5b613ac581612d8c565b15613b05576040517f08c379a0000000000000000000000000000000000000000000000000000000008152600401613afc90615153565b60405180910390fd5b613b11600083836136a8565b6001600360008473ffffffffffffffffffffffffffffffffffffffff1673ffffffffffffffffffffffffffffffffffffffff1681526020019081526020016000206000828254613b61919061582b565b92505081905550816002600083815260200190815260200160002060006101000a81548173ffffffffffffffffffffffffffffffffffffffff021916908373ffffffffffffffffffffffffffffffffffffffff160217905550808273ffffffffffffffffffffffffffffffffffffffff16600073ffffffffffffffffffffffffffffffffffffffff167fddf252ad1be2c89b69c2b068fc378daa952ba7f163c4a11628f55a4df523b3ef60405160405180910390a45050565b600080823b905060008111915050919050565b828054613c3990615a48565b90600052602060002090601f016020900481019282613c5b5760008555613ca2565b82601f10613c7457805160ff1916838001178555613ca2565b82800160010185558215613ca2579182015b82811115613ca1578251825591602001919060010190613c86565b5b509050613caf9190613cb3565b5090565b5b80821115613ccc576000816000905550600101613cb4565b5090565b6000613ce3613cde84615723565b6156f2565b905080838252602082019050828560a0860282011115613d0257600080fd5b60005b85811015613d325781613d188882613eb4565b845260208401935060a08301925050600181019050613d05565b5050509392505050565b6000613d4f613d4a8461574f565b6156f2565b905082815260208101848484011115613d6757600080fd5b613d72848285615a06565b509392505050565b6000613d8d613d888461577f565b6156f2565b905082815260208101848484011115613da557600080fd5b613db0848285615a06565b509392505050565b600081359050613dc781615bc1565b92915050565b600081519050613ddc81615bc1565b92915050565b600082601f830112613df357600080fd5b8151613e03848260208601613cd0565b91505092915050565b600081359050613e1b81615bd8565b92915050565b600081359050613e3081615bef565b92915050565b600081359050613e4581615c06565b92915050565b600081519050613e5a81615c06565b92915050565b600082601f830112613e7157600080fd5b8135613e81848260208601613d3c565b91505092915050565b600082601f830112613e9b57600080fd5b8135613eab848260208601613d7a565b91505092915050565b600060a08284031215613ec657600080fd5b613ed060a06156f2565b90506000613ee084828501613f51565b6000830152506020613ef484828501613f51565b6020830152506040613f0884828501613f51565b6040830152506060613f1c84828501613f51565b6060830152506080613f3084828501613dcd565b60808301525092915050565b600081359050613f4b81615c1d565b92915050565b600081519050613f6081615c1d565b92915050565b600060208284031215613f7857600080fd5b6000613f8684828501613db8565b91505092915050565b60008060408385031215613fa257600080fd5b6000613fb085828601613db8565b9250506020613fc185828601613db8565b9150509250929050565b600080600060608486031215613fe057600080fd5b6000613fee86828701613db8565b9350506020613fff86828701613db8565b925050604061401086828701613f3c565b9150509250925092565b6000806000806080858703121561403057600080fd5b600061403e87828801613db8565b945050602061404f87828801613db8565b935050604061406087828801613f3c565b925050606085013567ffffffffffffffff81111561407d57600080fd5b61408987828801613e60565b91505092959194509250565b600080604083850312156140a857600080fd5b60006140b685828601613db8565b92505060206140c785828601613e0c565b9150509250929050565b600080604083850312156140e457600080fd5b60006140f285828601613db8565b925050602061410385828601613f3c565b9150509250929050565b60006020828403121561411f57600080fd5b600082015167ffffffffffffffff81111561413957600080fd5b61414584828501613de2565b91505092915050565b60006020828403121561416057600080fd5b600061416e84828501613e36565b91505092915050565b60006020828403121561418957600080fd5b600061419784828501613e4b565b91505092915050565b6000806000606084860312156141b557600080fd5b600084013567ffffffffffffffff8111156141cf57600080fd5b6141db86828701613e8a565b93505060206141ec86828701613f3c565b92505060406141fd86828701613f3c565b9150509250925092565b60006020828403121561421957600080fd5b600061422784828501613f3c565b91505092915050565b6000806040838503121561424357600080fd5b600061425185828601613f3c565b925050602061426285828601613f3c565b9150509250929050565b60008060006060848603121561428157600080fd5b600061428f86828701613f3c565b93505060206142a086828701613f3c565b92505060406142b186828701613e21565b9150509250925092565b6000806000606084860312156142d057600080fd5b60006142de86828701613f3c565b93505060206142ef86828701613f3c565b925050604061430086828701613f3c565b9150509250925092565b60006143168383614ed1565b60a08301905092915050565b61432b816159d0565b82525050565b61433a81615952565b82525050565b61434981615940565b82525050565b61435881615940565b82525050565b6000614369826157bf565b61437381856157ed565b935061437e836157af565b8060005b838110156143af578151614396888261430a565b97506143a1836157e0565b925050600181019050614382565b5085935050505092915050565b6143c581615964565b82525050565b6143d481615970565b82525050565b60006143e5826157ca565b6143ef81856157fe565b93506143ff818560208601615a15565b61440881615bb0565b840191505092915050565b600061441e826157d5565b614428818561580f565b9350614438818560208601615a15565b61444181615bb0565b840191505092915050565b6000614457826157d5565b6144618185615820565b9350614471818560208601615a15565b80840191505092915050565b600061448a60158361580f565b91507f494e56414c49442d53454c4c494e472d505249434500000000000000000000006000830152602082019050919050565b60006144ca60108361580f565b91507f494e56414c49442d4455524154494f4e000000000000000000000000000000006000830152602082019050919050565b600061450a60328361580f565b91507f4552433732313a207472616e7366657220746f206e6f6e20455243373231526560008301527f63656976657220696d706c656d656e74657200000000000000000000000000006020830152604082019050919050565b600061457060268361580f565b91507f4f776e61626c653a206e6577206f776e657220697320746865207a65726f206160008301527f64647265737300000000000000000000000000000000000000000000000000006020830152604082019050919050565b60006145d6601c8361580f565b91507f4552433732313a20746f6b656e20616c7265616479206d696e746564000000006000830152602082019050919050565b600061461660168361580f565b91507f494e56414c49442d53454c4c494e472d555044415445000000000000000000006000830152602082019050919050565b600061465660198361580f565b91507f494e56414c49442d4c4943454e5341424c452d555044415445000000000000006000830152602082019050919050565b6000614696600d8361580f565b91507f5041594d454e542d4552524f52000000000000000000000000000000000000006000830152602082019050919050565b60006146d6600d8361580f565b91507f414c52454144592d4f574e4552000000000000000000000000000000000000006000830152602082019050919050565b600061471660118361580f565b91507f494e56414c49442d444154412d484153480000000000000000000000000000006000830152602082019050919050565b600061475660248361580f565b91507f4552433732313a207472616e7366657220746f20746865207a65726f2061646460008301527f72657373000000000000000000000000000000000000000000000000000000006020830152604082019050919050565b60006147bc60198361580f565b91507f4552433732313a20617070726f766520746f2063616c6c6572000000000000006000830152602082019050919050565b60006147fc602c8361580f565b91507f4552433732313a206f70657261746f7220717565727920666f72206e6f6e657860008301527f697374656e7420746f6b656e00000000000000000000000000000000000000006020830152604082019050919050565b600061486260098361580f565b91507f4e4f542d4f574e455200000000000000000000000000000000000000000000006000830152602082019050919050565b60006148a2600f8361580f565b91507f494e56414c49442d5041594d454e5400000000000000000000000000000000006000830152602082019050919050565b60006148e260158361580f565b91507f494e56414c49442d4c4943454e53452d505249434500000000000000000000006000830152602082019050919050565b600061492260388361580f565b91507f4552433732313a20617070726f76652063616c6c6572206973206e6f74206f7760008301527f6e6572206e6f7220617070726f76656420666f7220616c6c00000000000000006020830152604082019050919050565b6000614988602a8361580f565b91507f4552433732313a2062616c616e636520717565727920666f7220746865207a6560008301527f726f2061646472657373000000000000000000000000000000000000000000006020830152604082019050919050565b60006149ee60298361580f565b91507f4552433732313a206f776e657220717565727920666f72206e6f6e657869737460008301527f656e7420746f6b656e00000000000000000000000000000000000000000000006020830152604082019050919050565b6000614a54602e8361580f565b91507f45524337323155524953746f726167653a2055524920736574206f66206e6f6e60008301527f6578697374656e7420746f6b656e0000000000000000000000000000000000006020830152604082019050919050565b6000614aba60108361580f565b91507f494e56414c49442d544f4b454e2d4944000000000000000000000000000000006000830152602082019050919050565b6000614afa60108361580f565b91507f414c52454144592d4c4943454e534544000000000000000000000000000000006000830152602082019050919050565b6000614b3a60208361580f565b91507f4552433732313a206d696e7420746f20746865207a65726f20616464726573736000830152602082019050919050565b6000614b7a60318361580f565b91507f45524337323155524953746f726167653a2055524920717565727920666f722060008301527f6e6f6e6578697374656e7420746f6b656e0000000000000000000000000000006020830152604082019050919050565b6000614be0602c8361580f565b91507f4552433732313a20617070726f76656420717565727920666f72206e6f6e657860008301527f697374656e7420746f6b656e00000000000000000000000000000000000000006020830152604082019050919050565b6000614c4660208361580f565b91507f4f776e61626c653a2063616c6c6572206973206e6f7420746865206f776e65726000830152602082019050919050565b6000614c8660298361580f565b91507f4552433732313a207472616e73666572206f6620746f6b656e2074686174206960008301527f73206e6f74206f776e00000000000000000000000000000000000000000000006020830152604082019050919050565b6000614cec602f8361580f565b91507f4552433732314d657461646174613a2055524920717565727920666f72206e6f60008301527f6e6578697374656e7420746f6b656e00000000000000000000000000000000006020830152604082019050919050565b6000614d5260218361580f565b91507f4552433732313a20617070726f76616c20746f2063757272656e74206f776e6560008301527f72000000000000000000000000000000000000000000000000000000000000006020830152604082019050919050565b6000614db8600e8361580f565b91507f414c52454144592d4d494e5445440000000000000000000000000000000000006000830152602082019050919050565b6000614df860318361580f565b91507f4552433732313a207472616e736665722063616c6c6572206973206e6f74206f60008301527f776e6572206e6f7220617070726f7665640000000000000000000000000000006020830152604082019050919050565b6000614e5e600c8361580f565b91507f4e4f542d464f522d53414c4500000000000000000000000000000000000000006000830152602082019050919050565b6000614e9e600e8361580f565b91507f4e4f542d4c4943454e5341424c450000000000000000000000000000000000006000830152602082019050919050565b60a082016000820151614ee76000850182614f39565b506020820151614efa6020850182614f39565b506040820151614f0d6040850182614f39565b506060820151614f206060850182614f39565b506080820151614f336080850182614340565b50505050565b614f42816159c6565b82525050565b614f51816159c6565b82525050565b6000614f63828461444c565b915081905092915050565b6000614f7a828561444c565b9150614f86828461444c565b91508190509392505050565b6000602082019050614fa7600083018461434f565b92915050565b6000606082019050614fc26000830186614322565b614fcf602083018561434f565b614fdc6040830184614f48565b949350505050565b6000604082019050614ff96000830185614331565b6150066020830184614f48565b9392505050565b6000608082019050615022600083018761434f565b61502f602083018661434f565b61503c6040830185614f48565b818103606083015261504e81846143da565b905095945050505050565b60006020820190508181036000830152615073818461435e565b905092915050565b600060208201905061509060008301846143bc565b92915050565b60006020820190506150ab60008301846143cb565b92915050565b600060208201905081810360008301526150cb8184614413565b905092915050565b600060208201905081810360008301526150ec8161447d565b9050919050565b6000602082019050818103600083015261510c816144bd565b9050919050565b6000602082019050818103600083015261512c816144fd565b9050919050565b6000602082019050818103600083015261514c81614563565b9050919050565b6000602082019050818103600083015261516c816145c9565b9050919050565b6000602082019050818103600083015261518c81614609565b9050919050565b600060208201905081810360008301526151ac81614649565b9050919050565b600060208201905081810360008301526151cc81614689565b9050919050565b600060208201905081810360008301526151ec816146c9565b9050919050565b6000602082019050818103600083015261520c81614709565b9050919050565b6000602082019050818103600083015261522c81614749565b9050919050565b6000602082019050818103600083015261524c816147af565b9050919050565b6000602082019050818103600083015261526c816147ef565b9050919050565b6000602082019050818103600083015261528c81614855565b9050919050565b600060208201905081810360008301526152ac81614895565b9050919050565b600060208201905081810360008301526152cc816148d5565b9050919050565b600060208201905081810360008301526152ec81614915565b9050919050565b6000602082019050818103600083015261530c8161497b565b9050919050565b6000602082019050818103600083015261532c816149e1565b9050919050565b6000602082019050818103600083015261534c81614a47565b9050919050565b6000602082019050818103600083015261536c81614aad565b9050919050565b6000602082019050818103600083015261538c81614aed565b9050919050565b600060208201905081810360008301526153ac81614b2d565b9050919050565b600060208201905081810360008301526153cc81614b6d565b9050919050565b600060208201905081810360008301526153ec81614bd3565b9050919050565b6000602082019050818103600083015261540c81614c39565b9050919050565b6000602082019050818103600083015261542c81614c79565b9050919050565b6000602082019050818103600083015261544c81614cdf565b9050919050565b6000602082019050818103600083015261546c81614d45565b9050919050565b6000602082019050818103600083015261548c81614dab565b9050919050565b600060208201905081810360008301526154ac81614deb565b9050919050565b600060208201905081810360008301526154cc81614e51565b9050919050565b600060208201905081810360008301526154ec81614e91565b9050919050565b60006020820190506155086000830184614f48565b92915050565b600060a0820190506155236000830188614f48565b6155306020830187614322565b61553d604083018661434f565b61554a6060830185614f48565b6155576080830184614f48565b9695505050505050565b60006060820190506155766000830186614f48565b6155836020830185614f48565b61559060408301846143cb565b949350505050565b60006060820190506155ad6000830186614f48565b6155ba6020830185614f48565b6155c76040830184614f48565b949350505050565b600060a0820190506155e46000830188614f48565b6155f16020830187614f48565b6155fe6040830186614f48565b81810360608301526156108185614413565b905061561f608083018461434f565b9695505050505050565b600060c08201905061563e6000830189614f48565b61564b6020830188614f48565b6156586040830187614f48565b818103606083015261566a8186614413565b90506156796080830185614331565b61568660a0830184614331565b979650505050505050565b600060c0820190506156a66000830189614f48565b6156b36020830188614f48565b6156c06040830187614f48565b6156cd6060830186614f48565b6156da6080830185614331565b6156e760a0830184614f48565b979650505050505050565b6000604051905081810181811067ffffffffffffffff8211171561571957615718615b81565b5b8060405250919050565b600067ffffffffffffffff82111561573e5761573d615b81565b5b602082029050602081019050919050565b600067ffffffffffffffff82111561576a57615769615b81565b5b601f19601f8301169050602081019050919050565b600067ffffffffffffffff82111561579a57615799615b81565b5b601f19601f8301169050602081019050919050565b6000819050602082019050919050565b600081519050919050565b600081519050919050565b600081519050919050565b6000602082019050919050565b600082825260208201905092915050565b600082825260208201905092915050565b600082825260208201905092915050565b600081905092915050565b6000615836826159c6565b9150615841836159c6565b9250827fffffffffffffffffffffffffffffffffffffffffffffffffffffffffffffffff0382111561587657615875615af4565b5b828201905092915050565b600061588c826159c6565b9150615897836159c6565b9250826158a7576158a6615b23565b5b828204905092915050565b60006158bd826159c6565b91506158c8836159c6565b9250817fffffffffffffffffffffffffffffffffffffffffffffffffffffffffffffffff048311821515161561590157615900615af4565b5b828202905092915050565b6000615917826159c6565b9150615922836159c6565b92508282101561593557615934615af4565b5b828203905092915050565b600061594b826159a6565b9050919050565b600061595d826159a6565b9050919050565b60008115159050919050565b6000819050919050565b60007fffffffff0000000000000000000000000000000000000000000000000000000082169050919050565b600073ffffffffffffffffffffffffffffffffffffffff82169050919050565b6000819050919050565b60006159db826159e2565b9050919050565b60006159ed826159f4565b9050919050565b60006159ff826159a6565b9050919050565b82818337600083830152505050565b60005b83811015615a33578082015181840152602081019050615a18565b83811115615a42576000848401525b50505050565b60006002820490506001821680615a6057607f821691505b60208210811415615a7457615a73615b52565b5b50919050565b6000615a85826159c6565b91507fffffffffffffffffffffffffffffffffffffffffffffffffffffffffffffffff821415615ab857615ab7615af4565b5b600182019050919050565b6000615ace826159c6565b9150615ad9836159c6565b925082615ae957615ae8615b23565b5b828206905092915050565b7f4e487b7100000000000000000000000000000000000000000000000000000000600052601160045260246000fd5b7f4e487b7100000000000000000000000000000000000000000000000000000000600052601260045260246000fd5b7f4e487b7100000000000000000000000000000000000000000000000000000000600052602260045260246000fd5b7f4e487b7100000000000000000000000000000000000000000000000000000000600052604160045260246000fd5b6000601f19601f8301169050919050565b615bca81615940565b8114615bd557600080fd5b50565b615be181615964565b8114615bec57600080fd5b50565b615bf881615970565b8114615c0357600080fd5b50565b615c0f8161597a565b8114615c1a57600080fd5b50565b615c26816159c6565b8114615c3157600080fd5b5056fea26469706673582212208ce9efa3b73832a5d2cb1919a34f459632c058341f73e1d84167b28957c2790264736f6c63430008000033",
  "linkReferences": {},
  "deployedLinkReferences": {}
}