{
    "_format": "hh-sol-artifact-1",
    "contractName": "DigitalArt",
    "sourceName": "contracts/DigitalArt.sol",
    "abi": [
        {
            "inputs": [],
            "stateMutability": "nonpayable",
            "type": "constructor"
        },
        {
            "anonymous": false,
            "inputs": [
                {
                    "indexed": true,
                    "internalType": "address",
                    "name": "owner",
                    "type": "address"
                },
                {
                    "indexed": true,
                    "internalType": "address",
                    "name": "approved",
                    "type": "address"
                },
                {
                    "indexed": true,
                    "internalType": "uint256",
                    "name": "tokenId",
                    "type": "uint256"
                }
            ],
            "name": "Approval",
            "type": "event"
        },
        {
            "anonymous": false,
            "inputs": [
                {
                    "indexed": true,
                    "internalType": "address",
                    "name": "owner",
                    "type": "address"
                },
                {
                    "indexed": true,
                    "internalType": "address",
                    "name": "operator",
                    "type": "address"
                },
                {
                    "indexed": false,
                    "internalType": "bool",
                    "name": "approved",
                    "type": "bool"
                }
            ],
            "name": "ApprovalForAll",
            "type": "event"
        },
        {
            "anonymous": false,
            "inputs": [
                {
                    "indexed": false,
                    "internalType": "uint256",
                    "name": "tokenId",
                    "type": "uint256"
                },
                {
                    "indexed": false,
                    "internalType": "uint256",
                    "name": "oldDailyLicensePrice",
                    "type": "uint256"
                },
                {
                    "indexed": false,
                    "internalType": "uint256",
                    "name": "newDailyLicensePrice",
                    "type": "uint256"
                }
            ],
            "name": "DailyLicensePriceUpdated",
            "type": "event"
        },
        {
            "anonymous": false,
            "inputs": [
                {
                    "indexed": false,
                    "internalType": "uint256",
                    "name": "tokenId",
                    "type": "uint256"
                },
                {
                    "indexed": false,
                    "internalType": "uint256",
                    "name": "durationInDays",
                    "type": "uint256"
                },
                {
                    "indexed": false,
                    "internalType": "uint256",
                    "name": "price",
                    "type": "uint256"
                },
                {
                    "indexed": false,
                    "internalType": "uint256",
                    "name": "endDateInMillis",
                    "type": "uint256"
                },
                {
                    "indexed": false,
                    "internalType": "address payable",
                    "name": "sender",
                    "type": "address"
                }
            ],
            "name": "LicensePurchased",
            "type": "event"
        },
        {
            "anonymous": false,
            "inputs": [
                {
                    "indexed": false,
                    "internalType": "address payable",
                    "name": "to",
                    "type": "address"
                },
                {
                    "indexed": false,
                    "internalType": "uint256",
                    "name": "amount",
                    "type": "uint256"
                }
            ],
            "name": "PaymentExecuted",
            "type": "event"
        },
        {
            "anonymous": false,
            "inputs": [
                {
                    "indexed": false,
                    "internalType": "uint256",
                    "name": "tokenId",
                    "type": "uint256"
                },
                {
                    "indexed": false,
                    "internalType": "uint256",
                    "name": "oldSellingPrice",
                    "type": "uint256"
                },
                {
                    "indexed": false,
                    "internalType": "uint256",
                    "name": "newSellingPrice",
                    "type": "uint256"
                }
            ],
            "name": "SellingPriceUpdated",
            "type": "event"
        },
        {
            "anonymous": false,
            "inputs": [
                {
                    "indexed": false,
                    "internalType": "uint256",
                    "name": "tokenId",
                    "type": "uint256"
                },
                {
                    "indexed": false,
                    "internalType": "address",
                    "name": "oldOwner",
                    "type": "address"
                },
                {
                    "indexed": false,
                    "internalType": "address",
                    "name": "newOwner",
                    "type": "address"
                },
                {
                    "indexed": false,
                    "internalType": "uint256",
                    "name": "price",
                    "type": "uint256"
                }
            ],
            "name": "TokenPurchased",
            "type": "event"
        },
        {
            "anonymous": false,
            "inputs": [
                {
                    "indexed": true,
                    "internalType": "address",
                    "name": "from",
                    "type": "address"
                },
                {
                    "indexed": true,
                    "internalType": "address",
                    "name": "to",
                    "type": "address"
                },
                {
                    "indexed": true,
                    "internalType": "uint256",
                    "name": "tokenId",
                    "type": "uint256"
                }
            ],
            "name": "Transfer",
            "type": "event"
        },
        {
            "inputs": [
                {
                    "internalType": "address",
                    "name": "to",
                    "type": "address"
                },
                {
                    "internalType": "uint256",
                    "name": "tokenId",
                    "type": "uint256"
                }
            ],
            "name": "approve",
            "outputs": [],
            "stateMutability": "nonpayable",
            "type": "function"
        },
        {
            "inputs": [],
            "name": "artistLicenseRoyalty",
            "outputs": [
                {
                    "internalType": "uint256",
                    "name": "",
                    "type": "uint256"
                }
            ],
            "stateMutability": "view",
            "type": "function"
        },
        {
            "inputs": [],
            "name": "artistResellingRoyalty",
            "outputs": [
                {
                    "internalType": "uint256",
                    "name": "",
                    "type": "uint256"
                }
            ],
            "stateMutability": "view",
            "type": "function"
        },
        {
            "inputs": [
                {
                    "internalType": "address",
                    "name": "owner",
                    "type": "address"
                }
            ],
            "name": "balanceOf",
            "outputs": [
                {
                    "internalType": "uint256",
                    "name": "",
                    "type": "uint256"
                }
            ],
            "stateMutability": "view",
            "type": "function"
        },
        {
            "inputs": [
                {
                    "internalType": "address",
                    "name": "_licensee",
                    "type": "address"
                }
            ],
            "name": "getAllLicensesForLicensee",
            "outputs": [
                {
                    "components": [
                        {
                            "internalType": "uint256",
                            "name": "tokenId",
                            "type": "uint256"
                        },
                        {
                            "internalType": "uint256",
                            "name": "start",
                            "type": "uint256"
                        },
                        {
                            "internalType": "uint256",
                            "name": "end",
                            "type": "uint256"
                        },
                        {
                            "internalType": "uint256",
                            "name": "price",
                            "type": "uint256"
                        },
                        {
                            "internalType": "address",
                            "name": "recipient",
                            "type": "address"
                        }
                    ],
                    "internalType": "struct DigitalArt.License[]",
                    "name": "_licenses",
                    "type": "tuple[]"
                }
            ],
            "stateMutability": "view",
            "type": "function"
        },
        {
            "inputs": [
                {
                    "internalType": "uint256",
                    "name": "_tokenId",
                    "type": "uint256"
                }
            ],
            "name": "getAllLicensesForToken",
            "outputs": [
                {
                    "components": [
                        {
                            "internalType": "uint256",
                            "name": "tokenId",
                            "type": "uint256"
                        },
                        {
                            "internalType": "uint256",
                            "name": "start",
                            "type": "uint256"
                        },
                        {
                            "internalType": "uint256",
                            "name": "end",
                            "type": "uint256"
                        },
                        {
                            "internalType": "uint256",
                            "name": "price",
                            "type": "uint256"
                        },
                        {
                            "internalType": "address",
                            "name": "recipient",
                            "type": "address"
                        }
                    ],
                    "internalType": "struct DigitalArt.License[]",
                    "name": "_licenses",
                    "type": "tuple[]"
                }
            ],
            "stateMutability": "view",
            "type": "function"
        },
        {
            "inputs": [
                {
                    "internalType": "uint256",
                    "name": "tokenId",
                    "type": "uint256"
                }
            ],
            "name": "getApproved",
            "outputs": [
                {
                    "internalType": "address",
                    "name": "",
                    "type": "address"
                }
            ],
            "stateMutability": "view",
            "type": "function"
        },
        {
            "inputs": [
                {
                    "internalType": "address",
                    "name": "_owner",
                    "type": "address"
                },
                {
                    "internalType": "uint256",
                    "name": "_idx",
                    "type": "uint256"
                }
            ],
            "name": "getIdFromIndexForOwner",
            "outputs": [
                {
                    "internalType": "uint256",
                    "name": "_id",
                    "type": "uint256"
                }
            ],
            "stateMutability": "view",
            "type": "function"
        },
        {
            "inputs": [
                {
                    "internalType": "address",
                    "name": "_owner",
                    "type": "address"
                }
            ],
            "name": "getNumberOfTokensForOwner",
            "outputs": [
                {
                    "internalType": "uint256",
                    "name": "_total",
                    "type": "uint256"
                }
            ],
            "stateMutability": "view",
            "type": "function"
        },
        {
            "inputs": [
                {
                    "internalType": "uint256",
                    "name": "",
                    "type": "uint256"
                },
                {
                    "internalType": "uint256",
                    "name": "",
                    "type": "uint256"
                }
            ],
            "name": "idToLicenses",
            "outputs": [
                {
                    "internalType": "uint256",
                    "name": "tokenId",
                    "type": "uint256"
                },
                {
                    "internalType": "uint256",
                    "name": "start",
                    "type": "uint256"
                },
                {
                    "internalType": "uint256",
                    "name": "end",
                    "type": "uint256"
                },
                {
                    "internalType": "uint256",
                    "name": "price",
                    "type": "uint256"
                },
                {
                    "internalType": "address",
                    "name": "recipient",
                    "type": "address"
                }
            ],
            "stateMutability": "view",
            "type": "function"
        },
        {
            "inputs": [
                {
                    "internalType": "uint256",
                    "name": "",
                    "type": "uint256"
                }
            ],
            "name": "idToNFT",
            "outputs": [
                {
                    "internalType": "uint256",
                    "name": "id",
                    "type": "uint256"
                },
                {
                    "internalType": "uint256",
                    "name": "sellingPrice",
                    "type": "uint256"
                },
                {
                    "internalType": "uint256",
                    "name": "dailyLicensePrice",
                    "type": "uint256"
                },
                {
                    "internalType": "string",
                    "name": "uri",
                    "type": "string"
                },
                {
                    "internalType": "address payable",
                    "name": "artist",
                    "type": "address"
                },
                {
                    "internalType": "address payable",
                    "name": "owner",
                    "type": "address"
                }
            ],
            "stateMutability": "view",
            "type": "function"
        },
        {
            "inputs": [
                {
                    "internalType": "address",
                    "name": "owner",
                    "type": "address"
                },
                {
                    "internalType": "address",
                    "name": "operator",
                    "type": "address"
                }
            ],
            "name": "isApprovedForAll",
            "outputs": [
                {
                    "internalType": "bool",
                    "name": "",
                    "type": "bool"
                }
            ],
            "stateMutability": "view",
            "type": "function"
        },
        {
            "inputs": [],
            "name": "name",
            "outputs": [
                {
                    "internalType": "string",
                    "name": "",
                    "type": "string"
                }
            ],
            "stateMutability": "view",
            "type": "function"
        },
        {
            "inputs": [
                {
                    "internalType": "uint256",
                    "name": "tokenId",
                    "type": "uint256"
                }
            ],
            "name": "ownerOf",
            "outputs": [
                {
                    "internalType": "address",
                    "name": "",
                    "type": "address"
                }
            ],
            "stateMutability": "view",
            "type": "function"
        },
        {
            "inputs": [
                {
                    "internalType": "uint256",
                    "name": "_tokenId",
                    "type": "uint256"
                },
                {
                    "internalType": "uint256",
                    "name": "_days",
                    "type": "uint256"
                }
            ],
            "name": "purchaseLicense",
            "outputs": [],
            "stateMutability": "payable",
            "type": "function"
        },
        {
            "inputs": [
                {
                    "internalType": "uint256",
                    "name": "_tokenId",
                    "type": "uint256"
                }
            ],
            "name": "purchaseNFT",
            "outputs": [],
            "stateMutability": "payable",
            "type": "function"
        },
        {
            "inputs": [
                {
                    "internalType": "string",
                    "name": "_tokenURI",
                    "type": "string"
                },
                {
                    "internalType": "uint256",
                    "name": "_sellingPrice",
                    "type": "uint256"
                },
                {
                    "internalType": "uint256",
                    "name": "_dailyLicensePrice",
                    "type": "uint256"
                }
            ],
            "name": "safeMint",
            "outputs": [
                {
                    "internalType": "uint256",
                    "name": "_newTokenId",
                    "type": "uint256"
                }
            ],
            "stateMutability": "nonpayable",
            "type": "function"
        },
        {
            "inputs": [
                {
                    "internalType": "address",
                    "name": "from",
                    "type": "address"
                },
                {
                    "internalType": "address",
                    "name": "to",
                    "type": "address"
                },
                {
                    "internalType": "uint256",
                    "name": "tokenId",
                    "type": "uint256"
                }
            ],
            "name": "safeTransferFrom",
            "outputs": [],
            "stateMutability": "nonpayable",
            "type": "function"
        },
        {
            "inputs": [
                {
                    "internalType": "address",
                    "name": "from",
                    "type": "address"
                },
                {
                    "internalType": "address",
                    "name": "to",
                    "type": "address"
                },
                {
                    "internalType": "uint256",
                    "name": "tokenId",
                    "type": "uint256"
                },
                {
                    "internalType": "bytes",
                    "name": "_data",
                    "type": "bytes"
                }
            ],
            "name": "safeTransferFrom",
            "outputs": [],
            "stateMutability": "nonpayable",
            "type": "function"
        },
        {
            "inputs": [
                {
                    "internalType": "address",
                    "name": "operator",
                    "type": "address"
                },
                {
                    "internalType": "bool",
                    "name": "approved",
                    "type": "bool"
                }
            ],
            "name": "setApprovalForAll",
            "outputs": [],
            "stateMutability": "nonpayable",
            "type": "function"
        },
        {
            "inputs": [
                {
                    "internalType": "bytes4",
                    "name": "interfaceId",
                    "type": "bytes4"
                }
            ],
            "name": "supportsInterface",
            "outputs": [
                {
                    "internalType": "bool",
                    "name": "",
                    "type": "bool"
                }
            ],
            "stateMutability": "view",
            "type": "function"
        },
        {
            "inputs": [],
            "name": "symbol",
            "outputs": [
                {
                    "internalType": "string",
                    "name": "",
                    "type": "string"
                }
            ],
            "stateMutability": "view",
            "type": "function"
        },
        {
            "inputs": [
                {
                    "internalType": "uint256",
                    "name": "tokenId",
                    "type": "uint256"
                }
            ],
            "name": "tokenURI",
            "outputs": [
                {
                    "internalType": "string",
                    "name": "",
                    "type": "string"
                }
            ],
            "stateMutability": "view",
            "type": "function"
        },
        {
            "inputs": [
                {
                    "internalType": "address",
                    "name": "from",
                    "type": "address"
                },
                {
                    "internalType": "address",
                    "name": "to",
                    "type": "address"
                },
                {
                    "internalType": "uint256",
                    "name": "tokenId",
                    "type": "uint256"
                }
            ],
            "name": "transferFrom",
            "outputs": [],
            "stateMutability": "nonpayable",
            "type": "function"
        },
        {
            "inputs": [
                {
                    "internalType": "uint256",
                    "name": "_tokenId",
                    "type": "uint256"
                },
                {
                    "internalType": "uint256",
                    "name": "_newDailyLicensePrice",
                    "type": "uint256"
                }
            ],
            "name": "updateDailyLicensePrice",
            "outputs": [],
            "stateMutability": "nonpayable",
            "type": "function"
        },
        {
            "inputs": [
                {
                    "internalType": "uint256",
                    "name": "_tokenId",
                    "type": "uint256"
                },
                {
                    "internalType": "uint256",
                    "name": "_newSellingPrice",
                    "type": "uint256"
                }
            ],
            "name": "updateSellingPrice",
            "outputs": [],
            "stateMutability": "nonpayable",
            "type": "function"
        }
    ],
    "bytecode": "0x60806040526007805560036008553480156200001a57600080fd5b506040518060400160405280600a81526020017f4469676974616c417274000000000000000000000000000000000000000000008152506040518060400160405280600381526020017f444154000000000000000000000000000000000000000000000000000000000081525081600090805190602001906200009f929190620000c1565b508060019080519060200190620000b8929190620000c1565b505050620001d6565b828054620000cf9062000171565b90600052602060002090601f016020900481019282620000f357600085556200013f565b82601f106200010e57805160ff19168380011785556200013f565b828001600101855582156200013f579182015b828111156200013e57825182559160200191906001019062000121565b5b5090506200014e919062000152565b5090565b5b808211156200016d57600081600090555060010162000153565b5090565b600060028204905060018216806200018a57607f821691505b60208210811415620001a157620001a0620001a7565b5b50919050565b7f4e487b7100000000000000000000000000000000000000000000000000000000600052602260045260246000fd5b615c9180620001e66000396000f3fe6080604052600436106101815760003560e01c806361d317d3116100d157806395d89b411161008a578063c87b56dd11610064578063c87b56dd146105db578063cd1f6ed914610618578063d650f94c14610643578063e985e9c51461066e57610181565b806395d89b411461055e578063a22cb46514610589578063b88d4fde146105b257610181565b806361d317d3146104045780636352211e1461042d5780636e1f94e11461046a5780636f694366146104a757806370a08231146104e45780638313a3fd1461052157610181565b806323b872dd1161013e57806333aa49cd1161011857806333aa49cd1461032f57806342842e0e14610371578063571a2b6f1461039a57806360a9bdd7146103c357610181565b806323b872dd1461028c5780632407f683146102b55780632ef6ea7a146102f257610181565b806301ffc9a71461018657806306fdde03146101c3578063081812fc146101ee578063095ea7b31461022b57806310e52a3a14610254578063150bde0314610270575b600080fd5b34801561019257600080fd5b506101ad60048036038101906101a891906142b8565b6106ab565b6040516101ba9190615138565b60405180910390f35b3480156101cf57600080fd5b506101d861078d565b6040516101e59190615153565b60405180910390f35b3480156101fa57600080fd5b5061021560048036038101906102109190614371565b61081f565b604051610222919061504f565b60405180910390f35b34801561023757600080fd5b50610252600480360381019061024d919061423b565b6108a4565b005b61026e6004803603810190610269919061439a565b6109bc565b005b61028a60048036038101906102859190614371565b610fb8565b005b34801561029857600080fd5b506102b360048036038101906102ae9190614135565b6115fc565b005b3480156102c157600080fd5b506102dc60048036038101906102d7919061423b565b61165c565b6040516102e99190615595565b60405180910390f35b3480156102fe57600080fd5b5061031960048036038101906103149190614371565b6116b7565b6040516103269190615116565b60405180910390f35b34801561033b57600080fd5b5061035660048036038101906103519190614371565b6117a7565b6040516103689695949392919061562c565b60405180910390f35b34801561037d57600080fd5b5061039860048036038101906103939190614135565b6118ab565b005b3480156103a657600080fd5b506103c160048036038101906103bc919061439a565b6118cb565b005b3480156103cf57600080fd5b506103ea60048036038101906103e5919061439a565b611d10565b6040516103fb959493929190615694565b60405180910390f35b34801561041057600080fd5b5061042b6004803603810190610426919061439a565b611d83565b005b34801561043957600080fd5b50610454600480360381019061044f9190614371565b61216a565b604051610461919061504f565b60405180910390f35b34801561047657600080fd5b50610491600480360381019061048c919061430a565b61221c565b60405161049e9190615595565b60405180910390f35b3480156104b357600080fd5b506104ce60048036038101906104c991906140d0565b6124f8565b6040516104db9190615116565b60405180910390f35b3480156104f057600080fd5b5061050b600480360381019061050691906140d0565b612614565b6040516105189190615595565b60405180910390f35b34801561052d57600080fd5b50610548600480360381019061054391906140d0565b6126cc565b6040516105559190615595565b60405180910390f35b34801561056a57600080fd5b5061057361271c565b6040516105809190615153565b60405180910390f35b34801561059557600080fd5b506105b060048036038101906105ab91906141ff565b6127ae565b005b3480156105be57600080fd5b506105d960048036038101906105d49190614184565b61292f565b005b3480156105e757600080fd5b5061060260048036038101906105fd9190614371565b612991565b60405161060f9190615153565b60405180910390f35b34801561062457600080fd5b5061062d612ae3565b60405161063a9190615595565b60405180910390f35b34801561064f57600080fd5b50610658612ae9565b6040516106659190615595565b60405180910390f35b34801561067a57600080fd5b50610695600480360381019061069091906140f9565b612aef565b6040516106a29190615138565b60405180910390f35b60007f80ac58cd000000000000000000000000000000000000000000000000000000007bffffffffffffffffffffffffffffffffffffffffffffffffffffffff1916827bffffffffffffffffffffffffffffffffffffffffffffffffffffffff1916148061077657507f5b5e139f000000000000000000000000000000000000000000000000000000007bffffffffffffffffffffffffffffffffffffffffffffffffffffffff1916827bffffffffffffffffffffffffffffffffffffffffffffffffffffffff1916145b80610786575061078582612b83565b5b9050919050565b60606000805461079c90615a86565b80601f01602080910402602001604051908101604052809291908181526020018280546107c890615a86565b80156108155780601f106107ea57610100808354040283529160200191610815565b820191906000526020600020905b8154815290600101906020018083116107f857829003601f168201915b5050505050905090565b600061082a82612bed565b610869576040517f08c379a000000000000000000000000000000000000000000000000000000000815260040161086090615455565b60405180910390fd5b6004600083815260200190815260200160002060009054906101000a900473ffffffffffffffffffffffffffffffffffffffff169050919050565b60006108af8261216a565b90508073ffffffffffffffffffffffffffffffffffffffff168373ffffffffffffffffffffffffffffffffffffffff161415610920576040517f08c379a0000000000000000000000000000000000000000000000000000000008152600401610917906154b5565b60405180910390fd5b8073ffffffffffffffffffffffffffffffffffffffff1661093f612c59565b73ffffffffffffffffffffffffffffffffffffffff16148061096e575061096d81610968612c59565b612aef565b5b6109ad576040517f08c379a00000000000000000000000000000000000000000000000000000000081526004016109a490615355565b60405180910390fd5b6109b78383612c61565b505050565b6000600a60008481526020019081526020016000206040518060c0016040529081600082015481526020016001820154815260200160028201548152602001600382018054610a0a90615a86565b80601f0160208091040260200160405190810160405280929190818152602001828054610a3690615a86565b8015610a835780601f10610a5857610100808354040283529160200191610a83565b820191906000526020600020905b815481529060010190602001808311610a6657829003601f168201915b505050505081526020016004820160009054906101000a900473ffffffffffffffffffffffffffffffffffffffff1673ffffffffffffffffffffffffffffffffffffffff1673ffffffffffffffffffffffffffffffffffffffff1681526020016005820160009054906101000a900473ffffffffffffffffffffffffffffffffffffffff1673ffffffffffffffffffffffffffffffffffffffff1673ffffffffffffffffffffffffffffffffffffffff16815250509050610b44600b612d1a565b8311158015610b565750828160000151145b610b95576040517f08c379a0000000000000000000000000000000000000000000000000000000008152600401610b8c906153d5565b60405180910390fd5b3373ffffffffffffffffffffffffffffffffffffffff168160a0015173ffffffffffffffffffffffffffffffffffffffff161415610c08576040517f08c379a0000000000000000000000000000000000000000000000000000000008152600401610bff90615275565b60405180910390fd5b6000816040015111610c4f576040517f08c379a0000000000000000000000000000000000000000000000000000000008152600401610c4690615575565b60405180910390fd5b60008211610c92576040517f08c379a0000000000000000000000000000000000000000000000000000000008152600401610c89906151b5565b60405180910390fd5b34828260400151610ca391906158fa565b1115610ce4576040517f08c379a0000000000000000000000000000000000000000000000000000000008152600401610cdb90615315565b60405180910390fd5b610cee3384612d28565b60006008546064848460400151610d0591906158fa565b610d0f91906158c9565b610d1991906158fa565b9050600081848460400151610d2e91906158fa565b610d389190615954565b9050610d48836080015183612f5b565b610d568360a0015182612f5b565b60006305265c0085610d6891906158fa565b905060006040518060a001604052808881526020016103e842610d8b91906158fa565b8152602001836103e842610d9f91906158fa565b610da99190615873565b81526020013481526020013373ffffffffffffffffffffffffffffffffffffffff168152509050600e60003373ffffffffffffffffffffffffffffffffffffffff1673ffffffffffffffffffffffffffffffffffffffff1681526020019081526020016000208190806001815401808255809150506001900390600052602060002090600502016000909190919091506000820151816000015560208201518160010155604082015181600201556060820151816003015560808201518160040160006101000a81548173ffffffffffffffffffffffffffffffffffffffff021916908373ffffffffffffffffffffffffffffffffffffffff1602179055505050600960008881526020019081526020016000208190806001815401808255809150506001900390600052602060002090600502016000909190919091506000820151816000015560208201518160010155604082015181600201556060820151816003015560808201518160040160006101000a81548173ffffffffffffffffffffffffffffffffffffffff021916908373ffffffffffffffffffffffffffffffffffffffff16021790555050507fd51a7ee42675ba82674a8dfeb61619a89e8564b64901e156d7998c0ecaa81cb7878734856103e842610f8b91906158fa565b610f959190615873565b33604051610fa79594939291906156e7565b60405180910390a150505050505050565b6000600a60008381526020019081526020016000206040518060c001604052908160008201548152602001600182015481526020016002820154815260200160038201805461100690615a86565b80601f016020809104026020016040519081016040528092919081815260200182805461103290615a86565b801561107f5780601f106110545761010080835404028352916020019161107f565b820191906000526020600020905b81548152906001019060200180831161106257829003601f168201915b505050505081526020016004820160009054906101000a900473ffffffffffffffffffffffffffffffffffffffff1673ffffffffffffffffffffffffffffffffffffffff1673ffffffffffffffffffffffffffffffffffffffff1681526020016005820160009054906101000a900473ffffffffffffffffffffffffffffffffffffffff1673ffffffffffffffffffffffffffffffffffffffff1673ffffffffffffffffffffffffffffffffffffffff16815250509050611140600b612d1a565b82111580156111525750818160000151145b611191576040517f08c379a0000000000000000000000000000000000000000000000000000000008152600401611188906153d5565b60405180910390fd5b3373ffffffffffffffffffffffffffffffffffffffff168160a0015173ffffffffffffffffffffffffffffffffffffffff161415611204576040517f08c379a00000000000000000000000000000000000000000000000000000000081526004016111fb90615275565b60405180910390fd5b600081602001511161124b576040517f08c379a000000000000000000000000000000000000000000000000000000000815260040161124290615555565b60405180910390fd5b3481602001511115611292576040517f08c379a000000000000000000000000000000000000000000000000000000000815260040161128990615315565b60405180910390fd5b6000600754606483602001516112a891906158c9565b6112b291906158fa565b905060008183602001516112c69190615954565b905061131d8360000151600d60003373ffffffffffffffffffffffffffffffffffffffff1673ffffffffffffffffffffffffffffffffffffffff16815260200190815260200160002061300c90919063ffffffff16565b61135c576040517f08c379a000000000000000000000000000000000000000000000000000000000815260040161135390615515565b60405180910390fd5b6113b58360000151600d60008660a0015173ffffffffffffffffffffffffffffffffffffffff1673ffffffffffffffffffffffffffffffffffffffff16815260200190815260200160002061302690919063ffffffff16565b6113f4576040517f08c379a00000000000000000000000000000000000000000000000000000000081526004016113eb906154f5565b60405180910390fd5b7f704cf6cb1221490022185412a0f82fd80ca9ccf7b5f84482727d0f6924265bd8848460a00151333460405161142d94939291906155b0565b60405180910390a13073ffffffffffffffffffffffffffffffffffffffff166342842e0e8460a001513386600001516040518463ffffffff1660e01b815260040161147a9392919061506a565b600060405180830381600087803b15801561149457600080fd5b505af11580156114a8573d6000803e3d6000fd5b505050506114ba836080015183612f5b565b6114c88360a0015182612f5b565b338360a0019073ffffffffffffffffffffffffffffffffffffffff16908173ffffffffffffffffffffffffffffffffffffffff16815250506000836020018181525050600083604001818152505082600a60008681526020019081526020016000206000820151816000015560208201518160010155604082015181600201556060820151816003019080519060200190611564929190613dac565b5060808201518160040160006101000a81548173ffffffffffffffffffffffffffffffffffffffff021916908373ffffffffffffffffffffffffffffffffffffffff16021790555060a08201518160050160006101000a81548173ffffffffffffffffffffffffffffffffffffffff021916908373ffffffffffffffffffffffffffffffffffffffff16021790555090505050505050565b61160d611607612c59565b82613040565b61164c576040517f08c379a000000000000000000000000000000000000000000000000000000000815260040161164390615535565b60405180910390fd5b61165783838361311e565b505050565b60006116af82600d60008673ffffffffffffffffffffffffffffffffffffffff1673ffffffffffffffffffffffffffffffffffffffff16815260200190815260200160002061337a90919063ffffffff16565b905092915050565b606060096000838152602001908152602001600020805480602002602001604051908101604052809291908181526020016000905b8282101561179c57838290600052602060002090600502016040518060a0016040529081600082015481526020016001820154815260200160028201548152602001600382015481526020016004820160009054906101000a900473ffffffffffffffffffffffffffffffffffffffff1673ffffffffffffffffffffffffffffffffffffffff1673ffffffffffffffffffffffffffffffffffffffff1681525050815260200190600101906116ec565b505050509050919050565b600a6020528060005260406000206000915090508060000154908060010154908060020154908060030180546117dc90615a86565b80601f016020809104026020016040519081016040528092919081815260200182805461180890615a86565b80156118555780601f1061182a57610100808354040283529160200191611855565b820191906000526020600020905b81548152906001019060200180831161183857829003601f168201915b5050505050908060040160009054906101000a900473ffffffffffffffffffffffffffffffffffffffff16908060050160009054906101000a900473ffffffffffffffffffffffffffffffffffffffff16905086565b6118c68383836040518060200160405280600081525061292f565b505050565b6000600a60008481526020019081526020016000206040518060c001604052908160008201548152602001600182015481526020016002820154815260200160038201805461191990615a86565b80601f016020809104026020016040519081016040528092919081815260200182805461194590615a86565b80156119925780601f1061196757610100808354040283529160200191611992565b820191906000526020600020905b81548152906001019060200180831161197557829003601f168201915b505050505081526020016004820160009054906101000a900473ffffffffffffffffffffffffffffffffffffffff1673ffffffffffffffffffffffffffffffffffffffff1673ffffffffffffffffffffffffffffffffffffffff1681526020016005820160009054906101000a900473ffffffffffffffffffffffffffffffffffffffff1673ffffffffffffffffffffffffffffffffffffffff1673ffffffffffffffffffffffffffffffffffffffff16815250509050611a53600b612d1a565b8311158015611a655750828160000151145b611aa4576040517f08c379a0000000000000000000000000000000000000000000000000000000008152600401611a9b906153d5565b60405180910390fd5b3373ffffffffffffffffffffffffffffffffffffffff168160a0015173ffffffffffffffffffffffffffffffffffffffff1614611b16576040517f08c379a0000000000000000000000000000000000000000000000000000000008152600401611b0d906152f5565b60405180910390fd5b60008160200151148015611b2a5750600082115b80611b46575060008160200151118015611b45575060008210155b5b611b85576040517f08c379a0000000000000000000000000000000000000000000000000000000008152600401611b7c90615215565b60405180910390fd5b7ffbf96fcc78e52dc724126274324663c8a5bc540e16d8133f3d113477187329e883826020015184604051611bbc939291906155f5565b60405180910390a1600073ffffffffffffffffffffffffffffffffffffffff16611be58461081f565b73ffffffffffffffffffffffffffffffffffffffff161415611c0c57611c0b30846108a4565b5b6000821415611c2157611c206000846108a4565b5b8181602001818152505080600a60008581526020019081526020016000206000820151816000015560208201518160010155604082015181600201556060820151816003019080519060200190611c79929190613dac565b5060808201518160040160006101000a81548173ffffffffffffffffffffffffffffffffffffffff021916908373ffffffffffffffffffffffffffffffffffffffff16021790555060a08201518160050160006101000a81548173ffffffffffffffffffffffffffffffffffffffff021916908373ffffffffffffffffffffffffffffffffffffffff160217905550905050505050565b60096020528160005260406000208181548110611d2c57600080fd5b9060005260206000209060050201600091509150508060000154908060010154908060020154908060030154908060040160009054906101000a900473ffffffffffffffffffffffffffffffffffffffff16905085565b6000600a60008481526020019081526020016000206040518060c0016040529081600082015481526020016001820154815260200160028201548152602001600382018054611dd190615a86565b80601f0160208091040260200160405190810160405280929190818152602001828054611dfd90615a86565b8015611e4a5780601f10611e1f57610100808354040283529160200191611e4a565b820191906000526020600020905b815481529060010190602001808311611e2d57829003601f168201915b505050505081526020016004820160009054906101000a900473ffffffffffffffffffffffffffffffffffffffff1673ffffffffffffffffffffffffffffffffffffffff1673ffffffffffffffffffffffffffffffffffffffff1681526020016005820160009054906101000a900473ffffffffffffffffffffffffffffffffffffffff1673ffffffffffffffffffffffffffffffffffffffff1673ffffffffffffffffffffffffffffffffffffffff16815250509050611f0b600b612d1a565b8311158015611f1d5750828160000151145b611f5c576040517f08c379a0000000000000000000000000000000000000000000000000000000008152600401611f53906153d5565b60405180910390fd5b3373ffffffffffffffffffffffffffffffffffffffff168160a0015173ffffffffffffffffffffffffffffffffffffffff1614611fce576040517f08c379a0000000000000000000000000000000000000000000000000000000008152600401611fc5906152f5565b60405180910390fd5b60008160400151148015611fe25750600082115b80611ffd575060008160400151118015611ffc5750600082145b5b61203c576040517f08c379a000000000000000000000000000000000000000000000000000000000815260040161203390615235565b60405180910390fd5b7fd74f4dda031330fab8da16fb8a42ef6b85772d9fe0a056e14a221a7fa18a2fe983826040015184604051612073939291906155f5565b60405180910390a18181604001818152505080600a600085815260200190815260200160002060008201518160000155602082015181600101556040820151816002015560608201518160030190805190602001906120d3929190613dac565b5060808201518160040160006101000a81548173ffffffffffffffffffffffffffffffffffffffff021916908373ffffffffffffffffffffffffffffffffffffffff16021790555060a08201518160050160006101000a81548173ffffffffffffffffffffffffffffffffffffffff021916908373ffffffffffffffffffffffffffffffffffffffff160217905550905050505050565b6000806002600084815260200190815260200160002060009054906101000a900473ffffffffffffffffffffffffffffffffffffffff169050600073ffffffffffffffffffffffffffffffffffffffff168173ffffffffffffffffffffffffffffffffffffffff161415612213576040517f08c379a000000000000000000000000000000000000000000000000000000000815260040161220a90615395565b60405180910390fd5b80915050919050565b600080600c8560405161222f9190615014565b9081526020016040518091039020541461227e576040517f08c379a0000000000000000000000000000000000000000000000000000000008152600401612275906154d5565b60405180910390fd5b600083116122c1576040517f08c379a00000000000000000000000000000000000000000000000000000000081526004016122b890615195565b60405180910390fd5b60008211612304576040517f08c379a00000000000000000000000000000000000000000000000000000000081526004016122fb90615335565b60405180910390fd5b61230e600b613394565b600061231a600b612d1a565b905061232633826133aa565b61233081866133c8565b60006040518060c001604052808381526020018681526020018581526020018781526020013373ffffffffffffffffffffffffffffffffffffffff1681526020013373ffffffffffffffffffffffffffffffffffffffff16815250905080600a600084815260200190815260200160002060008201518160000155602082015181600101556040820151816002015560608201518160030190805190602001906123db929190613dac565b5060808201518160040160006101000a81548173ffffffffffffffffffffffffffffffffffffffff021916908373ffffffffffffffffffffffffffffffffffffffff16021790555060a08201518160050160006101000a81548173ffffffffffffffffffffffffffffffffffffffff021916908373ffffffffffffffffffffffffffffffffffffffff1602179055509050506124be82600d60003373ffffffffffffffffffffffffffffffffffffffff1673ffffffffffffffffffffffffffffffffffffffff16815260200190815260200160002061300c90919063ffffffff16565b5081600c876040516124d09190615014565b9081526020016040518091039020819055506124ec30836108a4565b81925050509392505050565b6060600e60008373ffffffffffffffffffffffffffffffffffffffff1673ffffffffffffffffffffffffffffffffffffffff168152602001908152602001600020805480602002602001604051908101604052809291908181526020016000905b8282101561260957838290600052602060002090600502016040518060a0016040529081600082015481526020016001820154815260200160028201548152602001600382015481526020016004820160009054906101000a900473ffffffffffffffffffffffffffffffffffffffff1673ffffffffffffffffffffffffffffffffffffffff1673ffffffffffffffffffffffffffffffffffffffff168152505081526020019060010190612559565b505050509050919050565b60008073ffffffffffffffffffffffffffffffffffffffff168273ffffffffffffffffffffffffffffffffffffffff161415612685576040517f08c379a000000000000000000000000000000000000000000000000000000000815260040161267c90615375565b60405180910390fd5b600360008373ffffffffffffffffffffffffffffffffffffffff1673ffffffffffffffffffffffffffffffffffffffff168152602001908152602001600020549050919050565b6000612715600d60008473ffffffffffffffffffffffffffffffffffffffff1673ffffffffffffffffffffffffffffffffffffffff16815260200190815260200160002061343c565b9050919050565b60606001805461272b90615a86565b80601f016020809104026020016040519081016040528092919081815260200182805461275790615a86565b80156127a45780601f10612779576101008083540402835291602001916127a4565b820191906000526020600020905b81548152906001019060200180831161278757829003601f168201915b5050505050905090565b6127b6612c59565b73ffffffffffffffffffffffffffffffffffffffff168273ffffffffffffffffffffffffffffffffffffffff161415612824576040517f08c379a000000000000000000000000000000000000000000000000000000000815260040161281b906152b5565b60405180910390fd5b8060056000612831612c59565b73ffffffffffffffffffffffffffffffffffffffff1673ffffffffffffffffffffffffffffffffffffffff16815260200190815260200160002060008473ffffffffffffffffffffffffffffffffffffffff1673ffffffffffffffffffffffffffffffffffffffff16815260200190815260200160002060006101000a81548160ff0219169083151502179055508173ffffffffffffffffffffffffffffffffffffffff166128de612c59565b73ffffffffffffffffffffffffffffffffffffffff167f17307eab39ab6107e8899845ad3d59bd9653f200f220920489ca2b5937696c31836040516129239190615138565b60405180910390a35050565b61294061293a612c59565b83613040565b61297f576040517f08c379a000000000000000000000000000000000000000000000000000000000815260040161297690615535565b60405180910390fd5b61298b84848484613451565b50505050565b606061299c82612bed565b6129db576040517f08c379a00000000000000000000000000000000000000000000000000000000081526004016129d290615435565b60405180910390fd5b60006006600084815260200190815260200160002080546129fb90615a86565b80601f0160208091040260200160405190810160405280929190818152602001828054612a2790615a86565b8015612a745780601f10612a4957610100808354040283529160200191612a74565b820191906000526020600020905b815481529060010190602001808311612a5757829003601f168201915b505050505090506000612a856134ad565b9050600081511415612a9b578192505050612ade565b600082511115612ad0578082604051602001612ab892919061502b565b60405160208183030381529060405292505050612ade565b612ad9846134c4565b925050505b919050565b60075481565b60085481565b6000600560008473ffffffffffffffffffffffffffffffffffffffff1673ffffffffffffffffffffffffffffffffffffffff16815260200190815260200160002060008373ffffffffffffffffffffffffffffffffffffffff1673ffffffffffffffffffffffffffffffffffffffff16815260200190815260200160002060009054906101000a900460ff16905092915050565b60007f01ffc9a7000000000000000000000000000000000000000000000000000000007bffffffffffffffffffffffffffffffffffffffffffffffffffffffff1916827bffffffffffffffffffffffffffffffffffffffffffffffffffffffff1916149050919050565b60008073ffffffffffffffffffffffffffffffffffffffff166002600084815260200190815260200160002060009054906101000a900473ffffffffffffffffffffffffffffffffffffffff1673ffffffffffffffffffffffffffffffffffffffff1614159050919050565b600033905090565b816004600083815260200190815260200160002060006101000a81548173ffffffffffffffffffffffffffffffffffffffff021916908373ffffffffffffffffffffffffffffffffffffffff160217905550808273ffffffffffffffffffffffffffffffffffffffff16612cd48361216a565b73ffffffffffffffffffffffffffffffffffffffff167f8c5be1e5ebec7d5bd14f71427d1e84f3dd0314c0f7b2291e5b200ac8c7c3b92560405160405180910390a45050565b600081600001549050919050565b60003073ffffffffffffffffffffffffffffffffffffffff16632ef6ea7a836040518263ffffffff1660e01b8152600401612d639190615595565b60006040518083038186803b158015612d7b57600080fd5b505afa158015612d8f573d6000803e3d6000fd5b505050506040513d6000823e3d601f19601f82011682018060405250810190612db89190614277565b905060005b8151811015612f55578373ffffffffffffffffffffffffffffffffffffffff16828281518110612e16577f4e487b7100000000000000000000000000000000000000000000000000000000600052603260045260246000fd5b60200260200101516080015173ffffffffffffffffffffffffffffffffffffffff16148015612e88575042828281518110612e7a577f4e487b7100000000000000000000000000000000000000000000000000000000600052603260045260246000fd5b602002602001015160400151105b80612f0357508373ffffffffffffffffffffffffffffffffffffffff16828281518110612ede577f4e487b7100000000000000000000000000000000000000000000000000000000600052603260045260246000fd5b60200260200101516080015173ffffffffffffffffffffffffffffffffffffffff1614155b612f42576040517f08c379a0000000000000000000000000000000000000000000000000000000008152600401612f39906153f5565b60405180910390fd5b8080612f4d90615ab8565b915050612dbd565b50505050565b7fc7b16f0c91d6e099a9fb831632a80052954f1f27b4c358262703709988e698568282604051612f8c9291906150a1565b60405180910390a18173ffffffffffffffffffffffffffffffffffffffff166108fc829081150290604051600060405180830381858888f19350505050613008576040517f08c379a0000000000000000000000000000000000000000000000000000000008152600401612fff90615255565b60405180910390fd5b5050565b600061301e836000018360001b61356b565b905092915050565b6000613038836000018360001b6135db565b905092915050565b600061304b82612bed565b61308a576040517f08c379a0000000000000000000000000000000000000000000000000000000008152600401613081906152d5565b60405180910390fd5b60006130958361216a565b90508073ffffffffffffffffffffffffffffffffffffffff168473ffffffffffffffffffffffffffffffffffffffff16148061310457508373ffffffffffffffffffffffffffffffffffffffff166130ec8461081f565b73ffffffffffffffffffffffffffffffffffffffff16145b8061311557506131148185612aef565b5b91505092915050565b8273ffffffffffffffffffffffffffffffffffffffff1661313e8261216a565b73ffffffffffffffffffffffffffffffffffffffff1614613194576040517f08c379a000000000000000000000000000000000000000000000000000000000815260040161318b90615475565b60405180910390fd5b600073ffffffffffffffffffffffffffffffffffffffff168273ffffffffffffffffffffffffffffffffffffffff161415613204576040517f08c379a00000000000000000000000000000000000000000000000000000000081526004016131fb90615295565b60405180910390fd5b61320f838383613759565b61321a600082612c61565b6001600360008573ffffffffffffffffffffffffffffffffffffffff1673ffffffffffffffffffffffffffffffffffffffff168152602001908152602001600020600082825461326a9190615954565b925050819055506001600360008473ffffffffffffffffffffffffffffffffffffffff1673ffffffffffffffffffffffffffffffffffffffff16815260200190815260200160002060008282546132c19190615873565b92505081905550816002600083815260200190815260200160002060006101000a81548173ffffffffffffffffffffffffffffffffffffffff021916908373ffffffffffffffffffffffffffffffffffffffff160217905550808273ffffffffffffffffffffffffffffffffffffffff168473ffffffffffffffffffffffffffffffffffffffff167fddf252ad1be2c89b69c2b068fc378daa952ba7f163c4a11628f55a4df523b3ef60405160405180910390a4505050565b6000613389836000018361375e565b60001c905092915050565b6001816000016000828254019250508190555050565b6133c48282604051806020016040528060008152506137f8565b5050565b6133d182612bed565b613410576040517f08c379a0000000000000000000000000000000000000000000000000000000008152600401613407906153b5565b60405180910390fd5b80600660008481526020019081526020016000209080519060200190613437929190613dac565b505050565b600061344a82600001613853565b9050919050565b61345c84848461311e565b61346884848484613864565b6134a7576040517f08c379a000000000000000000000000000000000000000000000000000000000815260040161349e906151d5565b60405180910390fd5b50505050565b606060405180602001604052806000815250905090565b60606134cf82612bed565b61350e576040517f08c379a000000000000000000000000000000000000000000000000000000000815260040161350590615495565b60405180910390fd5b60006135186134ad565b905060008151116135385760405180602001604052806000815250613563565b80613542846139fb565b60405160200161355392919061502b565b6040516020818303038152906040525b915050919050565b60006135778383613ba8565b6135d05782600001829080600181540180825580915050600190039060005260206000200160009091909190915055826000018054905083600101600084815260200190815260200160002081905550600190506135d5565b600090505b92915050565b6000808360010160008481526020019081526020016000205490506000811461374d57600060018261360d9190615954565b90506000600186600001805490506136259190615954565b90506000866000018281548110613665577f4e487b7100000000000000000000000000000000000000000000000000000000600052603260045260246000fd5b90600052602060002001549050808760000184815481106136af577f4e487b7100000000000000000000000000000000000000000000000000000000600052603260045260246000fd5b9060005260206000200181905550838760010160008381526020019081526020016000208190555086600001805480613711577f4e487b7100000000000000000000000000000000000000000000000000000000600052603160045260246000fd5b60019003818190600052602060002001600090559055866001016000878152602001908152602001600020600090556001945050505050613753565b60009150505b92915050565b505050565b6000818360000180549050116137a9576040517f08c379a00000000000000000000000000000000000000000000000000000000081526004016137a090615175565b60405180910390fd5b8260000182815481106137e5577f4e487b7100000000000000000000000000000000000000000000000000000000600052603260045260246000fd5b9060005260206000200154905092915050565b6138028383613bcb565b61380f6000848484613864565b61384e576040517f08c379a0000000000000000000000000000000000000000000000000000000008152600401613845906151d5565b60405180910390fd5b505050565b600081600001805490509050919050565b60006138858473ffffffffffffffffffffffffffffffffffffffff16613d99565b156139ee578373ffffffffffffffffffffffffffffffffffffffff1663150b7a026138ae612c59565b8786866040518563ffffffff1660e01b81526004016138d094939291906150ca565b602060405180830381600087803b1580156138ea57600080fd5b505af192505050801561391b57506040513d601f19601f8201168201806040525081019061391891906142e1565b60015b61399e573d806000811461394b576040519150601f19603f3d011682016040523d82523d6000602084013e613950565b606091505b50600081511415613996576040517f08c379a000000000000000000000000000000000000000000000000000000000815260040161398d906151d5565b60405180910390fd5b805181602001fd5b63150b7a0260e01b7bffffffffffffffffffffffffffffffffffffffffffffffffffffffff1916817bffffffffffffffffffffffffffffffffffffffffffffffffffffffff1916149150506139f3565b600190505b949350505050565b60606000821415613a43576040518060400160405280600181526020017f30000000000000000000000000000000000000000000000000000000000000008152509050613ba3565b600082905060005b60008214613a75578080613a5e90615ab8565b915050600a82613a6e91906158c9565b9150613a4b565b60008167ffffffffffffffff811115613ab7577f4e487b7100000000000000000000000000000000000000000000000000000000600052604160045260246000fd5b6040519080825280601f01601f191660200182016040528015613ae95781602001600182028036833780820191505090505b5090505b60008514613b9c57600182613b029190615954565b9150600a85613b119190615b01565b6030613b1d9190615873565b60f81b818381518110613b59577f4e487b7100000000000000000000000000000000000000000000000000000000600052603260045260246000fd5b60200101907effffffffffffffffffffffffffffffffffffffffffffffffffffffffffffff1916908160001a905350600a85613b9591906158c9565b9450613aed565b8093505050505b919050565b600080836001016000848152602001908152602001600020541415905092915050565b600073ffffffffffffffffffffffffffffffffffffffff168273ffffffffffffffffffffffffffffffffffffffff161415613c3b576040517f08c379a0000000000000000000000000000000000000000000000000000000008152600401613c3290615415565b60405180910390fd5b613c4481612bed565b15613c84576040517f08c379a0000000000000000000000000000000000000000000000000000000008152600401613c7b906151f5565b60405180910390fd5b613c9060008383613759565b6001600360008473ffffffffffffffffffffffffffffffffffffffff1673ffffffffffffffffffffffffffffffffffffffff1681526020019081526020016000206000828254613ce09190615873565b92505081905550816002600083815260200190815260200160002060006101000a81548173ffffffffffffffffffffffffffffffffffffffff021916908373ffffffffffffffffffffffffffffffffffffffff160217905550808273ffffffffffffffffffffffffffffffffffffffff16600073ffffffffffffffffffffffffffffffffffffffff167fddf252ad1be2c89b69c2b068fc378daa952ba7f163c4a11628f55a4df523b3ef60405160405180910390a45050565b600080823b905060008111915050919050565b828054613db890615a86565b90600052602060002090601f016020900481019282613dda5760008555613e21565b82601f10613df357805160ff1916838001178555613e21565b82800160010185558215613e21579182015b82811115613e20578251825591602001919060010190613e05565b5b509050613e2e9190613e32565b5090565b5b80821115613e4b576000816000905550600101613e33565b5090565b6000613e62613e5d8461576b565b61573a565b905080838252602082019050828560a0860282011115613e8157600080fd5b60005b85811015613eb15781613e97888261401e565b845260208401935060a08301925050600181019050613e84565b5050509392505050565b6000613ece613ec984615797565b61573a565b905082815260208101848484011115613ee657600080fd5b613ef1848285615a44565b509392505050565b6000613f0c613f07846157c7565b61573a565b905082815260208101848484011115613f2457600080fd5b613f2f848285615a44565b509392505050565b600081359050613f4681615bff565b92915050565b600081519050613f5b81615bff565b92915050565b600082601f830112613f7257600080fd5b8151613f82848260208601613e4f565b91505092915050565b600081359050613f9a81615c16565b92915050565b600081359050613faf81615c2d565b92915050565b600081519050613fc481615c2d565b92915050565b600082601f830112613fdb57600080fd5b8135613feb848260208601613ebb565b91505092915050565b600082601f83011261400557600080fd5b8135614015848260208601613ef9565b91505092915050565b600060a0828403121561403057600080fd5b61403a60a061573a565b9050600061404a848285016140bb565b600083015250602061405e848285016140bb565b6020830152506040614072848285016140bb565b6040830152506060614086848285016140bb565b606083015250608061409a84828501613f4c565b60808301525092915050565b6000813590506140b581615c44565b92915050565b6000815190506140ca81615c44565b92915050565b6000602082840312156140e257600080fd5b60006140f084828501613f37565b91505092915050565b6000806040838503121561410c57600080fd5b600061411a85828601613f37565b925050602061412b85828601613f37565b9150509250929050565b60008060006060848603121561414a57600080fd5b600061415886828701613f37565b935050602061416986828701613f37565b925050604061417a868287016140a6565b9150509250925092565b6000806000806080858703121561419a57600080fd5b60006141a887828801613f37565b94505060206141b987828801613f37565b93505060406141ca878288016140a6565b925050606085013567ffffffffffffffff8111156141e757600080fd5b6141f387828801613fca565b91505092959194509250565b6000806040838503121561421257600080fd5b600061422085828601613f37565b925050602061423185828601613f8b565b9150509250929050565b6000806040838503121561424e57600080fd5b600061425c85828601613f37565b925050602061426d858286016140a6565b9150509250929050565b60006020828403121561428957600080fd5b600082015167ffffffffffffffff8111156142a357600080fd5b6142af84828501613f61565b91505092915050565b6000602082840312156142ca57600080fd5b60006142d884828501613fa0565b91505092915050565b6000602082840312156142f357600080fd5b600061430184828501613fb5565b91505092915050565b60008060006060848603121561431f57600080fd5b600084013567ffffffffffffffff81111561433957600080fd5b61434586828701613ff4565b9350506020614356868287016140a6565b9250506040614367868287016140a6565b9150509250925092565b60006020828403121561438357600080fd5b6000614391848285016140a6565b91505092915050565b600080604083850312156143ad57600080fd5b60006143bb858286016140a6565b92505060206143cc858286016140a6565b9150509250929050565b60006143e28383614f8e565b60a08301905092915050565b6143f781615a0e565b82525050565b6144068161599a565b82525050565b61441581615988565b82525050565b61442481615988565b82525050565b600061443582615807565b61443f8185615835565b935061444a836157f7565b8060005b8381101561447b57815161446288826143d6565b975061446d83615828565b92505060018101905061444e565b5085935050505092915050565b614491816159ac565b82525050565b60006144a282615812565b6144ac8185615846565b93506144bc818560208601615a53565b6144c581615bee565b840191505092915050565b60006144db8261581d565b6144e58185615857565b93506144f5818560208601615a53565b6144fe81615bee565b840191505092915050565b60006145148261581d565b61451e8185615868565b935061452e818560208601615a53565b80840191505092915050565b6000614547602283615857565b91507f456e756d657261626c655365743a20696e646578206f7574206f6620626f756e60008301527f64730000000000000000000000000000000000000000000000000000000000006020830152604082019050919050565b60006145ad601583615857565b91507f494e56414c49442d53454c4c494e472d505249434500000000000000000000006000830152602082019050919050565b60006145ed601083615857565b91507f494e56414c49442d4455524154494f4e000000000000000000000000000000006000830152602082019050919050565b600061462d603283615857565b91507f4552433732313a207472616e7366657220746f206e6f6e20455243373231526560008301527f63656976657220696d706c656d656e74657200000000000000000000000000006020830152604082019050919050565b6000614693601c83615857565b91507f4552433732313a20746f6b656e20616c7265616479206d696e746564000000006000830152602082019050919050565b60006146d3601683615857565b91507f494e56414c49442d53454c4c494e472d555044415445000000000000000000006000830152602082019050919050565b6000614713601983615857565b91507f494e56414c49442d4c4943454e5341424c452d555044415445000000000000006000830152602082019050919050565b6000614753600d83615857565b91507f5041594d454e542d4552524f52000000000000000000000000000000000000006000830152602082019050919050565b6000614793600d83615857565b91507f414c52454144592d4f574e4552000000000000000000000000000000000000006000830152602082019050919050565b60006147d3602483615857565b91507f4552433732313a207472616e7366657220746f20746865207a65726f2061646460008301527f72657373000000000000000000000000000000000000000000000000000000006020830152604082019050919050565b6000614839601983615857565b91507f4552433732313a20617070726f766520746f2063616c6c6572000000000000006000830152602082019050919050565b6000614879602c83615857565b91507f4552433732313a206f70657261746f7220717565727920666f72206e6f6e657860008301527f697374656e7420746f6b656e00000000000000000000000000000000000000006020830152604082019050919050565b60006148df600983615857565b91507f4e4f542d4f574e455200000000000000000000000000000000000000000000006000830152602082019050919050565b600061491f600f83615857565b91507f494e56414c49442d5041594d454e5400000000000000000000000000000000006000830152602082019050919050565b600061495f601583615857565b91507f494e56414c49442d4c4943454e53452d505249434500000000000000000000006000830152602082019050919050565b600061499f603883615857565b91507f4552433732313a20617070726f76652063616c6c6572206973206e6f74206f7760008301527f6e6572206e6f7220617070726f76656420666f7220616c6c00000000000000006020830152604082019050919050565b6000614a05602a83615857565b91507f4552433732313a2062616c616e636520717565727920666f7220746865207a6560008301527f726f2061646472657373000000000000000000000000000000000000000000006020830152604082019050919050565b6000614a6b602983615857565b91507f4552433732313a206f776e657220717565727920666f72206e6f6e657869737460008301527f656e7420746f6b656e00000000000000000000000000000000000000000000006020830152604082019050919050565b6000614ad1602e83615857565b91507f45524337323155524953746f726167653a2055524920736574206f66206e6f6e60008301527f6578697374656e7420746f6b656e0000000000000000000000000000000000006020830152604082019050919050565b6000614b37601083615857565b91507f494e56414c49442d544f4b454e2d4944000000000000000000000000000000006000830152602082019050919050565b6000614b77601083615857565b91507f414c52454144592d4c4943454e534544000000000000000000000000000000006000830152602082019050919050565b6000614bb7602083615857565b91507f4552433732313a206d696e7420746f20746865207a65726f20616464726573736000830152602082019050919050565b6000614bf7603183615857565b91507f45524337323155524953746f726167653a2055524920717565727920666f722060008301527f6e6f6e6578697374656e7420746f6b656e0000000000000000000000000000006020830152604082019050919050565b6000614c5d602c83615857565b91507f4552433732313a20617070726f76656420717565727920666f72206e6f6e657860008301527f697374656e7420746f6b656e00000000000000000000000000000000000000006020830152604082019050919050565b6000614cc3602983615857565b91507f4552433732313a207472616e73666572206f6620746f6b656e2074686174206960008301527f73206e6f74206f776e00000000000000000000000000000000000000000000006020830152604082019050919050565b6000614d29602f83615857565b91507f4552433732314d657461646174613a2055524920717565727920666f72206e6f60008301527f6e6578697374656e7420746f6b656e00000000000000000000000000000000006020830152604082019050919050565b6000614d8f602183615857565b91507f4552433732313a20617070726f76616c20746f2063757272656e74206f776e6560008301527f72000000000000000000000000000000000000000000000000000000000000006020830152604082019050919050565b6000614df5600e83615857565b91507f414c52454144592d4d494e5445440000000000000000000000000000000000006000830152602082019050919050565b6000614e35600e83615857565b91507f4e4f542d52454d4f5645442d49440000000000000000000000000000000000006000830152602082019050919050565b6000614e75600c83615857565b91507f4455504c49434154452d494400000000000000000000000000000000000000006000830152602082019050919050565b6000614eb5603183615857565b91507f4552433732313a207472616e736665722063616c6c6572206973206e6f74206f60008301527f776e6572206e6f7220617070726f7665640000000000000000000000000000006020830152604082019050919050565b6000614f1b600c83615857565b91507f4e4f542d464f522d53414c4500000000000000000000000000000000000000006000830152602082019050919050565b6000614f5b600e83615857565b91507f4e4f542d4c4943454e5341424c450000000000000000000000000000000000006000830152602082019050919050565b60a082016000820151614fa46000850182614ff6565b506020820151614fb76020850182614ff6565b506040820151614fca6040850182614ff6565b506060820151614fdd6060850182614ff6565b506080820151614ff0608085018261440c565b50505050565b614fff81615a04565b82525050565b61500e81615a04565b82525050565b60006150208284614509565b915081905092915050565b60006150378285614509565b91506150438284614509565b91508190509392505050565b6000602082019050615064600083018461441b565b92915050565b600060608201905061507f60008301866143ee565b61508c602083018561441b565b6150996040830184615005565b949350505050565b60006040820190506150b660008301856143fd565b6150c36020830184615005565b9392505050565b60006080820190506150df600083018761441b565b6150ec602083018661441b565b6150f96040830185615005565b818103606083015261510b8184614497565b905095945050505050565b60006020820190508181036000830152615130818461442a565b905092915050565b600060208201905061514d6000830184614488565b92915050565b6000602082019050818103600083015261516d81846144d0565b905092915050565b6000602082019050818103600083015261518e8161453a565b9050919050565b600060208201905081810360008301526151ae816145a0565b9050919050565b600060208201905081810360008301526151ce816145e0565b9050919050565b600060208201905081810360008301526151ee81614620565b9050919050565b6000602082019050818103600083015261520e81614686565b9050919050565b6000602082019050818103600083015261522e816146c6565b9050919050565b6000602082019050818103600083015261524e81614706565b9050919050565b6000602082019050818103600083015261526e81614746565b9050919050565b6000602082019050818103600083015261528e81614786565b9050919050565b600060208201905081810360008301526152ae816147c6565b9050919050565b600060208201905081810360008301526152ce8161482c565b9050919050565b600060208201905081810360008301526152ee8161486c565b9050919050565b6000602082019050818103600083015261530e816148d2565b9050919050565b6000602082019050818103600083015261532e81614912565b9050919050565b6000602082019050818103600083015261534e81614952565b9050919050565b6000602082019050818103600083015261536e81614992565b9050919050565b6000602082019050818103600083015261538e816149f8565b9050919050565b600060208201905081810360008301526153ae81614a5e565b9050919050565b600060208201905081810360008301526153ce81614ac4565b9050919050565b600060208201905081810360008301526153ee81614b2a565b9050919050565b6000602082019050818103600083015261540e81614b6a565b9050919050565b6000602082019050818103600083015261542e81614baa565b9050919050565b6000602082019050818103600083015261544e81614bea565b9050919050565b6000602082019050818103600083015261546e81614c50565b9050919050565b6000602082019050818103600083015261548e81614cb6565b9050919050565b600060208201905081810360008301526154ae81614d1c565b9050919050565b600060208201905081810360008301526154ce81614d82565b9050919050565b600060208201905081810360008301526154ee81614de8565b9050919050565b6000602082019050818103600083015261550e81614e28565b9050919050565b6000602082019050818103600083015261552e81614e68565b9050919050565b6000602082019050818103600083015261554e81614ea8565b9050919050565b6000602082019050818103600083015261556e81614f0e565b9050919050565b6000602082019050818103600083015261558e81614f4e565b9050919050565b60006020820190506155aa6000830184615005565b92915050565b60006080820190506155c56000830187615005565b6155d260208301866143ee565b6155df604083018561441b565b6155ec6060830184615005565b95945050505050565b600060608201905061560a6000830186615005565b6156176020830185615005565b6156246040830184615005565b949350505050565b600060c0820190506156416000830189615005565b61564e6020830188615005565b61565b6040830187615005565b818103606083015261566d81866144d0565b905061567c60808301856143fd565b61568960a08301846143fd565b979650505050505050565b600060a0820190506156a96000830188615005565b6156b66020830187615005565b6156c36040830186615005565b6156d06060830185615005565b6156dd608083018461441b565b9695505050505050565b600060a0820190506156fc6000830188615005565b6157096020830187615005565b6157166040830186615005565b6157236060830185615005565b61573060808301846143fd565b9695505050505050565b6000604051905081810181811067ffffffffffffffff8211171561576157615760615bbf565b5b8060405250919050565b600067ffffffffffffffff82111561578657615785615bbf565b5b602082029050602081019050919050565b600067ffffffffffffffff8211156157b2576157b1615bbf565b5b601f19601f8301169050602081019050919050565b600067ffffffffffffffff8211156157e2576157e1615bbf565b5b601f19601f8301169050602081019050919050565b6000819050602082019050919050565b600081519050919050565b600081519050919050565b600081519050919050565b6000602082019050919050565b600082825260208201905092915050565b600082825260208201905092915050565b600082825260208201905092915050565b600081905092915050565b600061587e82615a04565b915061588983615a04565b9250827fffffffffffffffffffffffffffffffffffffffffffffffffffffffffffffffff038211156158be576158bd615b32565b5b828201905092915050565b60006158d482615a04565b91506158df83615a04565b9250826158ef576158ee615b61565b5b828204905092915050565b600061590582615a04565b915061591083615a04565b9250817fffffffffffffffffffffffffffffffffffffffffffffffffffffffffffffffff048311821515161561594957615948615b32565b5b828202905092915050565b600061595f82615a04565b915061596a83615a04565b92508282101561597d5761597c615b32565b5b828203905092915050565b6000615993826159e4565b9050919050565b60006159a5826159e4565b9050919050565b60008115159050919050565b60007fffffffff0000000000000000000000000000000000000000000000000000000082169050919050565b600073ffffffffffffffffffffffffffffffffffffffff82169050919050565b6000819050919050565b6000615a1982615a20565b9050919050565b6000615a2b82615a32565b9050919050565b6000615a3d826159e4565b9050919050565b82818337600083830152505050565b60005b83811015615a71578082015181840152602081019050615a56565b83811115615a80576000848401525b50505050565b60006002820490506001821680615a9e57607f821691505b60208210811415615ab257615ab1615b90565b5b50919050565b6000615ac382615a04565b91507fffffffffffffffffffffffffffffffffffffffffffffffffffffffffffffffff821415615af657615af5615b32565b5b600182019050919050565b6000615b0c82615a04565b9150615b1783615a04565b925082615b2757615b26615b61565b5b828206905092915050565b7f4e487b7100000000000000000000000000000000000000000000000000000000600052601160045260246000fd5b7f4e487b7100000000000000000000000000000000000000000000000000000000600052601260045260246000fd5b7f4e487b7100000000000000000000000000000000000000000000000000000000600052602260045260246000fd5b7f4e487b7100000000000000000000000000000000000000000000000000000000600052604160045260246000fd5b6000601f19601f8301169050919050565b615c0881615988565b8114615c1357600080fd5b50565b615c1f816159ac565b8114615c2a57600080fd5b50565b615c36816159b8565b8114615c4157600080fd5b50565b615c4d81615a04565b8114615c5857600080fd5b5056fea2646970667358221220ddcf0ff58fe9e9f9135214040b44e1bdc6f2cf702d84493193cb36e5b0ce1aa164736f6c63430008000033",
    "linkReferences": {},
    "deployedLinkReferences": {}
}