{
  "_format": "hh-sol-artifact-1",
  "contractName": "DigitalArt",
  "sourceName": "contracts/DigitalArt.sol",
  "abi": [
    {
      "inputs": [],
      "stateMutability": "nonpayable",
      "type": "constructor"
    },
    {
      "anonymous": false,
      "inputs": [
        {
          "indexed": true,
          "internalType": "address",
          "name": "owner",
          "type": "address"
        },
        {
          "indexed": true,
          "internalType": "address",
          "name": "approved",
          "type": "address"
        },
        {
          "indexed": true,
          "internalType": "uint256",
          "name": "tokenId",
          "type": "uint256"
        }
      ],
      "name": "Approval",
      "type": "event"
    },
    {
      "anonymous": false,
      "inputs": [
        {
          "indexed": true,
          "internalType": "address",
          "name": "owner",
          "type": "address"
        },
        {
          "indexed": true,
          "internalType": "address",
          "name": "operator",
          "type": "address"
        },
        {
          "indexed": false,
          "internalType": "bool",
          "name": "approved",
          "type": "bool"
        }
      ],
      "name": "ApprovalForAll",
      "type": "event"
    },
    {
      "anonymous": false,
      "inputs": [
        {
          "indexed": false,
          "internalType": "uint256",
          "name": "tokenId",
          "type": "uint256"
        },
        {
          "indexed": false,
          "internalType": "uint256",
          "name": "oldDailyLicensePrice",
          "type": "uint256"
        },
        {
          "indexed": false,
          "internalType": "uint256",
          "name": "newDailyLicensePrice",
          "type": "uint256"
        }
      ],
      "name": "DailyLicensePriceUpdated",
      "type": "event"
    },
    {
      "anonymous": false,
      "inputs": [
        {
          "indexed": false,
          "internalType": "uint256",
          "name": "tokenId",
          "type": "uint256"
        },
        {
          "indexed": false,
          "internalType": "uint256",
          "name": "durationInDays",
          "type": "uint256"
        },
        {
          "indexed": false,
          "internalType": "uint256",
          "name": "price",
          "type": "uint256"
        },
        {
          "indexed": false,
          "internalType": "uint256",
          "name": "endDateInMillis",
          "type": "uint256"
        },
        {
          "indexed": false,
          "internalType": "address payable",
          "name": "sender",
          "type": "address"
        },
        {
          "indexed": false,
          "internalType": "uint256",
          "name": "timestamp",
          "type": "uint256"
        }
      ],
      "name": "LicensePurchased",
      "type": "event"
    },
    {
      "anonymous": false,
      "inputs": [
        {
          "indexed": false,
          "internalType": "address payable",
          "name": "to",
          "type": "address"
        },
        {
          "indexed": false,
          "internalType": "uint256",
          "name": "amount",
          "type": "uint256"
        }
      ],
      "name": "PaymentExecuted",
      "type": "event"
    },
    {
      "anonymous": false,
      "inputs": [
        {
          "indexed": false,
          "internalType": "uint256",
          "name": "tokenId",
          "type": "uint256"
        },
        {
          "indexed": false,
          "internalType": "uint256",
          "name": "oldSellingPrice",
          "type": "uint256"
        },
        {
          "indexed": false,
          "internalType": "uint256",
          "name": "newSellingPrice",
          "type": "uint256"
        }
      ],
      "name": "SellingPriceUpdated",
      "type": "event"
    },
    {
      "anonymous": false,
      "inputs": [
        {
          "indexed": false,
          "internalType": "uint256",
          "name": "tokenId",
          "type": "uint256"
        },
        {
          "indexed": false,
          "internalType": "uint256",
          "name": "sellingPrice",
          "type": "uint256"
        },
        {
          "indexed": false,
          "internalType": "uint256",
          "name": "dailyLicensePrice",
          "type": "uint256"
        },
        {
          "indexed": false,
          "internalType": "string",
          "name": "tokenURI",
          "type": "string"
        },
        {
          "indexed": false,
          "internalType": "address",
          "name": "owner",
          "type": "address"
        }
      ],
      "name": "TokenMinted",
      "type": "event"
    },
    {
      "anonymous": false,
      "inputs": [
        {
          "indexed": false,
          "internalType": "uint256",
          "name": "tokenId",
          "type": "uint256"
        },
        {
          "indexed": false,
          "internalType": "address",
          "name": "oldOwner",
          "type": "address"
        },
        {
          "indexed": false,
          "internalType": "address",
          "name": "newOwner",
          "type": "address"
        },
        {
          "indexed": false,
          "internalType": "uint256",
          "name": "price",
          "type": "uint256"
        },
        {
          "indexed": false,
          "internalType": "uint256",
          "name": "timestamp",
          "type": "uint256"
        }
      ],
      "name": "TokenPurchased",
      "type": "event"
    },
    {
      "anonymous": false,
      "inputs": [
        {
          "indexed": true,
          "internalType": "address",
          "name": "from",
          "type": "address"
        },
        {
          "indexed": true,
          "internalType": "address",
          "name": "to",
          "type": "address"
        },
        {
          "indexed": true,
          "internalType": "uint256",
          "name": "tokenId",
          "type": "uint256"
        }
      ],
      "name": "Transfer",
      "type": "event"
    },
    {
      "inputs": [
        {
          "internalType": "address",
          "name": "to",
          "type": "address"
        },
        {
          "internalType": "uint256",
          "name": "tokenId",
          "type": "uint256"
        }
      ],
      "name": "approve",
      "outputs": [],
      "stateMutability": "nonpayable",
      "type": "function"
    },
    {
      "inputs": [],
      "name": "artistLicenseRoyalty",
      "outputs": [
        {
          "internalType": "uint256",
          "name": "",
          "type": "uint256"
        }
      ],
      "stateMutability": "view",
      "type": "function"
    },
    {
      "inputs": [],
      "name": "artistResellingRoyalty",
      "outputs": [
        {
          "internalType": "uint256",
          "name": "",
          "type": "uint256"
        }
      ],
      "stateMutability": "view",
      "type": "function"
    },
    {
      "inputs": [
        {
          "internalType": "address",
          "name": "owner",
          "type": "address"
        }
      ],
      "name": "balanceOf",
      "outputs": [
        {
          "internalType": "uint256",
          "name": "",
          "type": "uint256"
        }
      ],
      "stateMutability": "view",
      "type": "function"
    },
    {
      "inputs": [
        {
          "internalType": "address",
          "name": "_licensee",
          "type": "address"
        }
      ],
      "name": "getAllLicensesForLicensee",
      "outputs": [
        {
          "components": [
            {
              "internalType": "uint256",
              "name": "tokenId",
              "type": "uint256"
            },
            {
              "internalType": "uint256",
              "name": "start",
              "type": "uint256"
            },
            {
              "internalType": "uint256",
              "name": "end",
              "type": "uint256"
            },
            {
              "internalType": "uint256",
              "name": "price",
              "type": "uint256"
            },
            {
              "internalType": "address",
              "name": "recipient",
              "type": "address"
            }
          ],
          "internalType": "struct DigitalArt.License[]",
          "name": "_licenses",
          "type": "tuple[]"
        }
      ],
      "stateMutability": "view",
      "type": "function"
    },
    {
      "inputs": [
        {
          "internalType": "uint256",
          "name": "_tokenId",
          "type": "uint256"
        }
      ],
      "name": "getAllLicensesForToken",
      "outputs": [
        {
          "components": [
            {
              "internalType": "uint256",
              "name": "tokenId",
              "type": "uint256"
            },
            {
              "internalType": "uint256",
              "name": "start",
              "type": "uint256"
            },
            {
              "internalType": "uint256",
              "name": "end",
              "type": "uint256"
            },
            {
              "internalType": "uint256",
              "name": "price",
              "type": "uint256"
            },
            {
              "internalType": "address",
              "name": "recipient",
              "type": "address"
            }
          ],
          "internalType": "struct DigitalArt.License[]",
          "name": "_licenses",
          "type": "tuple[]"
        }
      ],
      "stateMutability": "view",
      "type": "function"
    },
    {
      "inputs": [
        {
          "internalType": "uint256",
          "name": "tokenId",
          "type": "uint256"
        }
      ],
      "name": "getApproved",
      "outputs": [
        {
          "internalType": "address",
          "name": "",
          "type": "address"
        }
      ],
      "stateMutability": "view",
      "type": "function"
    },
    {
      "inputs": [
        {
          "internalType": "address",
          "name": "_owner",
          "type": "address"
        },
        {
          "internalType": "uint256",
          "name": "_idx",
          "type": "uint256"
        }
      ],
      "name": "getIdFromIndexForOwner",
      "outputs": [
        {
          "internalType": "uint256",
          "name": "_id",
          "type": "uint256"
        }
      ],
      "stateMutability": "view",
      "type": "function"
    },
    {
      "inputs": [
        {
          "internalType": "address",
          "name": "_owner",
          "type": "address"
        }
      ],
      "name": "getNumberOfTokensForOwner",
      "outputs": [
        {
          "internalType": "uint256",
          "name": "_total",
          "type": "uint256"
        }
      ],
      "stateMutability": "view",
      "type": "function"
    },
    {
      "inputs": [
        {
          "internalType": "uint256",
          "name": "",
          "type": "uint256"
        },
        {
          "internalType": "uint256",
          "name": "",
          "type": "uint256"
        }
      ],
      "name": "idToLicenses",
      "outputs": [
        {
          "internalType": "uint256",
          "name": "tokenId",
          "type": "uint256"
        },
        {
          "internalType": "uint256",
          "name": "start",
          "type": "uint256"
        },
        {
          "internalType": "uint256",
          "name": "end",
          "type": "uint256"
        },
        {
          "internalType": "uint256",
          "name": "price",
          "type": "uint256"
        },
        {
          "internalType": "address",
          "name": "recipient",
          "type": "address"
        }
      ],
      "stateMutability": "view",
      "type": "function"
    },
    {
      "inputs": [
        {
          "internalType": "uint256",
          "name": "",
          "type": "uint256"
        }
      ],
      "name": "idToNFT",
      "outputs": [
        {
          "internalType": "uint256",
          "name": "id",
          "type": "uint256"
        },
        {
          "internalType": "uint256",
          "name": "sellingPrice",
          "type": "uint256"
        },
        {
          "internalType": "uint256",
          "name": "dailyLicensePrice",
          "type": "uint256"
        },
        {
          "internalType": "string",
          "name": "uri",
          "type": "string"
        },
        {
          "internalType": "address payable",
          "name": "artist",
          "type": "address"
        },
        {
          "internalType": "address payable",
          "name": "owner",
          "type": "address"
        }
      ],
      "stateMutability": "view",
      "type": "function"
    },
    {
      "inputs": [
        {
          "internalType": "address",
          "name": "owner",
          "type": "address"
        },
        {
          "internalType": "address",
          "name": "operator",
          "type": "address"
        }
      ],
      "name": "isApprovedForAll",
      "outputs": [
        {
          "internalType": "bool",
          "name": "",
          "type": "bool"
        }
      ],
      "stateMutability": "view",
      "type": "function"
    },
    {
      "inputs": [],
      "name": "name",
      "outputs": [
        {
          "internalType": "string",
          "name": "",
          "type": "string"
        }
      ],
      "stateMutability": "view",
      "type": "function"
    },
    {
      "inputs": [
        {
          "internalType": "uint256",
          "name": "tokenId",
          "type": "uint256"
        }
      ],
      "name": "ownerOf",
      "outputs": [
        {
          "internalType": "address",
          "name": "",
          "type": "address"
        }
      ],
      "stateMutability": "view",
      "type": "function"
    },
    {
      "inputs": [
        {
          "internalType": "uint256",
          "name": "_tokenId",
          "type": "uint256"
        },
        {
          "internalType": "uint256",
          "name": "_days",
          "type": "uint256"
        },
        {
          "internalType": "uint256",
          "name": "_timestamp",
          "type": "uint256"
        }
      ],
      "name": "purchaseLicense",
      "outputs": [],
      "stateMutability": "payable",
      "type": "function"
    },
    {
      "inputs": [
        {
          "internalType": "uint256",
          "name": "_tokenId",
          "type": "uint256"
        },
        {
          "internalType": "uint256",
          "name": "_timestamp",
          "type": "uint256"
        }
      ],
      "name": "purchaseNFT",
      "outputs": [],
      "stateMutability": "payable",
      "type": "function"
    },
    {
      "inputs": [
        {
          "internalType": "string",
          "name": "_tokenURI",
          "type": "string"
        },
        {
          "internalType": "uint256",
          "name": "_sellingPrice",
          "type": "uint256"
        },
        {
          "internalType": "uint256",
          "name": "_dailyLicensePrice",
          "type": "uint256"
        }
      ],
      "name": "safeMint",
      "outputs": [
        {
          "internalType": "uint256",
          "name": "_newTokenId",
          "type": "uint256"
        }
      ],
      "stateMutability": "nonpayable",
      "type": "function"
    },
    {
      "inputs": [
        {
          "internalType": "address",
          "name": "from",
          "type": "address"
        },
        {
          "internalType": "address",
          "name": "to",
          "type": "address"
        },
        {
          "internalType": "uint256",
          "name": "tokenId",
          "type": "uint256"
        }
      ],
      "name": "safeTransferFrom",
      "outputs": [],
      "stateMutability": "nonpayable",
      "type": "function"
    },
    {
      "inputs": [
        {
          "internalType": "address",
          "name": "from",
          "type": "address"
        },
        {
          "internalType": "address",
          "name": "to",
          "type": "address"
        },
        {
          "internalType": "uint256",
          "name": "tokenId",
          "type": "uint256"
        },
        {
          "internalType": "bytes",
          "name": "_data",
          "type": "bytes"
        }
      ],
      "name": "safeTransferFrom",
      "outputs": [],
      "stateMutability": "nonpayable",
      "type": "function"
    },
    {
      "inputs": [
        {
          "internalType": "address",
          "name": "operator",
          "type": "address"
        },
        {
          "internalType": "bool",
          "name": "approved",
          "type": "bool"
        }
      ],
      "name": "setApprovalForAll",
      "outputs": [],
      "stateMutability": "nonpayable",
      "type": "function"
    },
    {
      "inputs": [
        {
          "internalType": "bytes4",
          "name": "interfaceId",
          "type": "bytes4"
        }
      ],
      "name": "supportsInterface",
      "outputs": [
        {
          "internalType": "bool",
          "name": "",
          "type": "bool"
        }
      ],
      "stateMutability": "view",
      "type": "function"
    },
    {
      "inputs": [],
      "name": "symbol",
      "outputs": [
        {
          "internalType": "string",
          "name": "",
          "type": "string"
        }
      ],
      "stateMutability": "view",
      "type": "function"
    },
    {
      "inputs": [
        {
          "internalType": "uint256",
          "name": "tokenId",
          "type": "uint256"
        }
      ],
      "name": "tokenURI",
      "outputs": [
        {
          "internalType": "string",
          "name": "",
          "type": "string"
        }
      ],
      "stateMutability": "view",
      "type": "function"
    },
    {
      "inputs": [
        {
          "internalType": "address",
          "name": "from",
          "type": "address"
        },
        {
          "internalType": "address",
          "name": "to",
          "type": "address"
        },
        {
          "internalType": "uint256",
          "name": "tokenId",
          "type": "uint256"
        }
      ],
      "name": "transferFrom",
      "outputs": [],
      "stateMutability": "nonpayable",
      "type": "function"
    },
    {
      "inputs": [
        {
          "internalType": "uint256",
          "name": "_tokenId",
          "type": "uint256"
        },
        {
          "internalType": "uint256",
          "name": "_newDailyLicensePrice",
          "type": "uint256"
        }
      ],
      "name": "updateDailyLicensePrice",
      "outputs": [],
      "stateMutability": "nonpayable",
      "type": "function"
    },
    {
      "inputs": [
        {
          "internalType": "uint256",
          "name": "_tokenId",
          "type": "uint256"
        },
        {
          "internalType": "uint256",
          "name": "_newSellingPrice",
          "type": "uint256"
        }
      ],
      "name": "updateSellingPrice",
      "outputs": [],
      "stateMutability": "nonpayable",
      "type": "function"
    }
  ],
  "bytecode": "0x60806040526007805560036008553480156200001a57600080fd5b506040518060400160405280600a81526020017f4469676974616c417274000000000000000000000000000000000000000000008152506040518060400160405280600381526020017f444154000000000000000000000000000000000000000000000000000000000081525081600090805190602001906200009f929190620000c1565b508060019080519060200190620000b8929190620000c1565b505050620001d6565b828054620000cf9062000171565b90600052602060002090601f016020900481019282620000f357600085556200013f565b82601f106200010e57805160ff19168380011785556200013f565b828001600101855582156200013f579182015b828111156200013e57825182559160200191906001019062000121565b5b5090506200014e919062000152565b5090565b5b808211156200016d57600081600090555060010162000153565b5090565b600060028204905060018216806200018a57607f821691505b60208210811415620001a157620001a0620001a7565b5b50919050565b7f4e487b7100000000000000000000000000000000000000000000000000000000600052602260045260246000fd5b615d7780620001e66000396000f3fe6080604052600436106101815760003560e01c80636352211e116100d1578063a22cb4651161008a578063c87b56dd11610064578063c87b56dd146105db578063cd1f6ed914610618578063d650f94c14610643578063e985e9c51461066e57610181565b8063a22cb4651461056d578063ad4451a314610596578063b88d4fde146105b257610181565b80636352211e146104115780636e1f94e11461044e5780636f6943661461048b57806370a08231146104c85780638313a3fd1461050557806395d89b411461054257610181565b80632407f6831161013e57806342842e0e1161011857806342842e0e14610355578063571a2b6f1461037e57806360a9bdd7146103a757806361d317d3146103e857610181565b80632407f683146102995780632ef6ea7a146102d657806333aa49cd1461031357610181565b806301ffc9a71461018657806306fdde03146101c3578063081812fc146101ee578063095ea7b31461022b5780630c7a35681461025457806323b872dd14610270575b600080fd5b34801561019257600080fd5b506101ad60048036038101906101a891906142d9565b6106ab565b6040516101ba91906151a8565b60405180910390f35b3480156101cf57600080fd5b506101d861078d565b6040516101e591906151c3565b60405180910390f35b3480156101fa57600080fd5b5061021560048036038101906102109190614392565b61081f565b60405161022291906150bf565b60405180910390f35b34801561023757600080fd5b50610252600480360381019061024d919061425c565b6108a4565b005b61026e600480360381019061026991906143f7565b6109bc565b005b34801561027c57600080fd5b5061029760048036038101906102929190614156565b610f95565b005b3480156102a557600080fd5b506102c060048036038101906102bb919061425c565b610ff5565b6040516102cd9190615605565b60405180910390f35b3480156102e257600080fd5b506102fd60048036038101906102f89190614392565b611050565b60405161030a9190615186565b60405180910390f35b34801561031f57600080fd5b5061033a60048036038101906103359190614392565b611140565b60405161034c96959493929190615704565b60405180910390f35b34801561036157600080fd5b5061037c60048036038101906103779190614156565b611244565b005b34801561038a57600080fd5b506103a560048036038101906103a091906143bb565b611264565b005b3480156103b357600080fd5b506103ce60048036038101906103c991906143bb565b6116a9565b6040516103df95949392919061576c565b60405180910390f35b3480156103f457600080fd5b5061040f600480360381019061040a91906143bb565b61171c565b005b34801561041d57600080fd5b5061043860048036038101906104339190614392565b611b04565b60405161044591906150bf565b60405180910390f35b34801561045a57600080fd5b506104756004803603810190610470919061432b565b611bb6565b6040516104829190615605565b60405180910390f35b34801561049757600080fd5b506104b260048036038101906104ad91906140f1565b611ed1565b6040516104bf9190615186565b60405180910390f35b3480156104d457600080fd5b506104ef60048036038101906104ea91906140f1565b611fed565b6040516104fc9190615605565b60405180910390f35b34801561051157600080fd5b5061052c600480360381019061052791906140f1565b6120a5565b6040516105399190615605565b60405180910390f35b34801561054e57600080fd5b506105576120f5565b60405161056491906151c3565b60405180910390f35b34801561057957600080fd5b50610594600480360381019061058f9190614220565b612187565b005b6105b060048036038101906105ab91906143bb565b612308565b005b3480156105be57600080fd5b506105d960048036038101906105d491906141a5565b61294f565b005b3480156105e757600080fd5b5061060260048036038101906105fd9190614392565b6129b1565b60405161060f91906151c3565b60405180910390f35b34801561062457600080fd5b5061062d612b03565b60405161063a9190615605565b60405180910390f35b34801561064f57600080fd5b50610658612b09565b6040516106659190615605565b60405180910390f35b34801561067a57600080fd5b506106956004803603810190610690919061411a565b612b0f565b6040516106a291906151a8565b60405180910390f35b60007f80ac58cd000000000000000000000000000000000000000000000000000000007bffffffffffffffffffffffffffffffffffffffffffffffffffffffff1916827bffffffffffffffffffffffffffffffffffffffffffffffffffffffff1916148061077657507f5b5e139f000000000000000000000000000000000000000000000000000000007bffffffffffffffffffffffffffffffffffffffffffffffffffffffff1916827bffffffffffffffffffffffffffffffffffffffffffffffffffffffff1916145b80610786575061078582612ba3565b5b9050919050565b60606000805461079c90615b6c565b80601f01602080910402602001604051908101604052809291908181526020018280546107c890615b6c565b80156108155780601f106107ea57610100808354040283529160200191610815565b820191906000526020600020905b8154815290600101906020018083116107f857829003601f168201915b5050505050905090565b600061082a82612c0d565b610869576040517f08c379a0000000000000000000000000000000000000000000000000000000008152600401610860906154c5565b60405180910390fd5b6004600083815260200190815260200160002060009054906101000a900473ffffffffffffffffffffffffffffffffffffffff169050919050565b60006108af82611b04565b90508073ffffffffffffffffffffffffffffffffffffffff168373ffffffffffffffffffffffffffffffffffffffff161415610920576040517f08c379a000000000000000000000000000000000000000000000000000000000815260040161091790615525565b60405180910390fd5b8073ffffffffffffffffffffffffffffffffffffffff1661093f612c79565b73ffffffffffffffffffffffffffffffffffffffff16148061096e575061096d81610968612c79565b612b0f565b5b6109ad576040517f08c379a00000000000000000000000000000000000000000000000000000000081526004016109a4906153c5565b60405180910390fd5b6109b78383612c81565b505050565b6000600a60008581526020019081526020016000206040518060c0016040529081600082015481526020016001820154815260200160028201548152602001600382018054610a0a90615b6c565b80601f0160208091040260200160405190810160405280929190818152602001828054610a3690615b6c565b8015610a835780601f10610a5857610100808354040283529160200191610a83565b820191906000526020600020905b815481529060010190602001808311610a6657829003601f168201915b505050505081526020016004820160009054906101000a900473ffffffffffffffffffffffffffffffffffffffff1673ffffffffffffffffffffffffffffffffffffffff1673ffffffffffffffffffffffffffffffffffffffff1681526020016005820160009054906101000a900473ffffffffffffffffffffffffffffffffffffffff1673ffffffffffffffffffffffffffffffffffffffff1673ffffffffffffffffffffffffffffffffffffffff16815250509050610b44600b612d3a565b8411158015610b565750838160000151145b610b95576040517f08c379a0000000000000000000000000000000000000000000000000000000008152600401610b8c90615445565b60405180910390fd5b3373ffffffffffffffffffffffffffffffffffffffff168160a0015173ffffffffffffffffffffffffffffffffffffffff161415610c08576040517f08c379a0000000000000000000000000000000000000000000000000000000008152600401610bff906152e5565b60405180910390fd5b6000816040015111610c4f576040517f08c379a0000000000000000000000000000000000000000000000000000000008152600401610c46906155e5565b60405180910390fd5b60008311610c92576040517f08c379a0000000000000000000000000000000000000000000000000000000008152600401610c8990615225565b60405180910390fd5b34838260400151610ca391906159e0565b1115610ce4576040517f08c379a0000000000000000000000000000000000000000000000000000000008152600401610cdb90615385565b60405180910390fd5b610cef338584612d48565b60006008546064858460400151610d0691906159e0565b610d1091906159af565b610d1a91906159e0565b9050600081858460400151610d2f91906159e0565b610d399190615a3a565b9050610d49836080015183612f7c565b610d578360a0015182612f7c565b60006305265c0086610d6991906159e0565b905060006040518060a001604052808981526020018781526020018388610d909190615959565b81526020013481526020013373ffffffffffffffffffffffffffffffffffffffff168152509050600e60003373ffffffffffffffffffffffffffffffffffffffff1673ffffffffffffffffffffffffffffffffffffffff1681526020019081526020016000208190806001815401808255809150506001900390600052602060002090600502016000909190919091506000820151816000015560208201518160010155604082015181600201556060820151816003015560808201518160040160006101000a81548173ffffffffffffffffffffffffffffffffffffffff021916908373ffffffffffffffffffffffffffffffffffffffff1602179055505050600960008981526020019081526020016000208190806001815401808255809150506001900390600052602060002090600502016000909190919091506000820151816000015560208201518160010155604082015181600201556060820151816003015560808201518160040160006101000a81548173ffffffffffffffffffffffffffffffffffffffff021916908373ffffffffffffffffffffffffffffffffffffffff16021790555050507fee6d96e6bb15c556dad9055c074dc60e2b01d0b67378d3922ccbbad8d4d7ea8a888834858a610f6f9190615959565b338b604051610f83969594939291906157bf565b60405180910390a15050505050505050565b610fa6610fa0612c79565b8261302d565b610fe5576040517f08c379a0000000000000000000000000000000000000000000000000000000008152600401610fdc906155a5565b60405180910390fd5b610ff083838361310b565b505050565b600061104882600d60008673ffffffffffffffffffffffffffffffffffffffff1673ffffffffffffffffffffffffffffffffffffffff16815260200190815260200160002061336790919063ffffffff16565b905092915050565b606060096000838152602001908152602001600020805480602002602001604051908101604052809291908181526020016000905b8282101561113557838290600052602060002090600502016040518060a0016040529081600082015481526020016001820154815260200160028201548152602001600382015481526020016004820160009054906101000a900473ffffffffffffffffffffffffffffffffffffffff1673ffffffffffffffffffffffffffffffffffffffff1673ffffffffffffffffffffffffffffffffffffffff168152505081526020019060010190611085565b505050509050919050565b600a60205280600052604060002060009150905080600001549080600101549080600201549080600301805461117590615b6c565b80601f01602080910402602001604051908101604052809291908181526020018280546111a190615b6c565b80156111ee5780601f106111c3576101008083540402835291602001916111ee565b820191906000526020600020905b8154815290600101906020018083116111d157829003601f168201915b5050505050908060040160009054906101000a900473ffffffffffffffffffffffffffffffffffffffff16908060050160009054906101000a900473ffffffffffffffffffffffffffffffffffffffff16905086565b61125f8383836040518060200160405280600081525061294f565b505050565b6000600a60008481526020019081526020016000206040518060c00160405290816000820154815260200160018201548152602001600282015481526020016003820180546112b290615b6c565b80601f01602080910402602001604051908101604052809291908181526020018280546112de90615b6c565b801561132b5780601f106113005761010080835404028352916020019161132b565b820191906000526020600020905b81548152906001019060200180831161130e57829003601f168201915b505050505081526020016004820160009054906101000a900473ffffffffffffffffffffffffffffffffffffffff1673ffffffffffffffffffffffffffffffffffffffff1673ffffffffffffffffffffffffffffffffffffffff1681526020016005820160009054906101000a900473ffffffffffffffffffffffffffffffffffffffff1673ffffffffffffffffffffffffffffffffffffffff1673ffffffffffffffffffffffffffffffffffffffff168152505090506113ec600b612d3a565b83111580156113fe5750828160000151145b61143d576040517f08c379a000000000000000000000000000000000000000000000000000000000815260040161143490615445565b60405180910390fd5b3373ffffffffffffffffffffffffffffffffffffffff168160a0015173ffffffffffffffffffffffffffffffffffffffff16146114af576040517f08c379a00000000000000000000000000000000000000000000000000000000081526004016114a690615365565b60405180910390fd5b600081602001511480156114c35750600082115b806114df5750600081602001511180156114de575060008210155b5b61151e576040517f08c379a000000000000000000000000000000000000000000000000000000000815260040161151590615285565b60405180910390fd5b7ffbf96fcc78e52dc724126274324663c8a5bc540e16d8133f3d113477187329e88382602001518460405161155593929190615673565b60405180910390a1600073ffffffffffffffffffffffffffffffffffffffff1661157e8461081f565b73ffffffffffffffffffffffffffffffffffffffff1614156115a5576115a430846108a4565b5b60008214156115ba576115b96000846108a4565b5b8181602001818152505080600a60008581526020019081526020016000206000820151816000015560208201518160010155604082015181600201556060820151816003019080519060200190611612929190613dcd565b5060808201518160040160006101000a81548173ffffffffffffffffffffffffffffffffffffffff021916908373ffffffffffffffffffffffffffffffffffffffff16021790555060a08201518160050160006101000a81548173ffffffffffffffffffffffffffffffffffffffff021916908373ffffffffffffffffffffffffffffffffffffffff160217905550905050505050565b600960205281600052604060002081815481106116c557600080fd5b9060005260206000209060050201600091509150508060000154908060010154908060020154908060030154908060040160009054906101000a900473ffffffffffffffffffffffffffffffffffffffff16905085565b6000600a60008481526020019081526020016000206040518060c001604052908160008201548152602001600182015481526020016002820154815260200160038201805461176a90615b6c565b80601f016020809104026020016040519081016040528092919081815260200182805461179690615b6c565b80156117e35780601f106117b8576101008083540402835291602001916117e3565b820191906000526020600020905b8154815290600101906020018083116117c657829003601f168201915b505050505081526020016004820160009054906101000a900473ffffffffffffffffffffffffffffffffffffffff1673ffffffffffffffffffffffffffffffffffffffff1673ffffffffffffffffffffffffffffffffffffffff1681526020016005820160009054906101000a900473ffffffffffffffffffffffffffffffffffffffff1673ffffffffffffffffffffffffffffffffffffffff1673ffffffffffffffffffffffffffffffffffffffff168152505090506118a4600b612d3a565b83111580156118b65750828160000151145b6118f5576040517f08c379a00000000000000000000000000000000000000000000000000000000081526004016118ec90615445565b60405180910390fd5b3373ffffffffffffffffffffffffffffffffffffffff168160a0015173ffffffffffffffffffffffffffffffffffffffff1614611967576040517f08c379a000000000000000000000000000000000000000000000000000000000815260040161195e90615365565b60405180910390fd5b6000816040015114801561197b5750600082115b80611997575060008160400151118015611996575060008210155b5b6119d6576040517f08c379a00000000000000000000000000000000000000000000000000000000081526004016119cd906152a5565b60405180910390fd5b7fd74f4dda031330fab8da16fb8a42ef6b85772d9fe0a056e14a221a7fa18a2fe983826040015184604051611a0d93929190615673565b60405180910390a18181604001818152505080600a60008581526020019081526020016000206000820151816000015560208201518160010155604082015181600201556060820151816003019080519060200190611a6d929190613dcd565b5060808201518160040160006101000a81548173ffffffffffffffffffffffffffffffffffffffff021916908373ffffffffffffffffffffffffffffffffffffffff16021790555060a08201518160050160006101000a81548173ffffffffffffffffffffffffffffffffffffffff021916908373ffffffffffffffffffffffffffffffffffffffff160217905550905050505050565b6000806002600084815260200190815260200160002060009054906101000a900473ffffffffffffffffffffffffffffffffffffffff169050600073ffffffffffffffffffffffffffffffffffffffff168173ffffffffffffffffffffffffffffffffffffffff161415611bad576040517f08c379a0000000000000000000000000000000000000000000000000000000008152600401611ba490615405565b60405180910390fd5b80915050919050565b600080600c85604051611bc99190615084565b90815260200160405180910390205414611c18576040517f08c379a0000000000000000000000000000000000000000000000000000000008152600401611c0f90615545565b60405180910390fd5b60008311611c5b576040517f08c379a0000000000000000000000000000000000000000000000000000000008152600401611c5290615205565b60405180910390fd5b60008211611c9e576040517f08c379a0000000000000000000000000000000000000000000000000000000008152600401611c95906153a5565b60405180910390fd5b611ca8600b613381565b6000611cb4600b612d3a565b9050611cc03382613397565b611cca81866133b5565b60006040518060c001604052808381526020018681526020018581526020018781526020013373ffffffffffffffffffffffffffffffffffffffff1681526020013373ffffffffffffffffffffffffffffffffffffffff16815250905080600a60008481526020019081526020016000206000820151816000015560208201518160010155604082015181600201556060820151816003019080519060200190611d75929190613dcd565b5060808201518160040160006101000a81548173ffffffffffffffffffffffffffffffffffffffff021916908373ffffffffffffffffffffffffffffffffffffffff16021790555060a08201518160050160006101000a81548173ffffffffffffffffffffffffffffffffffffffff021916908373ffffffffffffffffffffffffffffffffffffffff160217905550905050611e5882600d60003373ffffffffffffffffffffffffffffffffffffffff1673ffffffffffffffffffffffffffffffffffffffff16815260200190815260200160002061342990919063ffffffff16565b5081600c87604051611e6a9190615084565b908152602001604051809103902081905550611e8630836108a4565b7f584e81111629cd59f3aa4829f0765e569d6e7f1a11237dc8733a72f6b2ee2c588286868933604051611ebd9594939291906156aa565b60405180910390a181925050509392505050565b6060600e60008373ffffffffffffffffffffffffffffffffffffffff1673ffffffffffffffffffffffffffffffffffffffff168152602001908152602001600020805480602002602001604051908101604052809291908181526020016000905b82821015611fe257838290600052602060002090600502016040518060a0016040529081600082015481526020016001820154815260200160028201548152602001600382015481526020016004820160009054906101000a900473ffffffffffffffffffffffffffffffffffffffff1673ffffffffffffffffffffffffffffffffffffffff1673ffffffffffffffffffffffffffffffffffffffff168152505081526020019060010190611f32565b505050509050919050565b60008073ffffffffffffffffffffffffffffffffffffffff168273ffffffffffffffffffffffffffffffffffffffff16141561205e576040517f08c379a0000000000000000000000000000000000000000000000000000000008152600401612055906153e5565b60405180910390fd5b600360008373ffffffffffffffffffffffffffffffffffffffff1673ffffffffffffffffffffffffffffffffffffffff168152602001908152602001600020549050919050565b60006120ee600d60008473ffffffffffffffffffffffffffffffffffffffff1673ffffffffffffffffffffffffffffffffffffffff168152602001908152602001600020613443565b9050919050565b60606001805461210490615b6c565b80601f016020809104026020016040519081016040528092919081815260200182805461213090615b6c565b801561217d5780601f106121525761010080835404028352916020019161217d565b820191906000526020600020905b81548152906001019060200180831161216057829003601f168201915b5050505050905090565b61218f612c79565b73ffffffffffffffffffffffffffffffffffffffff168273ffffffffffffffffffffffffffffffffffffffff1614156121fd576040517f08c379a00000000000000000000000000000000000000000000000000000000081526004016121f490615325565b60405180910390fd5b806005600061220a612c79565b73ffffffffffffffffffffffffffffffffffffffff1673ffffffffffffffffffffffffffffffffffffffff16815260200190815260200160002060008473ffffffffffffffffffffffffffffffffffffffff1673ffffffffffffffffffffffffffffffffffffffff16815260200190815260200160002060006101000a81548160ff0219169083151502179055508173ffffffffffffffffffffffffffffffffffffffff166122b7612c79565b73ffffffffffffffffffffffffffffffffffffffff167f17307eab39ab6107e8899845ad3d59bd9653f200f220920489ca2b5937696c31836040516122fc91906151a8565b60405180910390a35050565b6000600a60008481526020019081526020016000206040518060c001604052908160008201548152602001600182015481526020016002820154815260200160038201805461235690615b6c565b80601f016020809104026020016040519081016040528092919081815260200182805461238290615b6c565b80156123cf5780601f106123a4576101008083540402835291602001916123cf565b820191906000526020600020905b8154815290600101906020018083116123b257829003601f168201915b505050505081526020016004820160009054906101000a900473ffffffffffffffffffffffffffffffffffffffff1673ffffffffffffffffffffffffffffffffffffffff1673ffffffffffffffffffffffffffffffffffffffff1681526020016005820160009054906101000a900473ffffffffffffffffffffffffffffffffffffffff1673ffffffffffffffffffffffffffffffffffffffff1673ffffffffffffffffffffffffffffffffffffffff16815250509050612490600b612d3a565b83111580156124a25750828160000151145b6124e1576040517f08c379a00000000000000000000000000000000000000000000000000000000081526004016124d890615445565b60405180910390fd5b3373ffffffffffffffffffffffffffffffffffffffff168160a0015173ffffffffffffffffffffffffffffffffffffffff161415612554576040517f08c379a000000000000000000000000000000000000000000000000000000000815260040161254b906152e5565b60405180910390fd5b600081602001511161259b576040517f08c379a0000000000000000000000000000000000000000000000000000000008152600401612592906155c5565b60405180910390fd5b34816020015111156125e2576040517f08c379a00000000000000000000000000000000000000000000000000000000081526004016125d990615385565b60405180910390fd5b6000600754606483602001516125f891906159af565b61260291906159e0565b905060008183602001516126169190615a3a565b905061266d8360000151600d60003373ffffffffffffffffffffffffffffffffffffffff1673ffffffffffffffffffffffffffffffffffffffff16815260200190815260200160002061342990919063ffffffff16565b6126ac576040517f08c379a00000000000000000000000000000000000000000000000000000000081526004016126a390615585565b60405180910390fd5b6127058360000151600d60008660a0015173ffffffffffffffffffffffffffffffffffffffff1673ffffffffffffffffffffffffffffffffffffffff16815260200190815260200160002061345890919063ffffffff16565b612744576040517f08c379a000000000000000000000000000000000000000000000000000000000815260040161273b90615565565b60405180910390fd5b7f892605e5aa205718bf5422cbe570beb6c419fe374afe9a7f9c8fc114b99020a8858460a0015133348860405161277f959493929190615620565b60405180910390a13073ffffffffffffffffffffffffffffffffffffffff166342842e0e8460a001513386600001516040518463ffffffff1660e01b81526004016127cc939291906150da565b600060405180830381600087803b1580156127e657600080fd5b505af11580156127fa573d6000803e3d6000fd5b5050505061280c836080015183612f7c565b61281a8360a0015182612f7c565b338360a0019073ffffffffffffffffffffffffffffffffffffffff16908173ffffffffffffffffffffffffffffffffffffffff16815250506000836020018181525050600083604001818152505082600a600087815260200190815260200160002060008201518160000155602082015181600101556040820151816002015560608201518160030190805190602001906128b6929190613dcd565b5060808201518160040160006101000a81548173ffffffffffffffffffffffffffffffffffffffff021916908373ffffffffffffffffffffffffffffffffffffffff16021790555060a08201518160050160006101000a81548173ffffffffffffffffffffffffffffffffffffffff021916908373ffffffffffffffffffffffffffffffffffffffff1602179055509050505050505050565b61296061295a612c79565b8361302d565b61299f576040517f08c379a0000000000000000000000000000000000000000000000000000000008152600401612996906155a5565b60405180910390fd5b6129ab84848484613472565b50505050565b60606129bc82612c0d565b6129fb576040517f08c379a00000000000000000000000000000000000000000000000000000000081526004016129f2906154a5565b60405180910390fd5b6000600660008481526020019081526020016000208054612a1b90615b6c565b80601f0160208091040260200160405190810160405280929190818152602001828054612a4790615b6c565b8015612a945780601f10612a6957610100808354040283529160200191612a94565b820191906000526020600020905b815481529060010190602001808311612a7757829003601f168201915b505050505090506000612aa56134ce565b9050600081511415612abb578192505050612afe565b600082511115612af0578082604051602001612ad892919061509b565b60405160208183030381529060405292505050612afe565b612af9846134e5565b925050505b919050565b60075481565b60085481565b6000600560008473ffffffffffffffffffffffffffffffffffffffff1673ffffffffffffffffffffffffffffffffffffffff16815260200190815260200160002060008373ffffffffffffffffffffffffffffffffffffffff1673ffffffffffffffffffffffffffffffffffffffff16815260200190815260200160002060009054906101000a900460ff16905092915050565b60007f01ffc9a7000000000000000000000000000000000000000000000000000000007bffffffffffffffffffffffffffffffffffffffffffffffffffffffff1916827bffffffffffffffffffffffffffffffffffffffffffffffffffffffff1916149050919050565b60008073ffffffffffffffffffffffffffffffffffffffff166002600084815260200190815260200160002060009054906101000a900473ffffffffffffffffffffffffffffffffffffffff1673ffffffffffffffffffffffffffffffffffffffff1614159050919050565b600033905090565b816004600083815260200190815260200160002060006101000a81548173ffffffffffffffffffffffffffffffffffffffff021916908373ffffffffffffffffffffffffffffffffffffffff160217905550808273ffffffffffffffffffffffffffffffffffffffff16612cf483611b04565b73ffffffffffffffffffffffffffffffffffffffff167f8c5be1e5ebec7d5bd14f71427d1e84f3dd0314c0f7b2291e5b200ac8c7c3b92560405160405180910390a45050565b600081600001549050919050565b60003073ffffffffffffffffffffffffffffffffffffffff16632ef6ea7a846040518263ffffffff1660e01b8152600401612d839190615605565b60006040518083038186803b158015612d9b57600080fd5b505afa158015612daf573d6000803e3d6000fd5b505050506040513d6000823e3d601f19601f82011682018060405250810190612dd89190614298565b905060005b8151811015612f75578473ffffffffffffffffffffffffffffffffffffffff16828281518110612e36577f4e487b7100000000000000000000000000000000000000000000000000000000600052603260045260246000fd5b60200260200101516080015173ffffffffffffffffffffffffffffffffffffffff16148015612ea8575082828281518110612e9a577f4e487b7100000000000000000000000000000000000000000000000000000000600052603260045260246000fd5b602002602001015160400151105b80612f2357508473ffffffffffffffffffffffffffffffffffffffff16828281518110612efe577f4e487b7100000000000000000000000000000000000000000000000000000000600052603260045260246000fd5b60200260200101516080015173ffffffffffffffffffffffffffffffffffffffff1614155b612f62576040517f08c379a0000000000000000000000000000000000000000000000000000000008152600401612f5990615465565b60405180910390fd5b8080612f6d90615b9e565b915050612ddd565b5050505050565b7fc7b16f0c91d6e099a9fb831632a80052954f1f27b4c358262703709988e698568282604051612fad929190615111565b60405180910390a18173ffffffffffffffffffffffffffffffffffffffff166108fc829081150290604051600060405180830381858888f19350505050613029576040517f08c379a0000000000000000000000000000000000000000000000000000000008152600401613020906152c5565b60405180910390fd5b5050565b600061303882612c0d565b613077576040517f08c379a000000000000000000000000000000000000000000000000000000000815260040161306e90615345565b60405180910390fd5b600061308283611b04565b90508073ffffffffffffffffffffffffffffffffffffffff168473ffffffffffffffffffffffffffffffffffffffff1614806130f157508373ffffffffffffffffffffffffffffffffffffffff166130d98461081f565b73ffffffffffffffffffffffffffffffffffffffff16145b8061310257506131018185612b0f565b5b91505092915050565b8273ffffffffffffffffffffffffffffffffffffffff1661312b82611b04565b73ffffffffffffffffffffffffffffffffffffffff1614613181576040517f08c379a0000000000000000000000000000000000000000000000000000000008152600401613178906154e5565b60405180910390fd5b600073ffffffffffffffffffffffffffffffffffffffff168273ffffffffffffffffffffffffffffffffffffffff1614156131f1576040517f08c379a00000000000000000000000000000000000000000000000000000000081526004016131e890615305565b60405180910390fd5b6131fc83838361358c565b613207600082612c81565b6001600360008573ffffffffffffffffffffffffffffffffffffffff1673ffffffffffffffffffffffffffffffffffffffff16815260200190815260200160002060008282546132579190615a3a565b925050819055506001600360008473ffffffffffffffffffffffffffffffffffffffff1673ffffffffffffffffffffffffffffffffffffffff16815260200190815260200160002060008282546132ae9190615959565b92505081905550816002600083815260200190815260200160002060006101000a81548173ffffffffffffffffffffffffffffffffffffffff021916908373ffffffffffffffffffffffffffffffffffffffff160217905550808273ffffffffffffffffffffffffffffffffffffffff168473ffffffffffffffffffffffffffffffffffffffff167fddf252ad1be2c89b69c2b068fc378daa952ba7f163c4a11628f55a4df523b3ef60405160405180910390a4505050565b60006133768360000183613591565b60001c905092915050565b6001816000016000828254019250508190555050565b6133b182826040518060200160405280600081525061362b565b5050565b6133be82612c0d565b6133fd576040517f08c379a00000000000000000000000000000000000000000000000000000000081526004016133f490615425565b60405180910390fd5b80600660008481526020019081526020016000209080519060200190613424929190613dcd565b505050565b600061343b836000018360001b613686565b905092915050565b6000613451826000016136f6565b9050919050565b600061346a836000018360001b613707565b905092915050565b61347d84848461310b565b61348984848484613885565b6134c8576040517f08c379a00000000000000000000000000000000000000000000000000000000081526004016134bf90615245565b60405180910390fd5b50505050565b606060405180602001604052806000815250905090565b60606134f082612c0d565b61352f576040517f08c379a000000000000000000000000000000000000000000000000000000000815260040161352690615505565b60405180910390fd5b60006135396134ce565b905060008151116135595760405180602001604052806000815250613584565b8061356384613a1c565b60405160200161357492919061509b565b6040516020818303038152906040525b915050919050565b505050565b6000818360000180549050116135dc576040517f08c379a00000000000000000000000000000000000000000000000000000000081526004016135d3906151e5565b60405180910390fd5b826000018281548110613618577f4e487b7100000000000000000000000000000000000000000000000000000000600052603260045260246000fd5b9060005260206000200154905092915050565b6136358383613bc9565b6136426000848484613885565b613681576040517f08c379a000000000000000000000000000000000000000000000000000000000815260040161367890615245565b60405180910390fd5b505050565b60006136928383613d97565b6136eb5782600001829080600181540180825580915050600190039060005260206000200160009091909190915055826000018054905083600101600084815260200190815260200160002081905550600190506136f0565b600090505b92915050565b600081600001805490509050919050565b600080836001016000848152602001908152602001600020549050600081146138795760006001826137399190615a3a565b90506000600186600001805490506137519190615a3a565b90506000866000018281548110613791577f4e487b7100000000000000000000000000000000000000000000000000000000600052603260045260246000fd5b90600052602060002001549050808760000184815481106137db577f4e487b7100000000000000000000000000000000000000000000000000000000600052603260045260246000fd5b906000526020600020018190555083876001016000838152602001908152602001600020819055508660000180548061383d577f4e487b7100000000000000000000000000000000000000000000000000000000600052603160045260246000fd5b6001900381819060005260206000200160009055905586600101600087815260200190815260200160002060009055600194505050505061387f565b60009150505b92915050565b60006138a68473ffffffffffffffffffffffffffffffffffffffff16613dba565b15613a0f578373ffffffffffffffffffffffffffffffffffffffff1663150b7a026138cf612c79565b8786866040518563ffffffff1660e01b81526004016138f1949392919061513a565b602060405180830381600087803b15801561390b57600080fd5b505af192505050801561393c57506040513d601f19601f820116820180604052508101906139399190614302565b60015b6139bf573d806000811461396c576040519150601f19603f3d011682016040523d82523d6000602084013e613971565b606091505b506000815114156139b7576040517f08c379a00000000000000000000000000000000000000000000000000000000081526004016139ae90615245565b60405180910390fd5b805181602001fd5b63150b7a0260e01b7bffffffffffffffffffffffffffffffffffffffffffffffffffffffff1916817bffffffffffffffffffffffffffffffffffffffffffffffffffffffff191614915050613a14565b600190505b949350505050565b60606000821415613a64576040518060400160405280600181526020017f30000000000000000000000000000000000000000000000000000000000000008152509050613bc4565b600082905060005b60008214613a96578080613a7f90615b9e565b915050600a82613a8f91906159af565b9150613a6c565b60008167ffffffffffffffff811115613ad8577f4e487b7100000000000000000000000000000000000000000000000000000000600052604160045260246000fd5b6040519080825280601f01601f191660200182016040528015613b0a5781602001600182028036833780820191505090505b5090505b60008514613bbd57600182613b239190615a3a565b9150600a85613b329190615be7565b6030613b3e9190615959565b60f81b818381518110613b7a577f4e487b7100000000000000000000000000000000000000000000000000000000600052603260045260246000fd5b60200101907effffffffffffffffffffffffffffffffffffffffffffffffffffffffffffff1916908160001a905350600a85613bb691906159af565b9450613b0e565b8093505050505b919050565b600073ffffffffffffffffffffffffffffffffffffffff168273ffffffffffffffffffffffffffffffffffffffff161415613c39576040517f08c379a0000000000000000000000000000000000000000000000000000000008152600401613c3090615485565b60405180910390fd5b613c4281612c0d565b15613c82576040517f08c379a0000000000000000000000000000000000000000000000000000000008152600401613c7990615265565b60405180910390fd5b613c8e6000838361358c565b6001600360008473ffffffffffffffffffffffffffffffffffffffff1673ffffffffffffffffffffffffffffffffffffffff1681526020019081526020016000206000828254613cde9190615959565b92505081905550816002600083815260200190815260200160002060006101000a81548173ffffffffffffffffffffffffffffffffffffffff021916908373ffffffffffffffffffffffffffffffffffffffff160217905550808273ffffffffffffffffffffffffffffffffffffffff16600073ffffffffffffffffffffffffffffffffffffffff167fddf252ad1be2c89b69c2b068fc378daa952ba7f163c4a11628f55a4df523b3ef60405160405180910390a45050565b600080836001016000848152602001908152602001600020541415905092915050565b600080823b905060008111915050919050565b828054613dd990615b6c565b90600052602060002090601f016020900481019282613dfb5760008555613e42565b82601f10613e1457805160ff1916838001178555613e42565b82800160010185558215613e42579182015b82811115613e41578251825591602001919060010190613e26565b5b509050613e4f9190613e53565b5090565b5b80821115613e6c576000816000905550600101613e54565b5090565b6000613e83613e7e84615851565b615820565b905080838252602082019050828560a0860282011115613ea257600080fd5b60005b85811015613ed25781613eb8888261403f565b845260208401935060a08301925050600181019050613ea5565b5050509392505050565b6000613eef613eea8461587d565b615820565b905082815260208101848484011115613f0757600080fd5b613f12848285615b2a565b509392505050565b6000613f2d613f28846158ad565b615820565b905082815260208101848484011115613f4557600080fd5b613f50848285615b2a565b509392505050565b600081359050613f6781615ce5565b92915050565b600081519050613f7c81615ce5565b92915050565b600082601f830112613f9357600080fd5b8151613fa3848260208601613e70565b91505092915050565b600081359050613fbb81615cfc565b92915050565b600081359050613fd081615d13565b92915050565b600081519050613fe581615d13565b92915050565b600082601f830112613ffc57600080fd5b813561400c848260208601613edc565b91505092915050565b600082601f83011261402657600080fd5b8135614036848260208601613f1a565b91505092915050565b600060a0828403121561405157600080fd5b61405b60a0615820565b9050600061406b848285016140dc565b600083015250602061407f848285016140dc565b6020830152506040614093848285016140dc565b60408301525060606140a7848285016140dc565b60608301525060806140bb84828501613f6d565b60808301525092915050565b6000813590506140d681615d2a565b92915050565b6000815190506140eb81615d2a565b92915050565b60006020828403121561410357600080fd5b600061411184828501613f58565b91505092915050565b6000806040838503121561412d57600080fd5b600061413b85828601613f58565b925050602061414c85828601613f58565b9150509250929050565b60008060006060848603121561416b57600080fd5b600061417986828701613f58565b935050602061418a86828701613f58565b925050604061419b868287016140c7565b9150509250925092565b600080600080608085870312156141bb57600080fd5b60006141c987828801613f58565b94505060206141da87828801613f58565b93505060406141eb878288016140c7565b925050606085013567ffffffffffffffff81111561420857600080fd5b61421487828801613feb565b91505092959194509250565b6000806040838503121561423357600080fd5b600061424185828601613f58565b925050602061425285828601613fac565b9150509250929050565b6000806040838503121561426f57600080fd5b600061427d85828601613f58565b925050602061428e858286016140c7565b9150509250929050565b6000602082840312156142aa57600080fd5b600082015167ffffffffffffffff8111156142c457600080fd5b6142d084828501613f82565b91505092915050565b6000602082840312156142eb57600080fd5b60006142f984828501613fc1565b91505092915050565b60006020828403121561431457600080fd5b600061432284828501613fd6565b91505092915050565b60008060006060848603121561434057600080fd5b600084013567ffffffffffffffff81111561435a57600080fd5b61436686828701614015565b9350506020614377868287016140c7565b9250506040614388868287016140c7565b9150509250925092565b6000602082840312156143a457600080fd5b60006143b2848285016140c7565b91505092915050565b600080604083850312156143ce57600080fd5b60006143dc858286016140c7565b92505060206143ed858286016140c7565b9150509250929050565b60008060006060848603121561440c57600080fd5b600061441a868287016140c7565b935050602061442b868287016140c7565b925050604061443c868287016140c7565b9150509250925092565b60006144528383614ffe565b60a08301905092915050565b61446781615af4565b82525050565b61447681615a80565b82525050565b61448581615a6e565b82525050565b61449481615a6e565b82525050565b60006144a5826158ed565b6144af818561591b565b93506144ba836158dd565b8060005b838110156144eb5781516144d28882614446565b97506144dd8361590e565b9250506001810190506144be565b5085935050505092915050565b61450181615a92565b82525050565b6000614512826158f8565b61451c818561592c565b935061452c818560208601615b39565b61453581615cd4565b840191505092915050565b600061454b82615903565b614555818561593d565b9350614565818560208601615b39565b61456e81615cd4565b840191505092915050565b600061458482615903565b61458e818561594e565b935061459e818560208601615b39565b80840191505092915050565b60006145b760228361593d565b91507f456e756d657261626c655365743a20696e646578206f7574206f6620626f756e60008301527f64730000000000000000000000000000000000000000000000000000000000006020830152604082019050919050565b600061461d60158361593d565b91507f494e56414c49442d53454c4c494e472d505249434500000000000000000000006000830152602082019050919050565b600061465d60108361593d565b91507f494e56414c49442d4455524154494f4e000000000000000000000000000000006000830152602082019050919050565b600061469d60328361593d565b91507f4552433732313a207472616e7366657220746f206e6f6e20455243373231526560008301527f63656976657220696d706c656d656e74657200000000000000000000000000006020830152604082019050919050565b6000614703601c8361593d565b91507f4552433732313a20746f6b656e20616c7265616479206d696e746564000000006000830152602082019050919050565b600061474360168361593d565b91507f494e56414c49442d53454c4c494e472d555044415445000000000000000000006000830152602082019050919050565b600061478360198361593d565b91507f494e56414c49442d4c4943454e5341424c452d555044415445000000000000006000830152602082019050919050565b60006147c3600d8361593d565b91507f5041594d454e542d4552524f52000000000000000000000000000000000000006000830152602082019050919050565b6000614803600d8361593d565b91507f414c52454144592d4f574e4552000000000000000000000000000000000000006000830152602082019050919050565b600061484360248361593d565b91507f4552433732313a207472616e7366657220746f20746865207a65726f2061646460008301527f72657373000000000000000000000000000000000000000000000000000000006020830152604082019050919050565b60006148a960198361593d565b91507f4552433732313a20617070726f766520746f2063616c6c6572000000000000006000830152602082019050919050565b60006148e9602c8361593d565b91507f4552433732313a206f70657261746f7220717565727920666f72206e6f6e657860008301527f697374656e7420746f6b656e00000000000000000000000000000000000000006020830152604082019050919050565b600061494f60098361593d565b91507f4e4f542d4f574e455200000000000000000000000000000000000000000000006000830152602082019050919050565b600061498f600f8361593d565b91507f494e56414c49442d5041594d454e5400000000000000000000000000000000006000830152602082019050919050565b60006149cf60158361593d565b91507f494e56414c49442d4c4943454e53452d505249434500000000000000000000006000830152602082019050919050565b6000614a0f60388361593d565b91507f4552433732313a20617070726f76652063616c6c6572206973206e6f74206f7760008301527f6e6572206e6f7220617070726f76656420666f7220616c6c00000000000000006020830152604082019050919050565b6000614a75602a8361593d565b91507f4552433732313a2062616c616e636520717565727920666f7220746865207a6560008301527f726f2061646472657373000000000000000000000000000000000000000000006020830152604082019050919050565b6000614adb60298361593d565b91507f4552433732313a206f776e657220717565727920666f72206e6f6e657869737460008301527f656e7420746f6b656e00000000000000000000000000000000000000000000006020830152604082019050919050565b6000614b41602e8361593d565b91507f45524337323155524953746f726167653a2055524920736574206f66206e6f6e60008301527f6578697374656e7420746f6b656e0000000000000000000000000000000000006020830152604082019050919050565b6000614ba760108361593d565b91507f494e56414c49442d544f4b454e2d4944000000000000000000000000000000006000830152602082019050919050565b6000614be760108361593d565b91507f414c52454144592d4c4943454e534544000000000000000000000000000000006000830152602082019050919050565b6000614c2760208361593d565b91507f4552433732313a206d696e7420746f20746865207a65726f20616464726573736000830152602082019050919050565b6000614c6760318361593d565b91507f45524337323155524953746f726167653a2055524920717565727920666f722060008301527f6e6f6e6578697374656e7420746f6b656e0000000000000000000000000000006020830152604082019050919050565b6000614ccd602c8361593d565b91507f4552433732313a20617070726f76656420717565727920666f72206e6f6e657860008301527f697374656e7420746f6b656e00000000000000000000000000000000000000006020830152604082019050919050565b6000614d3360298361593d565b91507f4552433732313a207472616e73666572206f6620746f6b656e2074686174206960008301527f73206e6f74206f776e00000000000000000000000000000000000000000000006020830152604082019050919050565b6000614d99602f8361593d565b91507f4552433732314d657461646174613a2055524920717565727920666f72206e6f60008301527f6e6578697374656e7420746f6b656e00000000000000000000000000000000006020830152604082019050919050565b6000614dff60218361593d565b91507f4552433732313a20617070726f76616c20746f2063757272656e74206f776e6560008301527f72000000000000000000000000000000000000000000000000000000000000006020830152604082019050919050565b6000614e65600e8361593d565b91507f414c52454144592d4d494e5445440000000000000000000000000000000000006000830152602082019050919050565b6000614ea5600e8361593d565b91507f4e4f542d52454d4f5645442d49440000000000000000000000000000000000006000830152602082019050919050565b6000614ee5600c8361593d565b91507f4455504c49434154452d494400000000000000000000000000000000000000006000830152602082019050919050565b6000614f2560318361593d565b91507f4552433732313a207472616e736665722063616c6c6572206973206e6f74206f60008301527f776e6572206e6f7220617070726f7665640000000000000000000000000000006020830152604082019050919050565b6000614f8b600c8361593d565b91507f4e4f542d464f522d53414c4500000000000000000000000000000000000000006000830152602082019050919050565b6000614fcb600e8361593d565b91507f4e4f542d4c4943454e5341424c450000000000000000000000000000000000006000830152602082019050919050565b60a0820160008201516150146000850182615066565b5060208201516150276020850182615066565b50604082015161503a6040850182615066565b50606082015161504d6060850182615066565b506080820151615060608085018261447c565b50505050565b61506f81615aea565b82525050565b61507e81615aea565b82525050565b60006150908284614579565b915081905092915050565b60006150a78285614579565b91506150b38284614579565b91508190509392505050565b60006020820190506150d4600083018461448b565b92915050565b60006060820190506150ef600083018661445e565b6150fc602083018561448b565b6151096040830184615075565b949350505050565b6000604082019050615126600083018561446d565b6151336020830184615075565b9392505050565b600060808201905061514f600083018761448b565b61515c602083018661448b565b6151696040830185615075565b818103606083015261517b8184614507565b905095945050505050565b600060208201905081810360008301526151a0818461449a565b905092915050565b60006020820190506151bd60008301846144f8565b92915050565b600060208201905081810360008301526151dd8184614540565b905092915050565b600060208201905081810360008301526151fe816145aa565b9050919050565b6000602082019050818103600083015261521e81614610565b9050919050565b6000602082019050818103600083015261523e81614650565b9050919050565b6000602082019050818103600083015261525e81614690565b9050919050565b6000602082019050818103600083015261527e816146f6565b9050919050565b6000602082019050818103600083015261529e81614736565b9050919050565b600060208201905081810360008301526152be81614776565b9050919050565b600060208201905081810360008301526152de816147b6565b9050919050565b600060208201905081810360008301526152fe816147f6565b9050919050565b6000602082019050818103600083015261531e81614836565b9050919050565b6000602082019050818103600083015261533e8161489c565b9050919050565b6000602082019050818103600083015261535e816148dc565b9050919050565b6000602082019050818103600083015261537e81614942565b9050919050565b6000602082019050818103600083015261539e81614982565b9050919050565b600060208201905081810360008301526153be816149c2565b9050919050565b600060208201905081810360008301526153de81614a02565b9050919050565b600060208201905081810360008301526153fe81614a68565b9050919050565b6000602082019050818103600083015261541e81614ace565b9050919050565b6000602082019050818103600083015261543e81614b34565b9050919050565b6000602082019050818103600083015261545e81614b9a565b9050919050565b6000602082019050818103600083015261547e81614bda565b9050919050565b6000602082019050818103600083015261549e81614c1a565b9050919050565b600060208201905081810360008301526154be81614c5a565b9050919050565b600060208201905081810360008301526154de81614cc0565b9050919050565b600060208201905081810360008301526154fe81614d26565b9050919050565b6000602082019050818103600083015261551e81614d8c565b9050919050565b6000602082019050818103600083015261553e81614df2565b9050919050565b6000602082019050818103600083015261555e81614e58565b9050919050565b6000602082019050818103600083015261557e81614e98565b9050919050565b6000602082019050818103600083015261559e81614ed8565b9050919050565b600060208201905081810360008301526155be81614f18565b9050919050565b600060208201905081810360008301526155de81614f7e565b9050919050565b600060208201905081810360008301526155fe81614fbe565b9050919050565b600060208201905061561a6000830184615075565b92915050565b600060a0820190506156356000830188615075565b615642602083018761445e565b61564f604083018661448b565b61565c6060830185615075565b6156696080830184615075565b9695505050505050565b60006060820190506156886000830186615075565b6156956020830185615075565b6156a26040830184615075565b949350505050565b600060a0820190506156bf6000830188615075565b6156cc6020830187615075565b6156d96040830186615075565b81810360608301526156eb8185614540565b90506156fa608083018461448b565b9695505050505050565b600060c0820190506157196000830189615075565b6157266020830188615075565b6157336040830187615075565b81810360608301526157458186614540565b9050615754608083018561446d565b61576160a083018461446d565b979650505050505050565b600060a0820190506157816000830188615075565b61578e6020830187615075565b61579b6040830186615075565b6157a86060830185615075565b6157b5608083018461448b565b9695505050505050565b600060c0820190506157d46000830189615075565b6157e16020830188615075565b6157ee6040830187615075565b6157fb6060830186615075565b615808608083018561446d565b61581560a0830184615075565b979650505050505050565b6000604051905081810181811067ffffffffffffffff8211171561584757615846615ca5565b5b8060405250919050565b600067ffffffffffffffff82111561586c5761586b615ca5565b5b602082029050602081019050919050565b600067ffffffffffffffff82111561589857615897615ca5565b5b601f19601f8301169050602081019050919050565b600067ffffffffffffffff8211156158c8576158c7615ca5565b5b601f19601f8301169050602081019050919050565b6000819050602082019050919050565b600081519050919050565b600081519050919050565b600081519050919050565b6000602082019050919050565b600082825260208201905092915050565b600082825260208201905092915050565b600082825260208201905092915050565b600081905092915050565b600061596482615aea565b915061596f83615aea565b9250827fffffffffffffffffffffffffffffffffffffffffffffffffffffffffffffffff038211156159a4576159a3615c18565b5b828201905092915050565b60006159ba82615aea565b91506159c583615aea565b9250826159d5576159d4615c47565b5b828204905092915050565b60006159eb82615aea565b91506159f683615aea565b9250817fffffffffffffffffffffffffffffffffffffffffffffffffffffffffffffffff0483118215151615615a2f57615a2e615c18565b5b828202905092915050565b6000615a4582615aea565b9150615a5083615aea565b925082821015615a6357615a62615c18565b5b828203905092915050565b6000615a7982615aca565b9050919050565b6000615a8b82615aca565b9050919050565b60008115159050919050565b60007fffffffff0000000000000000000000000000000000000000000000000000000082169050919050565b600073ffffffffffffffffffffffffffffffffffffffff82169050919050565b6000819050919050565b6000615aff82615b06565b9050919050565b6000615b1182615b18565b9050919050565b6000615b2382615aca565b9050919050565b82818337600083830152505050565b60005b83811015615b57578082015181840152602081019050615b3c565b83811115615b66576000848401525b50505050565b60006002820490506001821680615b8457607f821691505b60208210811415615b9857615b97615c76565b5b50919050565b6000615ba982615aea565b91507fffffffffffffffffffffffffffffffffffffffffffffffffffffffffffffffff821415615bdc57615bdb615c18565b5b600182019050919050565b6000615bf282615aea565b9150615bfd83615aea565b925082615c0d57615c0c615c47565b5b828206905092915050565b7f4e487b7100000000000000000000000000000000000000000000000000000000600052601160045260246000fd5b7f4e487b7100000000000000000000000000000000000000000000000000000000600052601260045260246000fd5b7f4e487b7100000000000000000000000000000000000000000000000000000000600052602260045260246000fd5b7f4e487b7100000000000000000000000000000000000000000000000000000000600052604160045260246000fd5b6000601f19601f8301169050919050565b615cee81615a6e565b8114615cf957600080fd5b50565b615d0581615a92565b8114615d1057600080fd5b50565b615d1c81615a9e565b8114615d2757600080fd5b50565b615d3381615aea565b8114615d3e57600080fd5b5056fea2646970667358221220513a9094bd5866aa5c7850f48359db6cd177f72a0e2aa30dea6ec1ee8873dfde64736f6c63430008000033",
  "linkReferences": {},
  "deployedLinkReferences": {}
}