{
  "_format": "hh-sol-artifact-1",
  "contractName": "DigitalArt",
  "sourceName": "contracts/DigitalArt.sol",
  "abi": [
    {
      "inputs": [],
      "stateMutability": "nonpayable",
      "type": "constructor"
    },
    {
      "anonymous": false,
      "inputs": [
        {
          "indexed": true,
          "internalType": "address",
          "name": "owner",
          "type": "address"
        },
        {
          "indexed": true,
          "internalType": "address",
          "name": "approved",
          "type": "address"
        },
        {
          "indexed": true,
          "internalType": "uint256",
          "name": "tokenId",
          "type": "uint256"
        }
      ],
      "name": "Approval",
      "type": "event"
    },
    {
      "anonymous": false,
      "inputs": [
        {
          "indexed": true,
          "internalType": "address",
          "name": "owner",
          "type": "address"
        },
        {
          "indexed": true,
          "internalType": "address",
          "name": "operator",
          "type": "address"
        },
        {
          "indexed": false,
          "internalType": "bool",
          "name": "approved",
          "type": "bool"
        }
      ],
      "name": "ApprovalForAll",
      "type": "event"
    },
    {
      "anonymous": false,
      "inputs": [
        {
          "indexed": false,
          "internalType": "uint256",
          "name": "tokenId",
          "type": "uint256"
        },
        {
          "indexed": false,
          "internalType": "uint256",
          "name": "oldDailyLicensePrice",
          "type": "uint256"
        },
        {
          "indexed": false,
          "internalType": "uint256",
          "name": "newDailyLicensePrice",
          "type": "uint256"
        }
      ],
      "name": "DailyLicensePriceUpdated",
      "type": "event"
    },
    {
      "anonymous": false,
      "inputs": [
        {
          "indexed": false,
          "internalType": "uint256",
          "name": "tokenId",
          "type": "uint256"
        },
        {
          "indexed": false,
          "internalType": "uint256",
          "name": "timestamp",
          "type": "uint256"
        },
        {
          "indexed": false,
          "internalType": "uint256",
          "name": "totalAttempts",
          "type": "uint256"
        },
        {
          "indexed": false,
          "internalType": "bytes32",
          "name": "infringmentAttemptsHash",
          "type": "bytes32"
        }
      ],
      "name": "InfringmentAttemptsRecorded",
      "type": "event"
    },
    {
      "anonymous": false,
      "inputs": [
        {
          "indexed": false,
          "internalType": "uint256",
          "name": "tokenId",
          "type": "uint256"
        },
        {
          "indexed": false,
          "internalType": "uint256",
          "name": "durationInDays",
          "type": "uint256"
        },
        {
          "indexed": false,
          "internalType": "uint256",
          "name": "price",
          "type": "uint256"
        },
        {
          "indexed": false,
          "internalType": "uint256",
          "name": "endDateInMillis",
          "type": "uint256"
        },
        {
          "indexed": false,
          "internalType": "address payable",
          "name": "sender",
          "type": "address"
        },
        {
          "indexed": false,
          "internalType": "uint256",
          "name": "timestamp",
          "type": "uint256"
        }
      ],
      "name": "LicensePurchased",
      "type": "event"
    },
    {
      "anonymous": false,
      "inputs": [
        {
          "indexed": true,
          "internalType": "address",
          "name": "previousOwner",
          "type": "address"
        },
        {
          "indexed": true,
          "internalType": "address",
          "name": "newOwner",
          "type": "address"
        }
      ],
      "name": "OwnershipTransferred",
      "type": "event"
    },
    {
      "anonymous": false,
      "inputs": [
        {
          "indexed": false,
          "internalType": "address payable",
          "name": "to",
          "type": "address"
        },
        {
          "indexed": false,
          "internalType": "uint256",
          "name": "amount",
          "type": "uint256"
        }
      ],
      "name": "PaymentExecuted",
      "type": "event"
    },
    {
      "anonymous": false,
      "inputs": [
        {
          "indexed": false,
          "internalType": "uint256",
          "name": "tokenId",
          "type": "uint256"
        },
        {
          "indexed": false,
          "internalType": "uint256",
          "name": "oldSellingPrice",
          "type": "uint256"
        },
        {
          "indexed": false,
          "internalType": "uint256",
          "name": "newSellingPrice",
          "type": "uint256"
        }
      ],
      "name": "SellingPriceUpdated",
      "type": "event"
    },
    {
      "anonymous": false,
      "inputs": [
        {
          "indexed": false,
          "internalType": "uint256",
          "name": "tokenId",
          "type": "uint256"
        },
        {
          "indexed": false,
          "internalType": "uint256",
          "name": "sellingPrice",
          "type": "uint256"
        },
        {
          "indexed": false,
          "internalType": "uint256",
          "name": "dailyLicensePrice",
          "type": "uint256"
        },
        {
          "indexed": false,
          "internalType": "string",
          "name": "tokenURI",
          "type": "string"
        },
        {
          "indexed": false,
          "internalType": "address",
          "name": "owner",
          "type": "address"
        }
      ],
      "name": "TokenMinted",
      "type": "event"
    },
    {
      "anonymous": false,
      "inputs": [
        {
          "indexed": false,
          "internalType": "uint256",
          "name": "tokenId",
          "type": "uint256"
        },
        {
          "indexed": false,
          "internalType": "address",
          "name": "oldOwner",
          "type": "address"
        },
        {
          "indexed": false,
          "internalType": "address",
          "name": "newOwner",
          "type": "address"
        },
        {
          "indexed": false,
          "internalType": "uint256",
          "name": "price",
          "type": "uint256"
        },
        {
          "indexed": false,
          "internalType": "uint256",
          "name": "timestamp",
          "type": "uint256"
        }
      ],
      "name": "TokenPurchased",
      "type": "event"
    },
    {
      "anonymous": false,
      "inputs": [
        {
          "indexed": true,
          "internalType": "address",
          "name": "from",
          "type": "address"
        },
        {
          "indexed": true,
          "internalType": "address",
          "name": "to",
          "type": "address"
        },
        {
          "indexed": true,
          "internalType": "uint256",
          "name": "tokenId",
          "type": "uint256"
        }
      ],
      "name": "Transfer",
      "type": "event"
    },
    {
      "inputs": [
        {
          "internalType": "address",
          "name": "to",
          "type": "address"
        },
        {
          "internalType": "uint256",
          "name": "tokenId",
          "type": "uint256"
        }
      ],
      "name": "approve",
      "outputs": [],
      "stateMutability": "nonpayable",
      "type": "function"
    },
    {
      "inputs": [],
      "name": "artistLicenseRoyalty",
      "outputs": [
        {
          "internalType": "uint256",
          "name": "",
          "type": "uint256"
        }
      ],
      "stateMutability": "view",
      "type": "function"
    },
    {
      "inputs": [],
      "name": "artistResellingRoyalty",
      "outputs": [
        {
          "internalType": "uint256",
          "name": "",
          "type": "uint256"
        }
      ],
      "stateMutability": "view",
      "type": "function"
    },
    {
      "inputs": [
        {
          "internalType": "address",
          "name": "owner",
          "type": "address"
        }
      ],
      "name": "balanceOf",
      "outputs": [
        {
          "internalType": "uint256",
          "name": "",
          "type": "uint256"
        }
      ],
      "stateMutability": "view",
      "type": "function"
    },
    {
      "inputs": [
        {
          "internalType": "uint256",
          "name": "_tokenId",
          "type": "uint256"
        }
      ],
      "name": "getAllLicensesForToken",
      "outputs": [
        {
          "components": [
            {
              "internalType": "uint256",
              "name": "tokenId",
              "type": "uint256"
            },
            {
              "internalType": "uint256",
              "name": "start",
              "type": "uint256"
            },
            {
              "internalType": "uint256",
              "name": "end",
              "type": "uint256"
            },
            {
              "internalType": "uint256",
              "name": "price",
              "type": "uint256"
            },
            {
              "internalType": "address",
              "name": "recipient",
              "type": "address"
            }
          ],
          "internalType": "struct DigitalArt.License[]",
          "name": "_licenses",
          "type": "tuple[]"
        }
      ],
      "stateMutability": "view",
      "type": "function"
    },
    {
      "inputs": [
        {
          "internalType": "uint256",
          "name": "tokenId",
          "type": "uint256"
        }
      ],
      "name": "getApproved",
      "outputs": [
        {
          "internalType": "address",
          "name": "",
          "type": "address"
        }
      ],
      "stateMutability": "view",
      "type": "function"
    },
    {
      "inputs": [
        {
          "internalType": "uint256",
          "name": "",
          "type": "uint256"
        }
      ],
      "name": "idToNFT",
      "outputs": [
        {
          "internalType": "uint256",
          "name": "id",
          "type": "uint256"
        },
        {
          "internalType": "uint256",
          "name": "sellingPrice",
          "type": "uint256"
        },
        {
          "internalType": "uint256",
          "name": "dailyLicensePrice",
          "type": "uint256"
        },
        {
          "internalType": "string",
          "name": "uri",
          "type": "string"
        },
        {
          "internalType": "address payable",
          "name": "artist",
          "type": "address"
        },
        {
          "internalType": "address payable",
          "name": "owner",
          "type": "address"
        }
      ],
      "stateMutability": "view",
      "type": "function"
    },
    {
      "inputs": [
        {
          "internalType": "address",
          "name": "owner",
          "type": "address"
        },
        {
          "internalType": "address",
          "name": "operator",
          "type": "address"
        }
      ],
      "name": "isApprovedForAll",
      "outputs": [
        {
          "internalType": "bool",
          "name": "",
          "type": "bool"
        }
      ],
      "stateMutability": "view",
      "type": "function"
    },
    {
      "inputs": [],
      "name": "name",
      "outputs": [
        {
          "internalType": "string",
          "name": "",
          "type": "string"
        }
      ],
      "stateMutability": "view",
      "type": "function"
    },
    {
      "inputs": [],
      "name": "owner",
      "outputs": [
        {
          "internalType": "address",
          "name": "",
          "type": "address"
        }
      ],
      "stateMutability": "view",
      "type": "function"
    },
    {
      "inputs": [
        {
          "internalType": "uint256",
          "name": "tokenId",
          "type": "uint256"
        }
      ],
      "name": "ownerOf",
      "outputs": [
        {
          "internalType": "address",
          "name": "",
          "type": "address"
        }
      ],
      "stateMutability": "view",
      "type": "function"
    },
    {
      "inputs": [
        {
          "internalType": "uint256",
          "name": "_tokenId",
          "type": "uint256"
        },
        {
          "internalType": "uint256",
          "name": "_days",
          "type": "uint256"
        },
        {
          "internalType": "uint256",
          "name": "_timestamp",
          "type": "uint256"
        }
      ],
      "name": "purchaseLicense",
      "outputs": [],
      "stateMutability": "payable",
      "type": "function"
    },
    {
      "inputs": [
        {
          "internalType": "uint256",
          "name": "_tokenId",
          "type": "uint256"
        },
        {
          "internalType": "uint256",
          "name": "_timestamp",
          "type": "uint256"
        }
      ],
      "name": "purchaseNFT",
      "outputs": [],
      "stateMutability": "payable",
      "type": "function"
    },
    {
      "inputs": [
        {
          "internalType": "uint256",
          "name": "_tokenId",
          "type": "uint256"
        },
        {
          "internalType": "uint256",
          "name": "_timestamp",
          "type": "uint256"
        },
        {
          "internalType": "uint256",
          "name": "_totalAttempts",
          "type": "uint256"
        },
        {
          "internalType": "bytes32",
          "name": "_infringmentAttemptsHash",
          "type": "bytes32"
        }
      ],
      "name": "recordIPRInfringementAttempts",
      "outputs": [],
      "stateMutability": "nonpayable",
      "type": "function"
    },
    {
      "inputs": [],
      "name": "renounceOwnership",
      "outputs": [],
      "stateMutability": "nonpayable",
      "type": "function"
    },
    {
      "inputs": [
        {
          "internalType": "string",
          "name": "_tokenURI",
          "type": "string"
        },
        {
          "internalType": "uint256",
          "name": "_sellingPrice",
          "type": "uint256"
        },
        {
          "internalType": "uint256",
          "name": "_dailyLicensePrice",
          "type": "uint256"
        }
      ],
      "name": "safeMint",
      "outputs": [
        {
          "internalType": "uint256",
          "name": "_newTokenId",
          "type": "uint256"
        }
      ],
      "stateMutability": "nonpayable",
      "type": "function"
    },
    {
      "inputs": [
        {
          "internalType": "address",
          "name": "from",
          "type": "address"
        },
        {
          "internalType": "address",
          "name": "to",
          "type": "address"
        },
        {
          "internalType": "uint256",
          "name": "tokenId",
          "type": "uint256"
        }
      ],
      "name": "safeTransferFrom",
      "outputs": [],
      "stateMutability": "nonpayable",
      "type": "function"
    },
    {
      "inputs": [
        {
          "internalType": "address",
          "name": "from",
          "type": "address"
        },
        {
          "internalType": "address",
          "name": "to",
          "type": "address"
        },
        {
          "internalType": "uint256",
          "name": "tokenId",
          "type": "uint256"
        },
        {
          "internalType": "bytes",
          "name": "_data",
          "type": "bytes"
        }
      ],
      "name": "safeTransferFrom",
      "outputs": [],
      "stateMutability": "nonpayable",
      "type": "function"
    },
    {
      "inputs": [
        {
          "internalType": "address",
          "name": "operator",
          "type": "address"
        },
        {
          "internalType": "bool",
          "name": "approved",
          "type": "bool"
        }
      ],
      "name": "setApprovalForAll",
      "outputs": [],
      "stateMutability": "nonpayable",
      "type": "function"
    },
    {
      "inputs": [
        {
          "internalType": "bytes4",
          "name": "interfaceId",
          "type": "bytes4"
        }
      ],
      "name": "supportsInterface",
      "outputs": [
        {
          "internalType": "bool",
          "name": "",
          "type": "bool"
        }
      ],
      "stateMutability": "view",
      "type": "function"
    },
    {
      "inputs": [],
      "name": "symbol",
      "outputs": [
        {
          "internalType": "string",
          "name": "",
          "type": "string"
        }
      ],
      "stateMutability": "view",
      "type": "function"
    },
    {
      "inputs": [
        {
          "internalType": "uint256",
          "name": "tokenId",
          "type": "uint256"
        }
      ],
      "name": "tokenURI",
      "outputs": [
        {
          "internalType": "string",
          "name": "",
          "type": "string"
        }
      ],
      "stateMutability": "view",
      "type": "function"
    },
    {
      "inputs": [
        {
          "internalType": "address",
          "name": "from",
          "type": "address"
        },
        {
          "internalType": "address",
          "name": "to",
          "type": "address"
        },
        {
          "internalType": "uint256",
          "name": "tokenId",
          "type": "uint256"
        }
      ],
      "name": "transferFrom",
      "outputs": [],
      "stateMutability": "nonpayable",
      "type": "function"
    },
    {
      "inputs": [
        {
          "internalType": "address",
          "name": "newOwner",
          "type": "address"
        }
      ],
      "name": "transferOwnership",
      "outputs": [],
      "stateMutability": "nonpayable",
      "type": "function"
    },
    {
      "inputs": [
        {
          "internalType": "uint256",
          "name": "_tokenId",
          "type": "uint256"
        },
        {
          "internalType": "uint256",
          "name": "_newDailyLicensePrice",
          "type": "uint256"
        }
      ],
      "name": "updateDailyLicensePrice",
      "outputs": [],
      "stateMutability": "nonpayable",
      "type": "function"
    },
    {
      "inputs": [
        {
          "internalType": "uint256",
          "name": "_tokenId",
          "type": "uint256"
        },
        {
          "internalType": "uint256",
          "name": "_newSellingPrice",
          "type": "uint256"
        }
      ],
      "name": "updateSellingPrice",
      "outputs": [],
      "stateMutability": "nonpayable",
      "type": "function"
    }
  ],
  "bytecode": "0x6080604052600760085560036009553480156200001b57600080fd5b506040518060400160405280600a81526020017f4469676974616c417274000000000000000000000000000000000000000000008152506040518060400160405280600381526020017f44415400000000000000000000000000000000000000000000000000000000008152508160009080519060200190620000a09291906200017b565b508060019080519060200190620000b99291906200017b565b5050506000620000ce6200017360201b60201c565b905080600760006101000a81548173ffffffffffffffffffffffffffffffffffffffff021916908373ffffffffffffffffffffffffffffffffffffffff1602179055508073ffffffffffffffffffffffffffffffffffffffff16600073ffffffffffffffffffffffffffffffffffffffff167f8be0079c531659141344cd1fd0a4f28419497f9722a3daafe3b4186f6b6457e060405160405180910390a35062000290565b600033905090565b82805462000189906200022b565b90600052602060002090601f016020900481019282620001ad5760008555620001f9565b82601f10620001c857805160ff1916838001178555620001f9565b82800160010185558215620001f9579182015b82811115620001f8578251825591602001919060010190620001db565b5b5090506200020891906200020c565b5090565b5b80821115620002275760008160009055506001016200020d565b5090565b600060028204905060018216806200024457607f821691505b602082108114156200025b576200025a62000261565b5b50919050565b7f4e487b7100000000000000000000000000000000000000000000000000000000600052602260045260246000fd5b615bec80620002a06000396000f3fe6080604052600436106101815760003560e01c806370a08231116100d1578063b88d4fde1161008a578063cd1f6ed911610064578063cd1f6ed91461058b578063d650f94c146105b6578063e985e9c5146105e1578063f2fde38b1461061e57610181565b8063b88d4fde146104fc578063c722061414610525578063c87b56dd1461054e57610181565b806370a082311461040d578063715018a61461044a5780638da5cb5b1461046157806395d89b411461048c578063a22cb465146104b7578063ad4451a3146104e057610181565b80632ef6ea7a1161013e578063571a2b6f11610118578063571a2b6f1461034157806361d317d31461036a5780636352211e146103935780636e1f94e1146103d057610181565b80632ef6ea7a1461029957806333aa49cd146102d657806342842e0e1461031857610181565b806301ffc9a71461018657806306fdde03146101c3578063081812fc146101ee578063095ea7b31461022b5780630c7a35681461025457806323b872dd14610270575b600080fd5b34801561019257600080fd5b506101ad60048036038101906101a891906140c9565b610647565b6040516101ba919061500a565b60405180910390f35b3480156101cf57600080fd5b506101d8610729565b6040516101e59190615025565b60405180910390f35b3480156101fa57600080fd5b5061021560048036038101906102109190614182565b6107bb565b6040516102229190614f21565b60405180910390f35b34801561023757600080fd5b50610252600480360381019061024d919061404c565b610840565b005b61026e600480360381019061026991906141e7565b610958565b005b34801561027c57600080fd5b5061029760048036038101906102929190613f46565b610e57565b005b3480156102a557600080fd5b506102c060048036038101906102bb9190614182565b610eb7565b6040516102cd9190614fe8565b60405180910390f35b3480156102e257600080fd5b506102fd60048036038101906102f89190614182565b610fa7565b60405161030f969594939291906155ab565b60405180910390f35b34801561032457600080fd5b5061033f600480360381019061033a9190613f46565b6110ab565b005b34801561034d57600080fd5b50610368600480360381019061036391906141ab565b6110cb565b005b34801561037657600080fd5b50610391600480360381019061038c91906141ab565b611510565b005b34801561039f57600080fd5b506103ba60048036038101906103b59190614182565b6118f8565b6040516103c79190614f21565b60405180910390f35b3480156103dc57600080fd5b506103f760048036038101906103f2919061411b565b6119aa565b6040516104049190615467565b60405180910390f35b34801561041957600080fd5b50610434600480360381019061042f9190613ee1565b611c73565b6040516104419190615467565b60405180910390f35b34801561045657600080fd5b5061045f611d2b565b005b34801561046d57600080fd5b50610476611e68565b6040516104839190614f21565b60405180910390f35b34801561049857600080fd5b506104a1611e92565b6040516104ae9190615025565b60405180910390f35b3480156104c357600080fd5b506104de60048036038101906104d99190614010565b611f24565b005b6104fa60048036038101906104f591906141ab565b6120a5565b005b34801561050857600080fd5b50610523600480360381019061051e9190613f95565b6125c0565b005b34801561053157600080fd5b5061054c60048036038101906105479190614236565b612622565b005b34801561055a57600080fd5b5061057560048036038101906105709190614182565b6128ff565b6040516105829190615025565b60405180910390f35b34801561059757600080fd5b506105a0612a51565b6040516105ad9190615467565b60405180910390f35b3480156105c257600080fd5b506105cb612a57565b6040516105d89190615467565b60405180910390f35b3480156105ed57600080fd5b5061060860048036038101906106039190613f0a565b612a5d565b604051610615919061500a565b60405180910390f35b34801561062a57600080fd5b5061064560048036038101906106409190613ee1565b612af1565b005b60007f80ac58cd000000000000000000000000000000000000000000000000000000007bffffffffffffffffffffffffffffffffffffffffffffffffffffffff1916827bffffffffffffffffffffffffffffffffffffffffffffffffffffffff1916148061071257507f5b5e139f000000000000000000000000000000000000000000000000000000007bffffffffffffffffffffffffffffffffffffffffffffffffffffffff1916827bffffffffffffffffffffffffffffffffffffffffffffffffffffffff1916145b80610722575061072182612c9d565b5b9050919050565b606060008054610738906159ca565b80601f0160208091040260200160405190810160405280929190818152602001828054610764906159ca565b80156107b15780601f10610786576101008083540402835291602001916107b1565b820191906000526020600020905b81548152906001019060200180831161079457829003601f168201915b5050505050905090565b60006107c682612d07565b610805576040517f08c379a00000000000000000000000000000000000000000000000000000000081526004016107fc90615347565b60405180910390fd5b6004600083815260200190815260200160002060009054906101000a900473ffffffffffffffffffffffffffffffffffffffff169050919050565b600061084b826118f8565b90508073ffffffffffffffffffffffffffffffffffffffff168373ffffffffffffffffffffffffffffffffffffffff1614156108bc576040517f08c379a00000000000000000000000000000000000000000000000000000000081526004016108b3906153c7565b60405180910390fd5b8073ffffffffffffffffffffffffffffffffffffffff166108db612d73565b73ffffffffffffffffffffffffffffffffffffffff16148061090a575061090981610904612d73565b612a5d565b5b610949576040517f08c379a000000000000000000000000000000000000000000000000000000000815260040161094090615247565b60405180910390fd5b6109538383612d7b565b505050565b6000600a60008581526020019081526020016000206040518060c00160405290816000820154815260200160018201548152602001600282015481526020016003820180546109a6906159ca565b80601f01602080910402602001604051908101604052809291908181526020018280546109d2906159ca565b8015610a1f5780601f106109f457610100808354040283529160200191610a1f565b820191906000526020600020905b815481529060010190602001808311610a0257829003601f168201915b505050505081526020016004820160009054906101000a900473ffffffffffffffffffffffffffffffffffffffff1673ffffffffffffffffffffffffffffffffffffffff1673ffffffffffffffffffffffffffffffffffffffff1681526020016005820160009054906101000a900473ffffffffffffffffffffffffffffffffffffffff1673ffffffffffffffffffffffffffffffffffffffff1673ffffffffffffffffffffffffffffffffffffffff16815250509050610ae0600b612e34565b8411158015610af25750838160000151145b610b31576040517f08c379a0000000000000000000000000000000000000000000000000000000008152600401610b28906152c7565b60405180910390fd5b3373ffffffffffffffffffffffffffffffffffffffff168160a0015173ffffffffffffffffffffffffffffffffffffffff161415610ba4576040517f08c379a0000000000000000000000000000000000000000000000000000000008152600401610b9b90615147565b60405180910390fd5b6000816040015111610beb576040517f08c379a0000000000000000000000000000000000000000000000000000000008152600401610be290615447565b60405180910390fd5b60008311610c2e576040517f08c379a0000000000000000000000000000000000000000000000000000000008152600401610c2590615067565b60405180910390fd5b34838260400151610c3f9190615834565b1115610c80576040517f08c379a0000000000000000000000000000000000000000000000000000000008152600401610c7790615207565b60405180910390fd5b610c8b338584612e42565b60006009546064858460400151610ca29190615834565b610cac9190615803565b610cb69190615834565b9050600081858460400151610ccb9190615834565b610cd5919061588e565b9050610ce5836080015183613076565b610cf38360a0015182613076565b60006305265c0086610d059190615834565b905060006040518060a001604052808981526020018781526020018388610d2c91906157ad565b81526020013481526020013373ffffffffffffffffffffffffffffffffffffffff168152509050600d60008981526020019081526020016000208190806001815401808255809150506001900390600052602060002090600502016000909190919091506000820151816000015560208201518160010155604082015181600201556060820151816003015560808201518160040160006101000a81548173ffffffffffffffffffffffffffffffffffffffff021916908373ffffffffffffffffffffffffffffffffffffffff16021790555050507fee6d96e6bb15c556dad9055c074dc60e2b01d0b67378d3922ccbbad8d4d7ea8a888834858a610e3191906157ad565b338b604051610e4596959493929190615613565b60405180910390a15050505050505050565b610e68610e62612d73565b82613127565b610ea7576040517f08c379a0000000000000000000000000000000000000000000000000000000008152600401610e9e90615407565b60405180910390fd5b610eb2838383613205565b505050565b6060600d6000838152602001908152602001600020805480602002602001604051908101604052809291908181526020016000905b82821015610f9c57838290600052602060002090600502016040518060a0016040529081600082015481526020016001820154815260200160028201548152602001600382015481526020016004820160009054906101000a900473ffffffffffffffffffffffffffffffffffffffff1673ffffffffffffffffffffffffffffffffffffffff1673ffffffffffffffffffffffffffffffffffffffff168152505081526020019060010190610eec565b505050509050919050565b600a602052806000526040600020600091509050806000015490806001015490806002015490806003018054610fdc906159ca565b80601f0160208091040260200160405190810160405280929190818152602001828054611008906159ca565b80156110555780601f1061102a57610100808354040283529160200191611055565b820191906000526020600020905b81548152906001019060200180831161103857829003601f168201915b5050505050908060040160009054906101000a900473ffffffffffffffffffffffffffffffffffffffff16908060050160009054906101000a900473ffffffffffffffffffffffffffffffffffffffff16905086565b6110c6838383604051806020016040528060008152506125c0565b505050565b6000600a60008481526020019081526020016000206040518060c0016040529081600082015481526020016001820154815260200160028201548152602001600382018054611119906159ca565b80601f0160208091040260200160405190810160405280929190818152602001828054611145906159ca565b80156111925780601f1061116757610100808354040283529160200191611192565b820191906000526020600020905b81548152906001019060200180831161117557829003601f168201915b505050505081526020016004820160009054906101000a900473ffffffffffffffffffffffffffffffffffffffff1673ffffffffffffffffffffffffffffffffffffffff1673ffffffffffffffffffffffffffffffffffffffff1681526020016005820160009054906101000a900473ffffffffffffffffffffffffffffffffffffffff1673ffffffffffffffffffffffffffffffffffffffff1673ffffffffffffffffffffffffffffffffffffffff16815250509050611253600b612e34565b83111580156112655750828160000151145b6112a4576040517f08c379a000000000000000000000000000000000000000000000000000000000815260040161129b906152c7565b60405180910390fd5b3373ffffffffffffffffffffffffffffffffffffffff168160a0015173ffffffffffffffffffffffffffffffffffffffff1614611316576040517f08c379a000000000000000000000000000000000000000000000000000000000815260040161130d906151e7565b60405180910390fd5b6000816020015114801561132a5750600082115b80611346575060008160200151118015611345575060008210155b5b611385576040517f08c379a000000000000000000000000000000000000000000000000000000000815260040161137c906150e7565b60405180910390fd5b7ffbf96fcc78e52dc724126274324663c8a5bc540e16d8133f3d113477187329e8838260200151846040516113bc939291906154d5565b60405180910390a1600073ffffffffffffffffffffffffffffffffffffffff166113e5846107bb565b73ffffffffffffffffffffffffffffffffffffffff16141561140c5761140b3084610840565b5b600082141561142157611420600084610840565b5b8181602001818152505080600a60008581526020019081526020016000206000820151816000015560208201518160010155604082015181600201556060820151816003019080519060200190611479929190613ba8565b5060808201518160040160006101000a81548173ffffffffffffffffffffffffffffffffffffffff021916908373ffffffffffffffffffffffffffffffffffffffff16021790555060a08201518160050160006101000a81548173ffffffffffffffffffffffffffffffffffffffff021916908373ffffffffffffffffffffffffffffffffffffffff160217905550905050505050565b6000600a60008481526020019081526020016000206040518060c001604052908160008201548152602001600182015481526020016002820154815260200160038201805461155e906159ca565b80601f016020809104026020016040519081016040528092919081815260200182805461158a906159ca565b80156115d75780601f106115ac576101008083540402835291602001916115d7565b820191906000526020600020905b8154815290600101906020018083116115ba57829003601f168201915b505050505081526020016004820160009054906101000a900473ffffffffffffffffffffffffffffffffffffffff1673ffffffffffffffffffffffffffffffffffffffff1673ffffffffffffffffffffffffffffffffffffffff1681526020016005820160009054906101000a900473ffffffffffffffffffffffffffffffffffffffff1673ffffffffffffffffffffffffffffffffffffffff1673ffffffffffffffffffffffffffffffffffffffff16815250509050611698600b612e34565b83111580156116aa5750828160000151145b6116e9576040517f08c379a00000000000000000000000000000000000000000000000000000000081526004016116e0906152c7565b60405180910390fd5b3373ffffffffffffffffffffffffffffffffffffffff168160a0015173ffffffffffffffffffffffffffffffffffffffff161461175b576040517f08c379a0000000000000000000000000000000000000000000000000000000008152600401611752906151e7565b60405180910390fd5b6000816040015114801561176f5750600082115b8061178b57506000816040015111801561178a575060008210155b5b6117ca576040517f08c379a00000000000000000000000000000000000000000000000000000000081526004016117c190615107565b60405180910390fd5b7fd74f4dda031330fab8da16fb8a42ef6b85772d9fe0a056e14a221a7fa18a2fe983826040015184604051611801939291906154d5565b60405180910390a18181604001818152505080600a60008581526020019081526020016000206000820151816000015560208201518160010155604082015181600201556060820151816003019080519060200190611861929190613ba8565b5060808201518160040160006101000a81548173ffffffffffffffffffffffffffffffffffffffff021916908373ffffffffffffffffffffffffffffffffffffffff16021790555060a08201518160050160006101000a81548173ffffffffffffffffffffffffffffffffffffffff021916908373ffffffffffffffffffffffffffffffffffffffff160217905550905050505050565b6000806002600084815260200190815260200160002060009054906101000a900473ffffffffffffffffffffffffffffffffffffffff169050600073ffffffffffffffffffffffffffffffffffffffff168173ffffffffffffffffffffffffffffffffffffffff1614156119a1576040517f08c379a000000000000000000000000000000000000000000000000000000000815260040161199890615287565b60405180910390fd5b80915050919050565b600080600c856040516119bd9190614ee6565b90815260200160405180910390205414611a0c576040517f08c379a0000000000000000000000000000000000000000000000000000000008152600401611a03906153e7565b60405180910390fd5b60008311611a4f576040517f08c379a0000000000000000000000000000000000000000000000000000000008152600401611a4690615047565b60405180910390fd5b60008211611a92576040517f08c379a0000000000000000000000000000000000000000000000000000000008152600401611a8990615227565b60405180910390fd5b611a9c600b613461565b6000611aa8600b612e34565b9050611ab43382613477565b611abe8186613495565b60006040518060c001604052808381526020018681526020018581526020018781526020013373ffffffffffffffffffffffffffffffffffffffff1681526020013373ffffffffffffffffffffffffffffffffffffffff16815250905080600a60008481526020019081526020016000206000820151816000015560208201518160010155604082015181600201556060820151816003019080519060200190611b69929190613ba8565b5060808201518160040160006101000a81548173ffffffffffffffffffffffffffffffffffffffff021916908373ffffffffffffffffffffffffffffffffffffffff16021790555060a08201518160050160006101000a81548173ffffffffffffffffffffffffffffffffffffffff021916908373ffffffffffffffffffffffffffffffffffffffff16021790555090505081600c87604051611c0c9190614ee6565b908152602001604051809103902081905550611c283083610840565b7f584e81111629cd59f3aa4829f0765e569d6e7f1a11237dc8733a72f6b2ee2c588286868933604051611c5f959493929190615551565b60405180910390a181925050509392505050565b60008073ffffffffffffffffffffffffffffffffffffffff168273ffffffffffffffffffffffffffffffffffffffff161415611ce4576040517f08c379a0000000000000000000000000000000000000000000000000000000008152600401611cdb90615267565b60405180910390fd5b600360008373ffffffffffffffffffffffffffffffffffffffff1673ffffffffffffffffffffffffffffffffffffffff168152602001908152602001600020549050919050565b611d33612d73565b73ffffffffffffffffffffffffffffffffffffffff16611d51611e68565b73ffffffffffffffffffffffffffffffffffffffff1614611da7576040517f08c379a0000000000000000000000000000000000000000000000000000000008152600401611d9e90615367565b60405180910390fd5b600073ffffffffffffffffffffffffffffffffffffffff16600760009054906101000a900473ffffffffffffffffffffffffffffffffffffffff1673ffffffffffffffffffffffffffffffffffffffff167f8be0079c531659141344cd1fd0a4f28419497f9722a3daafe3b4186f6b6457e060405160405180910390a36000600760006101000a81548173ffffffffffffffffffffffffffffffffffffffff021916908373ffffffffffffffffffffffffffffffffffffffff160217905550565b6000600760009054906101000a900473ffffffffffffffffffffffffffffffffffffffff16905090565b606060018054611ea1906159ca565b80601f0160208091040260200160405190810160405280929190818152602001828054611ecd906159ca565b8015611f1a5780601f10611eef57610100808354040283529160200191611f1a565b820191906000526020600020905b815481529060010190602001808311611efd57829003601f168201915b5050505050905090565b611f2c612d73565b73ffffffffffffffffffffffffffffffffffffffff168273ffffffffffffffffffffffffffffffffffffffff161415611f9a576040517f08c379a0000000000000000000000000000000000000000000000000000000008152600401611f91906151a7565b60405180910390fd5b8060056000611fa7612d73565b73ffffffffffffffffffffffffffffffffffffffff1673ffffffffffffffffffffffffffffffffffffffff16815260200190815260200160002060008473ffffffffffffffffffffffffffffffffffffffff1673ffffffffffffffffffffffffffffffffffffffff16815260200190815260200160002060006101000a81548160ff0219169083151502179055508173ffffffffffffffffffffffffffffffffffffffff16612054612d73565b73ffffffffffffffffffffffffffffffffffffffff167f17307eab39ab6107e8899845ad3d59bd9653f200f220920489ca2b5937696c3183604051612099919061500a565b60405180910390a35050565b6000600a60008481526020019081526020016000206040518060c00160405290816000820154815260200160018201548152602001600282015481526020016003820180546120f3906159ca565b80601f016020809104026020016040519081016040528092919081815260200182805461211f906159ca565b801561216c5780601f106121415761010080835404028352916020019161216c565b820191906000526020600020905b81548152906001019060200180831161214f57829003601f168201915b505050505081526020016004820160009054906101000a900473ffffffffffffffffffffffffffffffffffffffff1673ffffffffffffffffffffffffffffffffffffffff1673ffffffffffffffffffffffffffffffffffffffff1681526020016005820160009054906101000a900473ffffffffffffffffffffffffffffffffffffffff1673ffffffffffffffffffffffffffffffffffffffff1673ffffffffffffffffffffffffffffffffffffffff1681525050905061222d600b612e34565b831115801561223f5750828160000151145b61227e576040517f08c379a0000000000000000000000000000000000000000000000000000000008152600401612275906152c7565b60405180910390fd5b3373ffffffffffffffffffffffffffffffffffffffff168160a0015173ffffffffffffffffffffffffffffffffffffffff1614156122f1576040517f08c379a00000000000000000000000000000000000000000000000000000000081526004016122e890615147565b60405180910390fd5b6000816020015111612338576040517f08c379a000000000000000000000000000000000000000000000000000000000815260040161232f90615427565b60405180910390fd5b348160200151111561237f576040517f08c379a000000000000000000000000000000000000000000000000000000000815260040161237690615207565b60405180910390fd5b6000600854606483602001516123959190615803565b61239f9190615834565b905060008183602001516123b3919061588e565b90507f892605e5aa205718bf5422cbe570beb6c419fe374afe9a7f9c8fc114b99020a8858460a001513334886040516123f0959493929190615482565b60405180910390a13073ffffffffffffffffffffffffffffffffffffffff166342842e0e8460a001513386600001516040518463ffffffff1660e01b815260040161243d93929190614f3c565b600060405180830381600087803b15801561245757600080fd5b505af115801561246b573d6000803e3d6000fd5b5050505061247d836080015183613076565b61248b8360a0015182613076565b338360a0019073ffffffffffffffffffffffffffffffffffffffff16908173ffffffffffffffffffffffffffffffffffffffff16815250506000836020018181525050600083604001818152505082600a60008781526020019081526020016000206000820151816000015560208201518160010155604082015181600201556060820151816003019080519060200190612527929190613ba8565b5060808201518160040160006101000a81548173ffffffffffffffffffffffffffffffffffffffff021916908373ffffffffffffffffffffffffffffffffffffffff16021790555060a08201518160050160006101000a81548173ffffffffffffffffffffffffffffffffffffffff021916908373ffffffffffffffffffffffffffffffffffffffff1602179055509050505050505050565b6125d16125cb612d73565b83613127565b612610576040517f08c379a000000000000000000000000000000000000000000000000000000000815260040161260790615407565b60405180910390fd5b61261c84848484613509565b50505050565b61262a612d73565b73ffffffffffffffffffffffffffffffffffffffff16612648611e68565b73ffffffffffffffffffffffffffffffffffffffff161461269e576040517f08c379a000000000000000000000000000000000000000000000000000000000815260040161269590615367565b60405180910390fd5b6000600a60008681526020019081526020016000206040518060c00160405290816000820154815260200160018201548152602001600282015481526020016003820180546126ec906159ca565b80601f0160208091040260200160405190810160405280929190818152602001828054612718906159ca565b80156127655780601f1061273a57610100808354040283529160200191612765565b820191906000526020600020905b81548152906001019060200180831161274857829003601f168201915b505050505081526020016004820160009054906101000a900473ffffffffffffffffffffffffffffffffffffffff1673ffffffffffffffffffffffffffffffffffffffff1673ffffffffffffffffffffffffffffffffffffffff1681526020016005820160009054906101000a900473ffffffffffffffffffffffffffffffffffffffff1673ffffffffffffffffffffffffffffffffffffffff1673ffffffffffffffffffffffffffffffffffffffff16815250509050612826600b612e34565b85111580156128385750848160000151145b612877576040517f08c379a000000000000000000000000000000000000000000000000000000000815260040161286e906152c7565b60405180910390fd5b60008214156128bb576040517f08c379a00000000000000000000000000000000000000000000000000000000081526004016128b290615167565b60405180910390fd5b7f29068e38d8360ca5d5c3848d40198d6d697f84e66d36b7f99249ccdc4fc79cf9858585856040516128f0949392919061550c565b60405180910390a15050505050565b606061290a82612d07565b612949576040517f08c379a000000000000000000000000000000000000000000000000000000000815260040161294090615327565b60405180910390fd5b6000600660008481526020019081526020016000208054612969906159ca565b80601f0160208091040260200160405190810160405280929190818152602001828054612995906159ca565b80156129e25780601f106129b7576101008083540402835291602001916129e2565b820191906000526020600020905b8154815290600101906020018083116129c557829003601f168201915b5050505050905060006129f3613565565b9050600081511415612a09578192505050612a4c565b600082511115612a3e578082604051602001612a26929190614efd565b60405160208183030381529060405292505050612a4c565b612a478461357c565b925050505b919050565b60085481565b60095481565b6000600560008473ffffffffffffffffffffffffffffffffffffffff1673ffffffffffffffffffffffffffffffffffffffff16815260200190815260200160002060008373ffffffffffffffffffffffffffffffffffffffff1673ffffffffffffffffffffffffffffffffffffffff16815260200190815260200160002060009054906101000a900460ff16905092915050565b612af9612d73565b73ffffffffffffffffffffffffffffffffffffffff16612b17611e68565b73ffffffffffffffffffffffffffffffffffffffff1614612b6d576040517f08c379a0000000000000000000000000000000000000000000000000000000008152600401612b6490615367565b60405180910390fd5b600073ffffffffffffffffffffffffffffffffffffffff168173ffffffffffffffffffffffffffffffffffffffff161415612bdd576040517f08c379a0000000000000000000000000000000000000000000000000000000008152600401612bd4906150a7565b60405180910390fd5b8073ffffffffffffffffffffffffffffffffffffffff16600760009054906101000a900473ffffffffffffffffffffffffffffffffffffffff1673ffffffffffffffffffffffffffffffffffffffff167f8be0079c531659141344cd1fd0a4f28419497f9722a3daafe3b4186f6b6457e060405160405180910390a380600760006101000a81548173ffffffffffffffffffffffffffffffffffffffff021916908373ffffffffffffffffffffffffffffffffffffffff16021790555050565b60007f01ffc9a7000000000000000000000000000000000000000000000000000000007bffffffffffffffffffffffffffffffffffffffffffffffffffffffff1916827bffffffffffffffffffffffffffffffffffffffffffffffffffffffff1916149050919050565b60008073ffffffffffffffffffffffffffffffffffffffff166002600084815260200190815260200160002060009054906101000a900473ffffffffffffffffffffffffffffffffffffffff1673ffffffffffffffffffffffffffffffffffffffff1614159050919050565b600033905090565b816004600083815260200190815260200160002060006101000a81548173ffffffffffffffffffffffffffffffffffffffff021916908373ffffffffffffffffffffffffffffffffffffffff160217905550808273ffffffffffffffffffffffffffffffffffffffff16612dee836118f8565b73ffffffffffffffffffffffffffffffffffffffff167f8c5be1e5ebec7d5bd14f71427d1e84f3dd0314c0f7b2291e5b200ac8c7c3b92560405160405180910390a45050565b600081600001549050919050565b60003073ffffffffffffffffffffffffffffffffffffffff16632ef6ea7a846040518263ffffffff1660e01b8152600401612e7d9190615467565b60006040518083038186803b158015612e9557600080fd5b505afa158015612ea9573d6000803e3d6000fd5b505050506040513d6000823e3d601f19601f82011682018060405250810190612ed29190614088565b905060005b815181101561306f578473ffffffffffffffffffffffffffffffffffffffff16828281518110612f30577f4e487b7100000000000000000000000000000000000000000000000000000000600052603260045260246000fd5b60200260200101516080015173ffffffffffffffffffffffffffffffffffffffff16148015612fa2575082828281518110612f94577f4e487b7100000000000000000000000000000000000000000000000000000000600052603260045260246000fd5b602002602001015160400151105b8061301d57508473ffffffffffffffffffffffffffffffffffffffff16828281518110612ff8577f4e487b7100000000000000000000000000000000000000000000000000000000600052603260045260246000fd5b60200260200101516080015173ffffffffffffffffffffffffffffffffffffffff1614155b61305c576040517f08c379a0000000000000000000000000000000000000000000000000000000008152600401613053906152e7565b60405180910390fd5b8080613067906159fc565b915050612ed7565b5050505050565b7fc7b16f0c91d6e099a9fb831632a80052954f1f27b4c358262703709988e6985682826040516130a7929190614f73565b60405180910390a18173ffffffffffffffffffffffffffffffffffffffff166108fc829081150290604051600060405180830381858888f19350505050613123576040517f08c379a000000000000000000000000000000000000000000000000000000000815260040161311a90615127565b60405180910390fd5b5050565b600061313282612d07565b613171576040517f08c379a0000000000000000000000000000000000000000000000000000000008152600401613168906151c7565b60405180910390fd5b600061317c836118f8565b90508073ffffffffffffffffffffffffffffffffffffffff168473ffffffffffffffffffffffffffffffffffffffff1614806131eb57508373ffffffffffffffffffffffffffffffffffffffff166131d3846107bb565b73ffffffffffffffffffffffffffffffffffffffff16145b806131fc57506131fb8185612a5d565b5b91505092915050565b8273ffffffffffffffffffffffffffffffffffffffff16613225826118f8565b73ffffffffffffffffffffffffffffffffffffffff161461327b576040517f08c379a000000000000000000000000000000000000000000000000000000000815260040161327290615387565b60405180910390fd5b600073ffffffffffffffffffffffffffffffffffffffff168273ffffffffffffffffffffffffffffffffffffffff1614156132eb576040517f08c379a00000000000000000000000000000000000000000000000000000000081526004016132e290615187565b60405180910390fd5b6132f6838383613623565b613301600082612d7b565b6001600360008573ffffffffffffffffffffffffffffffffffffffff1673ffffffffffffffffffffffffffffffffffffffff1681526020019081526020016000206000828254613351919061588e565b925050819055506001600360008473ffffffffffffffffffffffffffffffffffffffff1673ffffffffffffffffffffffffffffffffffffffff16815260200190815260200160002060008282546133a891906157ad565b92505081905550816002600083815260200190815260200160002060006101000a81548173ffffffffffffffffffffffffffffffffffffffff021916908373ffffffffffffffffffffffffffffffffffffffff160217905550808273ffffffffffffffffffffffffffffffffffffffff168473ffffffffffffffffffffffffffffffffffffffff167fddf252ad1be2c89b69c2b068fc378daa952ba7f163c4a11628f55a4df523b3ef60405160405180910390a4505050565b6001816000016000828254019250508190555050565b613491828260405180602001604052806000815250613628565b5050565b61349e82612d07565b6134dd576040517f08c379a00000000000000000000000000000000000000000000000000000000081526004016134d4906152a7565b60405180910390fd5b80600660008481526020019081526020016000209080519060200190613504929190613ba8565b505050565b613514848484613205565b61352084848484613683565b61355f576040517f08c379a000000000000000000000000000000000000000000000000000000000815260040161355690615087565b60405180910390fd5b50505050565b606060405180602001604052806000815250905090565b606061358782612d07565b6135c6576040517f08c379a00000000000000000000000000000000000000000000000000000000081526004016135bd906153a7565b60405180910390fd5b60006135d0613565565b905060008151116135f0576040518060200160405280600081525061361b565b806135fa8461381a565b60405160200161360b929190614efd565b6040516020818303038152906040525b915050919050565b505050565b61363283836139c7565b61363f6000848484613683565b61367e576040517f08c379a000000000000000000000000000000000000000000000000000000000815260040161367590615087565b60405180910390fd5b505050565b60006136a48473ffffffffffffffffffffffffffffffffffffffff16613b95565b1561380d578373ffffffffffffffffffffffffffffffffffffffff1663150b7a026136cd612d73565b8786866040518563ffffffff1660e01b81526004016136ef9493929190614f9c565b602060405180830381600087803b15801561370957600080fd5b505af192505050801561373a57506040513d601f19601f8201168201806040525081019061373791906140f2565b60015b6137bd573d806000811461376a576040519150601f19603f3d011682016040523d82523d6000602084013e61376f565b606091505b506000815114156137b5576040517f08c379a00000000000000000000000000000000000000000000000000000000081526004016137ac90615087565b60405180910390fd5b805181602001fd5b63150b7a0260e01b7bffffffffffffffffffffffffffffffffffffffffffffffffffffffff1916817bffffffffffffffffffffffffffffffffffffffffffffffffffffffff191614915050613812565b600190505b949350505050565b60606000821415613862576040518060400160405280600181526020017f300000000000000000000000000000000000000000000000000000000000000081525090506139c2565b600082905060005b6000821461389457808061387d906159fc565b915050600a8261388d9190615803565b915061386a565b60008167ffffffffffffffff8111156138d6577f4e487b7100000000000000000000000000000000000000000000000000000000600052604160045260246000fd5b6040519080825280601f01601f1916602001820160405280156139085781602001600182028036833780820191505090505b5090505b600085146139bb57600182613921919061588e565b9150600a856139309190615a45565b603061393c91906157ad565b60f81b818381518110613978577f4e487b7100000000000000000000000000000000000000000000000000000000600052603260045260246000fd5b60200101907effffffffffffffffffffffffffffffffffffffffffffffffffffffffffffff1916908160001a905350600a856139b49190615803565b945061390c565b8093505050505b919050565b600073ffffffffffffffffffffffffffffffffffffffff168273ffffffffffffffffffffffffffffffffffffffff161415613a37576040517f08c379a0000000000000000000000000000000000000000000000000000000008152600401613a2e90615307565b60405180910390fd5b613a4081612d07565b15613a80576040517f08c379a0000000000000000000000000000000000000000000000000000000008152600401613a77906150c7565b60405180910390fd5b613a8c60008383613623565b6001600360008473ffffffffffffffffffffffffffffffffffffffff1673ffffffffffffffffffffffffffffffffffffffff1681526020019081526020016000206000828254613adc91906157ad565b92505081905550816002600083815260200190815260200160002060006101000a81548173ffffffffffffffffffffffffffffffffffffffff021916908373ffffffffffffffffffffffffffffffffffffffff160217905550808273ffffffffffffffffffffffffffffffffffffffff16600073ffffffffffffffffffffffffffffffffffffffff167fddf252ad1be2c89b69c2b068fc378daa952ba7f163c4a11628f55a4df523b3ef60405160405180910390a45050565b600080823b905060008111915050919050565b828054613bb4906159ca565b90600052602060002090601f016020900481019282613bd65760008555613c1d565b82601f10613bef57805160ff1916838001178555613c1d565b82800160010185558215613c1d579182015b82811115613c1c578251825591602001919060010190613c01565b5b509050613c2a9190613c2e565b5090565b5b80821115613c47576000816000905550600101613c2f565b5090565b6000613c5e613c59846156a5565b615674565b905080838252602082019050828560a0860282011115613c7d57600080fd5b60005b85811015613cad5781613c938882613e2f565b845260208401935060a08301925050600181019050613c80565b5050509392505050565b6000613cca613cc5846156d1565b615674565b905082815260208101848484011115613ce257600080fd5b613ced848285615988565b509392505050565b6000613d08613d0384615701565b615674565b905082815260208101848484011115613d2057600080fd5b613d2b848285615988565b509392505050565b600081359050613d4281615b43565b92915050565b600081519050613d5781615b43565b92915050565b600082601f830112613d6e57600080fd5b8151613d7e848260208601613c4b565b91505092915050565b600081359050613d9681615b5a565b92915050565b600081359050613dab81615b71565b92915050565b600081359050613dc081615b88565b92915050565b600081519050613dd581615b88565b92915050565b600082601f830112613dec57600080fd5b8135613dfc848260208601613cb7565b91505092915050565b600082601f830112613e1657600080fd5b8135613e26848260208601613cf5565b91505092915050565b600060a08284031215613e4157600080fd5b613e4b60a0615674565b90506000613e5b84828501613ecc565b6000830152506020613e6f84828501613ecc565b6020830152506040613e8384828501613ecc565b6040830152506060613e9784828501613ecc565b6060830152506080613eab84828501613d48565b60808301525092915050565b600081359050613ec681615b9f565b92915050565b600081519050613edb81615b9f565b92915050565b600060208284031215613ef357600080fd5b6000613f0184828501613d33565b91505092915050565b60008060408385031215613f1d57600080fd5b6000613f2b85828601613d33565b9250506020613f3c85828601613d33565b9150509250929050565b600080600060608486031215613f5b57600080fd5b6000613f6986828701613d33565b9350506020613f7a86828701613d33565b9250506040613f8b86828701613eb7565b9150509250925092565b60008060008060808587031215613fab57600080fd5b6000613fb987828801613d33565b9450506020613fca87828801613d33565b9350506040613fdb87828801613eb7565b925050606085013567ffffffffffffffff811115613ff857600080fd5b61400487828801613ddb565b91505092959194509250565b6000806040838503121561402357600080fd5b600061403185828601613d33565b925050602061404285828601613d87565b9150509250929050565b6000806040838503121561405f57600080fd5b600061406d85828601613d33565b925050602061407e85828601613eb7565b9150509250929050565b60006020828403121561409a57600080fd5b600082015167ffffffffffffffff8111156140b457600080fd5b6140c084828501613d5d565b91505092915050565b6000602082840312156140db57600080fd5b60006140e984828501613db1565b91505092915050565b60006020828403121561410457600080fd5b600061411284828501613dc6565b91505092915050565b60008060006060848603121561413057600080fd5b600084013567ffffffffffffffff81111561414a57600080fd5b61415686828701613e05565b935050602061416786828701613eb7565b925050604061417886828701613eb7565b9150509250925092565b60006020828403121561419457600080fd5b60006141a284828501613eb7565b91505092915050565b600080604083850312156141be57600080fd5b60006141cc85828601613eb7565b92505060206141dd85828601613eb7565b9150509250929050565b6000806000606084860312156141fc57600080fd5b600061420a86828701613eb7565b935050602061421b86828701613eb7565b925050604061422c86828701613eb7565b9150509250925092565b6000806000806080858703121561424c57600080fd5b600061425a87828801613eb7565b945050602061426b87828801613eb7565b935050604061427c87828801613eb7565b925050606061428d87828801613d9c565b91505092959194509250565b60006142a58383614e60565b60a08301905092915050565b6142ba81615952565b82525050565b6142c9816158d4565b82525050565b6142d8816158c2565b82525050565b6142e7816158c2565b82525050565b60006142f882615741565b614302818561576f565b935061430d83615731565b8060005b8381101561433e5781516143258882614299565b975061433083615762565b925050600181019050614311565b5085935050505092915050565b614354816158e6565b82525050565b614363816158f2565b82525050565b60006143748261574c565b61437e8185615780565b935061438e818560208601615997565b61439781615b32565b840191505092915050565b60006143ad82615757565b6143b78185615791565b93506143c7818560208601615997565b6143d081615b32565b840191505092915050565b60006143e682615757565b6143f081856157a2565b9350614400818560208601615997565b80840191505092915050565b6000614419601583615791565b91507f494e56414c49442d53454c4c494e472d505249434500000000000000000000006000830152602082019050919050565b6000614459601083615791565b91507f494e56414c49442d4455524154494f4e000000000000000000000000000000006000830152602082019050919050565b6000614499603283615791565b91507f4552433732313a207472616e7366657220746f206e6f6e20455243373231526560008301527f63656976657220696d706c656d656e74657200000000000000000000000000006020830152604082019050919050565b60006144ff602683615791565b91507f4f776e61626c653a206e6577206f776e657220697320746865207a65726f206160008301527f64647265737300000000000000000000000000000000000000000000000000006020830152604082019050919050565b6000614565601c83615791565b91507f4552433732313a20746f6b656e20616c7265616479206d696e746564000000006000830152602082019050919050565b60006145a5601683615791565b91507f494e56414c49442d53454c4c494e472d555044415445000000000000000000006000830152602082019050919050565b60006145e5601983615791565b91507f494e56414c49442d4c4943454e5341424c452d555044415445000000000000006000830152602082019050919050565b6000614625600d83615791565b91507f5041594d454e542d4552524f52000000000000000000000000000000000000006000830152602082019050919050565b6000614665600d83615791565b91507f414c52454144592d4f574e4552000000000000000000000000000000000000006000830152602082019050919050565b60006146a5601183615791565b91507f494e56414c49442d444154412d484153480000000000000000000000000000006000830152602082019050919050565b60006146e5602483615791565b91507f4552433732313a207472616e7366657220746f20746865207a65726f2061646460008301527f72657373000000000000000000000000000000000000000000000000000000006020830152604082019050919050565b600061474b601983615791565b91507f4552433732313a20617070726f766520746f2063616c6c6572000000000000006000830152602082019050919050565b600061478b602c83615791565b91507f4552433732313a206f70657261746f7220717565727920666f72206e6f6e657860008301527f697374656e7420746f6b656e00000000000000000000000000000000000000006020830152604082019050919050565b60006147f1600983615791565b91507f4e4f542d4f574e455200000000000000000000000000000000000000000000006000830152602082019050919050565b6000614831600f83615791565b91507f494e56414c49442d5041594d454e5400000000000000000000000000000000006000830152602082019050919050565b6000614871601583615791565b91507f494e56414c49442d4c4943454e53452d505249434500000000000000000000006000830152602082019050919050565b60006148b1603883615791565b91507f4552433732313a20617070726f76652063616c6c6572206973206e6f74206f7760008301527f6e6572206e6f7220617070726f76656420666f7220616c6c00000000000000006020830152604082019050919050565b6000614917602a83615791565b91507f4552433732313a2062616c616e636520717565727920666f7220746865207a6560008301527f726f2061646472657373000000000000000000000000000000000000000000006020830152604082019050919050565b600061497d602983615791565b91507f4552433732313a206f776e657220717565727920666f72206e6f6e657869737460008301527f656e7420746f6b656e00000000000000000000000000000000000000000000006020830152604082019050919050565b60006149e3602e83615791565b91507f45524337323155524953746f726167653a2055524920736574206f66206e6f6e60008301527f6578697374656e7420746f6b656e0000000000000000000000000000000000006020830152604082019050919050565b6000614a49601083615791565b91507f494e56414c49442d544f4b454e2d4944000000000000000000000000000000006000830152602082019050919050565b6000614a89601083615791565b91507f414c52454144592d4c4943454e534544000000000000000000000000000000006000830152602082019050919050565b6000614ac9602083615791565b91507f4552433732313a206d696e7420746f20746865207a65726f20616464726573736000830152602082019050919050565b6000614b09603183615791565b91507f45524337323155524953746f726167653a2055524920717565727920666f722060008301527f6e6f6e6578697374656e7420746f6b656e0000000000000000000000000000006020830152604082019050919050565b6000614b6f602c83615791565b91507f4552433732313a20617070726f76656420717565727920666f72206e6f6e657860008301527f697374656e7420746f6b656e00000000000000000000000000000000000000006020830152604082019050919050565b6000614bd5602083615791565b91507f4f776e61626c653a2063616c6c6572206973206e6f7420746865206f776e65726000830152602082019050919050565b6000614c15602983615791565b91507f4552433732313a207472616e73666572206f6620746f6b656e2074686174206960008301527f73206e6f74206f776e00000000000000000000000000000000000000000000006020830152604082019050919050565b6000614c7b602f83615791565b91507f4552433732314d657461646174613a2055524920717565727920666f72206e6f60008301527f6e6578697374656e7420746f6b656e00000000000000000000000000000000006020830152604082019050919050565b6000614ce1602183615791565b91507f4552433732313a20617070726f76616c20746f2063757272656e74206f776e6560008301527f72000000000000000000000000000000000000000000000000000000000000006020830152604082019050919050565b6000614d47600e83615791565b91507f414c52454144592d4d494e5445440000000000000000000000000000000000006000830152602082019050919050565b6000614d87603183615791565b91507f4552433732313a207472616e736665722063616c6c6572206973206e6f74206f60008301527f776e6572206e6f7220617070726f7665640000000000000000000000000000006020830152604082019050919050565b6000614ded600c83615791565b91507f4e4f542d464f522d53414c4500000000000000000000000000000000000000006000830152602082019050919050565b6000614e2d600e83615791565b91507f4e4f542d4c4943454e5341424c450000000000000000000000000000000000006000830152602082019050919050565b60a082016000820151614e766000850182614ec8565b506020820151614e896020850182614ec8565b506040820151614e9c6040850182614ec8565b506060820151614eaf6060850182614ec8565b506080820151614ec260808501826142cf565b50505050565b614ed181615948565b82525050565b614ee081615948565b82525050565b6000614ef282846143db565b915081905092915050565b6000614f0982856143db565b9150614f1582846143db565b91508190509392505050565b6000602082019050614f3660008301846142de565b92915050565b6000606082019050614f5160008301866142b1565b614f5e60208301856142de565b614f6b6040830184614ed7565b949350505050565b6000604082019050614f8860008301856142c0565b614f956020830184614ed7565b9392505050565b6000608082019050614fb160008301876142de565b614fbe60208301866142de565b614fcb6040830185614ed7565b8181036060830152614fdd8184614369565b905095945050505050565b6000602082019050818103600083015261500281846142ed565b905092915050565b600060208201905061501f600083018461434b565b92915050565b6000602082019050818103600083015261503f81846143a2565b905092915050565b600060208201905081810360008301526150608161440c565b9050919050565b600060208201905081810360008301526150808161444c565b9050919050565b600060208201905081810360008301526150a08161448c565b9050919050565b600060208201905081810360008301526150c0816144f2565b9050919050565b600060208201905081810360008301526150e081614558565b9050919050565b6000602082019050818103600083015261510081614598565b9050919050565b60006020820190508181036000830152615120816145d8565b9050919050565b6000602082019050818103600083015261514081614618565b9050919050565b6000602082019050818103600083015261516081614658565b9050919050565b6000602082019050818103600083015261518081614698565b9050919050565b600060208201905081810360008301526151a0816146d8565b9050919050565b600060208201905081810360008301526151c08161473e565b9050919050565b600060208201905081810360008301526151e08161477e565b9050919050565b60006020820190508181036000830152615200816147e4565b9050919050565b6000602082019050818103600083015261522081614824565b9050919050565b6000602082019050818103600083015261524081614864565b9050919050565b60006020820190508181036000830152615260816148a4565b9050919050565b600060208201905081810360008301526152808161490a565b9050919050565b600060208201905081810360008301526152a081614970565b9050919050565b600060208201905081810360008301526152c0816149d6565b9050919050565b600060208201905081810360008301526152e081614a3c565b9050919050565b6000602082019050818103600083015261530081614a7c565b9050919050565b6000602082019050818103600083015261532081614abc565b9050919050565b6000602082019050818103600083015261534081614afc565b9050919050565b6000602082019050818103600083015261536081614b62565b9050919050565b6000602082019050818103600083015261538081614bc8565b9050919050565b600060208201905081810360008301526153a081614c08565b9050919050565b600060208201905081810360008301526153c081614c6e565b9050919050565b600060208201905081810360008301526153e081614cd4565b9050919050565b6000602082019050818103600083015261540081614d3a565b9050919050565b6000602082019050818103600083015261542081614d7a565b9050919050565b6000602082019050818103600083015261544081614de0565b9050919050565b6000602082019050818103600083015261546081614e20565b9050919050565b600060208201905061547c6000830184614ed7565b92915050565b600060a0820190506154976000830188614ed7565b6154a460208301876142b1565b6154b160408301866142de565b6154be6060830185614ed7565b6154cb6080830184614ed7565b9695505050505050565b60006060820190506154ea6000830186614ed7565b6154f76020830185614ed7565b6155046040830184614ed7565b949350505050565b60006080820190506155216000830187614ed7565b61552e6020830186614ed7565b61553b6040830185614ed7565b615548606083018461435a565b95945050505050565b600060a0820190506155666000830188614ed7565b6155736020830187614ed7565b6155806040830186614ed7565b818103606083015261559281856143a2565b90506155a160808301846142de565b9695505050505050565b600060c0820190506155c06000830189614ed7565b6155cd6020830188614ed7565b6155da6040830187614ed7565b81810360608301526155ec81866143a2565b90506155fb60808301856142c0565b61560860a08301846142c0565b979650505050505050565b600060c0820190506156286000830189614ed7565b6156356020830188614ed7565b6156426040830187614ed7565b61564f6060830186614ed7565b61565c60808301856142c0565b61566960a0830184614ed7565b979650505050505050565b6000604051905081810181811067ffffffffffffffff8211171561569b5761569a615b03565b5b8060405250919050565b600067ffffffffffffffff8211156156c0576156bf615b03565b5b602082029050602081019050919050565b600067ffffffffffffffff8211156156ec576156eb615b03565b5b601f19601f8301169050602081019050919050565b600067ffffffffffffffff82111561571c5761571b615b03565b5b601f19601f8301169050602081019050919050565b6000819050602082019050919050565b600081519050919050565b600081519050919050565b600081519050919050565b6000602082019050919050565b600082825260208201905092915050565b600082825260208201905092915050565b600082825260208201905092915050565b600081905092915050565b60006157b882615948565b91506157c383615948565b9250827fffffffffffffffffffffffffffffffffffffffffffffffffffffffffffffffff038211156157f8576157f7615a76565b5b828201905092915050565b600061580e82615948565b915061581983615948565b92508261582957615828615aa5565b5b828204905092915050565b600061583f82615948565b915061584a83615948565b9250817fffffffffffffffffffffffffffffffffffffffffffffffffffffffffffffffff048311821515161561588357615882615a76565b5b828202905092915050565b600061589982615948565b91506158a483615948565b9250828210156158b7576158b6615a76565b5b828203905092915050565b60006158cd82615928565b9050919050565b60006158df82615928565b9050919050565b60008115159050919050565b6000819050919050565b60007fffffffff0000000000000000000000000000000000000000000000000000000082169050919050565b600073ffffffffffffffffffffffffffffffffffffffff82169050919050565b6000819050919050565b600061595d82615964565b9050919050565b600061596f82615976565b9050919050565b600061598182615928565b9050919050565b82818337600083830152505050565b60005b838110156159b557808201518184015260208101905061599a565b838111156159c4576000848401525b50505050565b600060028204905060018216806159e257607f821691505b602082108114156159f6576159f5615ad4565b5b50919050565b6000615a0782615948565b91507fffffffffffffffffffffffffffffffffffffffffffffffffffffffffffffffff821415615a3a57615a39615a76565b5b600182019050919050565b6000615a5082615948565b9150615a5b83615948565b925082615a6b57615a6a615aa5565b5b828206905092915050565b7f4e487b7100000000000000000000000000000000000000000000000000000000600052601160045260246000fd5b7f4e487b7100000000000000000000000000000000000000000000000000000000600052601260045260246000fd5b7f4e487b7100000000000000000000000000000000000000000000000000000000600052602260045260246000fd5b7f4e487b7100000000000000000000000000000000000000000000000000000000600052604160045260246000fd5b6000601f19601f8301169050919050565b615b4c816158c2565b8114615b5757600080fd5b50565b615b63816158e6565b8114615b6e57600080fd5b50565b615b7a816158f2565b8114615b8557600080fd5b50565b615b91816158fc565b8114615b9c57600080fd5b50565b615ba881615948565b8114615bb357600080fd5b5056fea2646970667358221220af8d4fb12728b039c185ca5848b8112b71a642d649d547d5dc465aae4344bca864736f6c63430008000033",
  "linkReferences": {},
  "deployedLinkReferences": {}
}