{
  "_format": "hh-sol-artifact-1",
  "contractName": "DigitalArt",
  "sourceName": "contracts/DigitalArt.sol",
  "abi": [
    {
      "inputs": [],
      "stateMutability": "nonpayable",
      "type": "constructor"
    },
    {
      "anonymous": false,
      "inputs": [
        {
          "indexed": true,
          "internalType": "address",
          "name": "owner",
          "type": "address"
        },
        {
          "indexed": true,
          "internalType": "address",
          "name": "approved",
          "type": "address"
        },
        {
          "indexed": true,
          "internalType": "uint256",
          "name": "tokenId",
          "type": "uint256"
        }
      ],
      "name": "Approval",
      "type": "event"
    },
    {
      "anonymous": false,
      "inputs": [
        {
          "indexed": true,
          "internalType": "address",
          "name": "owner",
          "type": "address"
        },
        {
          "indexed": true,
          "internalType": "address",
          "name": "operator",
          "type": "address"
        },
        {
          "indexed": false,
          "internalType": "bool",
          "name": "approved",
          "type": "bool"
        }
      ],
      "name": "ApprovalForAll",
      "type": "event"
    },
    {
      "anonymous": false,
      "inputs": [
        {
          "indexed": false,
          "internalType": "uint256",
          "name": "tokenId",
          "type": "uint256"
        },
        {
          "indexed": false,
          "internalType": "uint256",
          "name": "oldDailyLicensePrice",
          "type": "uint256"
        },
        {
          "indexed": false,
          "internalType": "uint256",
          "name": "newDailyLicensePrice",
          "type": "uint256"
        }
      ],
      "name": "DailyLicensePriceUpdated",
      "type": "event"
    },
    {
      "anonymous": false,
      "inputs": [
        {
          "indexed": false,
          "internalType": "uint256",
          "name": "tokenId",
          "type": "uint256"
        },
        {
          "indexed": false,
          "internalType": "uint256",
          "name": "timestamp",
          "type": "uint256"
        },
        {
          "indexed": false,
          "internalType": "bytes32",
          "name": "infringmentAttemptsHash",
          "type": "bytes32"
        }
      ],
      "name": "InfringmentAttemptsRecorded",
      "type": "event"
    },
    {
      "anonymous": false,
      "inputs": [
        {
          "indexed": false,
          "internalType": "uint256",
          "name": "tokenId",
          "type": "uint256"
        },
        {
          "indexed": false,
          "internalType": "uint256",
          "name": "durationInDays",
          "type": "uint256"
        },
        {
          "indexed": false,
          "internalType": "uint256",
          "name": "price",
          "type": "uint256"
        },
        {
          "indexed": false,
          "internalType": "uint256",
          "name": "endDateInMillis",
          "type": "uint256"
        },
        {
          "indexed": false,
          "internalType": "address payable",
          "name": "sender",
          "type": "address"
        },
        {
          "indexed": false,
          "internalType": "uint256",
          "name": "timestamp",
          "type": "uint256"
        }
      ],
      "name": "LicensePurchased",
      "type": "event"
    },
    {
      "anonymous": false,
      "inputs": [
        {
          "indexed": true,
          "internalType": "address",
          "name": "previousOwner",
          "type": "address"
        },
        {
          "indexed": true,
          "internalType": "address",
          "name": "newOwner",
          "type": "address"
        }
      ],
      "name": "OwnershipTransferred",
      "type": "event"
    },
    {
      "anonymous": false,
      "inputs": [
        {
          "indexed": false,
          "internalType": "address payable",
          "name": "to",
          "type": "address"
        },
        {
          "indexed": false,
          "internalType": "uint256",
          "name": "amount",
          "type": "uint256"
        }
      ],
      "name": "PaymentExecuted",
      "type": "event"
    },
    {
      "anonymous": false,
      "inputs": [
        {
          "indexed": false,
          "internalType": "uint256",
          "name": "tokenId",
          "type": "uint256"
        },
        {
          "indexed": false,
          "internalType": "uint256",
          "name": "oldSellingPrice",
          "type": "uint256"
        },
        {
          "indexed": false,
          "internalType": "uint256",
          "name": "newSellingPrice",
          "type": "uint256"
        }
      ],
      "name": "SellingPriceUpdated",
      "type": "event"
    },
    {
      "anonymous": false,
      "inputs": [
        {
          "indexed": false,
          "internalType": "uint256",
          "name": "tokenId",
          "type": "uint256"
        },
        {
          "indexed": false,
          "internalType": "uint256",
          "name": "sellingPrice",
          "type": "uint256"
        },
        {
          "indexed": false,
          "internalType": "uint256",
          "name": "dailyLicensePrice",
          "type": "uint256"
        },
        {
          "indexed": false,
          "internalType": "string",
          "name": "tokenURI",
          "type": "string"
        },
        {
          "indexed": false,
          "internalType": "address",
          "name": "owner",
          "type": "address"
        }
      ],
      "name": "TokenMinted",
      "type": "event"
    },
    {
      "anonymous": false,
      "inputs": [
        {
          "indexed": false,
          "internalType": "uint256",
          "name": "tokenId",
          "type": "uint256"
        },
        {
          "indexed": false,
          "internalType": "address",
          "name": "oldOwner",
          "type": "address"
        },
        {
          "indexed": false,
          "internalType": "address",
          "name": "newOwner",
          "type": "address"
        },
        {
          "indexed": false,
          "internalType": "uint256",
          "name": "price",
          "type": "uint256"
        },
        {
          "indexed": false,
          "internalType": "uint256",
          "name": "timestamp",
          "type": "uint256"
        }
      ],
      "name": "TokenPurchased",
      "type": "event"
    },
    {
      "anonymous": false,
      "inputs": [
        {
          "indexed": true,
          "internalType": "address",
          "name": "from",
          "type": "address"
        },
        {
          "indexed": true,
          "internalType": "address",
          "name": "to",
          "type": "address"
        },
        {
          "indexed": true,
          "internalType": "uint256",
          "name": "tokenId",
          "type": "uint256"
        }
      ],
      "name": "Transfer",
      "type": "event"
    },
    {
      "inputs": [
        {
          "internalType": "address",
          "name": "to",
          "type": "address"
        },
        {
          "internalType": "uint256",
          "name": "tokenId",
          "type": "uint256"
        }
      ],
      "name": "approve",
      "outputs": [],
      "stateMutability": "nonpayable",
      "type": "function"
    },
    {
      "inputs": [],
      "name": "artistLicenseRoyalty",
      "outputs": [
        {
          "internalType": "uint256",
          "name": "",
          "type": "uint256"
        }
      ],
      "stateMutability": "view",
      "type": "function"
    },
    {
      "inputs": [],
      "name": "artistResellingRoyalty",
      "outputs": [
        {
          "internalType": "uint256",
          "name": "",
          "type": "uint256"
        }
      ],
      "stateMutability": "view",
      "type": "function"
    },
    {
      "inputs": [
        {
          "internalType": "address",
          "name": "owner",
          "type": "address"
        }
      ],
      "name": "balanceOf",
      "outputs": [
        {
          "internalType": "uint256",
          "name": "",
          "type": "uint256"
        }
      ],
      "stateMutability": "view",
      "type": "function"
    },
    {
      "inputs": [
        {
          "internalType": "uint256",
          "name": "_tokenId",
          "type": "uint256"
        }
      ],
      "name": "getAllLicensesForToken",
      "outputs": [
        {
          "components": [
            {
              "internalType": "uint256",
              "name": "tokenId",
              "type": "uint256"
            },
            {
              "internalType": "uint256",
              "name": "start",
              "type": "uint256"
            },
            {
              "internalType": "uint256",
              "name": "end",
              "type": "uint256"
            },
            {
              "internalType": "uint256",
              "name": "price",
              "type": "uint256"
            },
            {
              "internalType": "address",
              "name": "recipient",
              "type": "address"
            }
          ],
          "internalType": "struct DigitalArt.License[]",
          "name": "_licenses",
          "type": "tuple[]"
        }
      ],
      "stateMutability": "view",
      "type": "function"
    },
    {
      "inputs": [
        {
          "internalType": "uint256",
          "name": "tokenId",
          "type": "uint256"
        }
      ],
      "name": "getApproved",
      "outputs": [
        {
          "internalType": "address",
          "name": "",
          "type": "address"
        }
      ],
      "stateMutability": "view",
      "type": "function"
    },
    {
      "inputs": [
        {
          "internalType": "uint256",
          "name": "",
          "type": "uint256"
        }
      ],
      "name": "idToNFT",
      "outputs": [
        {
          "internalType": "uint256",
          "name": "id",
          "type": "uint256"
        },
        {
          "internalType": "uint256",
          "name": "sellingPrice",
          "type": "uint256"
        },
        {
          "internalType": "uint256",
          "name": "dailyLicensePrice",
          "type": "uint256"
        },
        {
          "internalType": "string",
          "name": "uri",
          "type": "string"
        },
        {
          "internalType": "address payable",
          "name": "artist",
          "type": "address"
        },
        {
          "internalType": "address payable",
          "name": "owner",
          "type": "address"
        }
      ],
      "stateMutability": "view",
      "type": "function"
    },
    {
      "inputs": [
        {
          "internalType": "address",
          "name": "owner",
          "type": "address"
        },
        {
          "internalType": "address",
          "name": "operator",
          "type": "address"
        }
      ],
      "name": "isApprovedForAll",
      "outputs": [
        {
          "internalType": "bool",
          "name": "",
          "type": "bool"
        }
      ],
      "stateMutability": "view",
      "type": "function"
    },
    {
      "inputs": [],
      "name": "name",
      "outputs": [
        {
          "internalType": "string",
          "name": "",
          "type": "string"
        }
      ],
      "stateMutability": "view",
      "type": "function"
    },
    {
      "inputs": [],
      "name": "owner",
      "outputs": [
        {
          "internalType": "address",
          "name": "",
          "type": "address"
        }
      ],
      "stateMutability": "view",
      "type": "function"
    },
    {
      "inputs": [
        {
          "internalType": "uint256",
          "name": "tokenId",
          "type": "uint256"
        }
      ],
      "name": "ownerOf",
      "outputs": [
        {
          "internalType": "address",
          "name": "",
          "type": "address"
        }
      ],
      "stateMutability": "view",
      "type": "function"
    },
    {
      "inputs": [
        {
          "internalType": "uint256",
          "name": "_tokenId",
          "type": "uint256"
        },
        {
          "internalType": "uint256",
          "name": "_days",
          "type": "uint256"
        },
        {
          "internalType": "uint256",
          "name": "_timestamp",
          "type": "uint256"
        }
      ],
      "name": "purchaseLicense",
      "outputs": [],
      "stateMutability": "payable",
      "type": "function"
    },
    {
      "inputs": [
        {
          "internalType": "uint256",
          "name": "_tokenId",
          "type": "uint256"
        },
        {
          "internalType": "uint256",
          "name": "_timestamp",
          "type": "uint256"
        }
      ],
      "name": "purchaseNFT",
      "outputs": [],
      "stateMutability": "payable",
      "type": "function"
    },
    {
      "inputs": [
        {
          "internalType": "uint256",
          "name": "_tokenId",
          "type": "uint256"
        },
        {
          "internalType": "uint256",
          "name": "_timestamp",
          "type": "uint256"
        },
        {
          "internalType": "bytes32",
          "name": "_infringmentAttemptsHash",
          "type": "bytes32"
        }
      ],
      "name": "recordIPRInfringementAttempts",
      "outputs": [],
      "stateMutability": "nonpayable",
      "type": "function"
    },
    {
      "inputs": [],
      "name": "renounceOwnership",
      "outputs": [],
      "stateMutability": "nonpayable",
      "type": "function"
    },
    {
      "inputs": [
        {
          "internalType": "string",
          "name": "_tokenURI",
          "type": "string"
        },
        {
          "internalType": "uint256",
          "name": "_sellingPrice",
          "type": "uint256"
        },
        {
          "internalType": "uint256",
          "name": "_dailyLicensePrice",
          "type": "uint256"
        }
      ],
      "name": "safeMint",
      "outputs": [
        {
          "internalType": "uint256",
          "name": "_newTokenId",
          "type": "uint256"
        }
      ],
      "stateMutability": "nonpayable",
      "type": "function"
    },
    {
      "inputs": [
        {
          "internalType": "address",
          "name": "from",
          "type": "address"
        },
        {
          "internalType": "address",
          "name": "to",
          "type": "address"
        },
        {
          "internalType": "uint256",
          "name": "tokenId",
          "type": "uint256"
        }
      ],
      "name": "safeTransferFrom",
      "outputs": [],
      "stateMutability": "nonpayable",
      "type": "function"
    },
    {
      "inputs": [
        {
          "internalType": "address",
          "name": "from",
          "type": "address"
        },
        {
          "internalType": "address",
          "name": "to",
          "type": "address"
        },
        {
          "internalType": "uint256",
          "name": "tokenId",
          "type": "uint256"
        },
        {
          "internalType": "bytes",
          "name": "_data",
          "type": "bytes"
        }
      ],
      "name": "safeTransferFrom",
      "outputs": [],
      "stateMutability": "nonpayable",
      "type": "function"
    },
    {
      "inputs": [
        {
          "internalType": "address",
          "name": "operator",
          "type": "address"
        },
        {
          "internalType": "bool",
          "name": "approved",
          "type": "bool"
        }
      ],
      "name": "setApprovalForAll",
      "outputs": [],
      "stateMutability": "nonpayable",
      "type": "function"
    },
    {
      "inputs": [
        {
          "internalType": "bytes4",
          "name": "interfaceId",
          "type": "bytes4"
        }
      ],
      "name": "supportsInterface",
      "outputs": [
        {
          "internalType": "bool",
          "name": "",
          "type": "bool"
        }
      ],
      "stateMutability": "view",
      "type": "function"
    },
    {
      "inputs": [],
      "name": "symbol",
      "outputs": [
        {
          "internalType": "string",
          "name": "",
          "type": "string"
        }
      ],
      "stateMutability": "view",
      "type": "function"
    },
    {
      "inputs": [
        {
          "internalType": "uint256",
          "name": "tokenId",
          "type": "uint256"
        }
      ],
      "name": "tokenURI",
      "outputs": [
        {
          "internalType": "string",
          "name": "",
          "type": "string"
        }
      ],
      "stateMutability": "view",
      "type": "function"
    },
    {
      "inputs": [
        {
          "internalType": "address",
          "name": "from",
          "type": "address"
        },
        {
          "internalType": "address",
          "name": "to",
          "type": "address"
        },
        {
          "internalType": "uint256",
          "name": "tokenId",
          "type": "uint256"
        }
      ],
      "name": "transferFrom",
      "outputs": [],
      "stateMutability": "nonpayable",
      "type": "function"
    },
    {
      "inputs": [
        {
          "internalType": "address",
          "name": "newOwner",
          "type": "address"
        }
      ],
      "name": "transferOwnership",
      "outputs": [],
      "stateMutability": "nonpayable",
      "type": "function"
    },
    {
      "inputs": [
        {
          "internalType": "uint256",
          "name": "_tokenId",
          "type": "uint256"
        },
        {
          "internalType": "uint256",
          "name": "_newDailyLicensePrice",
          "type": "uint256"
        }
      ],
      "name": "updateDailyLicensePrice",
      "outputs": [],
      "stateMutability": "nonpayable",
      "type": "function"
    },
    {
      "inputs": [
        {
          "internalType": "uint256",
          "name": "_tokenId",
          "type": "uint256"
        },
        {
          "internalType": "uint256",
          "name": "_newSellingPrice",
          "type": "uint256"
        }
      ],
      "name": "updateSellingPrice",
      "outputs": [],
      "stateMutability": "nonpayable",
      "type": "function"
    }
  ],
  "bytecode": "0x6080604052600760085560036009553480156200001b57600080fd5b506040518060400160405280600a81526020017f4469676974616c417274000000000000000000000000000000000000000000008152506040518060400160405280600381526020017f44415400000000000000000000000000000000000000000000000000000000008152508160009080519060200190620000a09291906200017b565b508060019080519060200190620000b99291906200017b565b5050506000620000ce6200017360201b60201c565b905080600760006101000a81548173ffffffffffffffffffffffffffffffffffffffff021916908373ffffffffffffffffffffffffffffffffffffffff1602179055508073ffffffffffffffffffffffffffffffffffffffff16600073ffffffffffffffffffffffffffffffffffffffff167f8be0079c531659141344cd1fd0a4f28419497f9722a3daafe3b4186f6b6457e060405160405180910390a35062000290565b600033905090565b82805462000189906200022b565b90600052602060002090601f016020900481019282620001ad5760008555620001f9565b82601f10620001c857805160ff1916838001178555620001f9565b82800160010185558215620001f9579182015b82811115620001f8578251825591602001919060010190620001db565b5b5090506200020891906200020c565b5090565b5b80821115620002275760008160009055506001016200020d565b5090565b600060028204905060018216806200024457607f821691505b602082108114156200025b576200025a62000261565b5b50919050565b7f4e487b7100000000000000000000000000000000000000000000000000000000600052602260045260246000fd5b615bc780620002a06000396000f3fe6080604052600436106101815760003560e01c80636e1f94e1116100d1578063ad4451a31161008a578063cd1f6ed911610064578063cd1f6ed91461058b578063d650f94c146105b6578063e985e9c5146105e1578063f2fde38b1461061e57610181565b8063ad4451a314610509578063b88d4fde14610525578063c87b56dd1461054e57610181565b80636e1f94e1146103f957806370a0823114610436578063715018a6146104735780638da5cb5b1461048a57806395d89b41146104b5578063a22cb465146104e057610181565b80632ef6ea7a1161013e578063571a2b6f11610118578063571a2b6f1461034157806361d317d31461036a5780636352211e146103935780636a5c6397146103d057610181565b80632ef6ea7a1461029957806333aa49cd146102d657806342842e0e1461031857610181565b806301ffc9a71461018657806306fdde03146101c3578063081812fc146101ee578063095ea7b31461022b5780630c7a35681461025457806323b872dd14610270575b600080fd5b34801561019257600080fd5b506101ad60048036038101906101a891906140c6565b610647565b6040516101ba9190614ff3565b60405180910390f35b3480156101cf57600080fd5b506101d8610729565b6040516101e5919061500e565b60405180910390f35b3480156101fa57600080fd5b506102156004803603810190610210919061417f565b6107bb565b6040516102229190614f0a565b60405180910390f35b34801561023757600080fd5b50610252600480360381019061024d9190614049565b610840565b005b61026e60048036038101906102699190614233565b610958565b005b34801561027c57600080fd5b5061029760048036038101906102929190613f43565b610e57565b005b3480156102a557600080fd5b506102c060048036038101906102bb919061417f565b610eb7565b6040516102cd9190614fd1565b60405180910390f35b3480156102e257600080fd5b506102fd60048036038101906102f8919061417f565b610fa7565b60405161030f96959493929190615586565b60405180910390f35b34801561032457600080fd5b5061033f600480360381019061033a9190613f43565b6110ab565b005b34801561034d57600080fd5b50610368600480360381019061036391906141a8565b6110cb565b005b34801561037657600080fd5b50610391600480360381019061038c91906141a8565b611510565b005b34801561039f57600080fd5b506103ba60048036038101906103b5919061417f565b6118f8565b6040516103c79190614f0a565b60405180910390f35b3480156103dc57600080fd5b506103f760048036038101906103f291906141e4565b6119aa565b005b34801561040557600080fd5b50610420600480360381019061041b9190614118565b611c84565b60405161042d9190615450565b60405180910390f35b34801561044257600080fd5b5061045d60048036038101906104589190613ede565b611f4d565b60405161046a9190615450565b60405180910390f35b34801561047f57600080fd5b50610488612005565b005b34801561049657600080fd5b5061049f612142565b6040516104ac9190614f0a565b60405180910390f35b3480156104c157600080fd5b506104ca61216c565b6040516104d7919061500e565b60405180910390f35b3480156104ec57600080fd5b506105076004803603810190610502919061400d565b6121fe565b005b610523600480360381019061051e91906141a8565b61237f565b005b34801561053157600080fd5b5061054c60048036038101906105479190613f92565b61289a565b005b34801561055a57600080fd5b506105756004803603810190610570919061417f565b6128fc565b604051610582919061500e565b60405180910390f35b34801561059757600080fd5b506105a0612a4e565b6040516105ad9190615450565b60405180910390f35b3480156105c257600080fd5b506105cb612a54565b6040516105d89190615450565b60405180910390f35b3480156105ed57600080fd5b5061060860048036038101906106039190613f07565b612a5a565b6040516106159190614ff3565b60405180910390f35b34801561062a57600080fd5b5061064560048036038101906106409190613ede565b612aee565b005b60007f80ac58cd000000000000000000000000000000000000000000000000000000007bffffffffffffffffffffffffffffffffffffffffffffffffffffffff1916827bffffffffffffffffffffffffffffffffffffffffffffffffffffffff1916148061071257507f5b5e139f000000000000000000000000000000000000000000000000000000007bffffffffffffffffffffffffffffffffffffffffffffffffffffffff1916827bffffffffffffffffffffffffffffffffffffffffffffffffffffffff1916145b80610722575061072182612c9a565b5b9050919050565b606060008054610738906159a5565b80601f0160208091040260200160405190810160405280929190818152602001828054610764906159a5565b80156107b15780601f10610786576101008083540402835291602001916107b1565b820191906000526020600020905b81548152906001019060200180831161079457829003601f168201915b5050505050905090565b60006107c682612d04565b610805576040517f08c379a00000000000000000000000000000000000000000000000000000000081526004016107fc90615330565b60405180910390fd5b6004600083815260200190815260200160002060009054906101000a900473ffffffffffffffffffffffffffffffffffffffff169050919050565b600061084b826118f8565b90508073ffffffffffffffffffffffffffffffffffffffff168373ffffffffffffffffffffffffffffffffffffffff1614156108bc576040517f08c379a00000000000000000000000000000000000000000000000000000000081526004016108b3906153b0565b60405180910390fd5b8073ffffffffffffffffffffffffffffffffffffffff166108db612d70565b73ffffffffffffffffffffffffffffffffffffffff16148061090a575061090981610904612d70565b612a5a565b5b610949576040517f08c379a000000000000000000000000000000000000000000000000000000000815260040161094090615230565b60405180910390fd5b6109538383612d78565b505050565b6000600a60008581526020019081526020016000206040518060c00160405290816000820154815260200160018201548152602001600282015481526020016003820180546109a6906159a5565b80601f01602080910402602001604051908101604052809291908181526020018280546109d2906159a5565b8015610a1f5780601f106109f457610100808354040283529160200191610a1f565b820191906000526020600020905b815481529060010190602001808311610a0257829003601f168201915b505050505081526020016004820160009054906101000a900473ffffffffffffffffffffffffffffffffffffffff1673ffffffffffffffffffffffffffffffffffffffff1673ffffffffffffffffffffffffffffffffffffffff1681526020016005820160009054906101000a900473ffffffffffffffffffffffffffffffffffffffff1673ffffffffffffffffffffffffffffffffffffffff1673ffffffffffffffffffffffffffffffffffffffff16815250509050610ae0600b612e31565b8411158015610af25750838160000151145b610b31576040517f08c379a0000000000000000000000000000000000000000000000000000000008152600401610b28906152b0565b60405180910390fd5b3373ffffffffffffffffffffffffffffffffffffffff168160a0015173ffffffffffffffffffffffffffffffffffffffff161415610ba4576040517f08c379a0000000000000000000000000000000000000000000000000000000008152600401610b9b90615130565b60405180910390fd5b6000816040015111610beb576040517f08c379a0000000000000000000000000000000000000000000000000000000008152600401610be290615430565b60405180910390fd5b60008311610c2e576040517f08c379a0000000000000000000000000000000000000000000000000000000008152600401610c2590615050565b60405180910390fd5b34838260400151610c3f919061580f565b1115610c80576040517f08c379a0000000000000000000000000000000000000000000000000000000008152600401610c77906151f0565b60405180910390fd5b610c8b338584612e3f565b60006009546064858460400151610ca2919061580f565b610cac91906157de565b610cb6919061580f565b9050600081858460400151610ccb919061580f565b610cd59190615869565b9050610ce5836080015183613073565b610cf38360a0015182613073565b60006305265c0086610d05919061580f565b905060006040518060a001604052808981526020018781526020018388610d2c9190615788565b81526020013481526020013373ffffffffffffffffffffffffffffffffffffffff168152509050600d60008981526020019081526020016000208190806001815401808255809150506001900390600052602060002090600502016000909190919091506000820151816000015560208201518160010155604082015181600201556060820151816003015560808201518160040160006101000a81548173ffffffffffffffffffffffffffffffffffffffff021916908373ffffffffffffffffffffffffffffffffffffffff16021790555050507fee6d96e6bb15c556dad9055c074dc60e2b01d0b67378d3922ccbbad8d4d7ea8a888834858a610e319190615788565b338b604051610e45969594939291906155ee565b60405180910390a15050505050505050565b610e68610e62612d70565b82613124565b610ea7576040517f08c379a0000000000000000000000000000000000000000000000000000000008152600401610e9e906153f0565b60405180910390fd5b610eb2838383613202565b505050565b6060600d6000838152602001908152602001600020805480602002602001604051908101604052809291908181526020016000905b82821015610f9c57838290600052602060002090600502016040518060a0016040529081600082015481526020016001820154815260200160028201548152602001600382015481526020016004820160009054906101000a900473ffffffffffffffffffffffffffffffffffffffff1673ffffffffffffffffffffffffffffffffffffffff1673ffffffffffffffffffffffffffffffffffffffff168152505081526020019060010190610eec565b505050509050919050565b600a602052806000526040600020600091509050806000015490806001015490806002015490806003018054610fdc906159a5565b80601f0160208091040260200160405190810160405280929190818152602001828054611008906159a5565b80156110555780601f1061102a57610100808354040283529160200191611055565b820191906000526020600020905b81548152906001019060200180831161103857829003601f168201915b5050505050908060040160009054906101000a900473ffffffffffffffffffffffffffffffffffffffff16908060050160009054906101000a900473ffffffffffffffffffffffffffffffffffffffff16905086565b6110c68383836040518060200160405280600081525061289a565b505050565b6000600a60008481526020019081526020016000206040518060c0016040529081600082015481526020016001820154815260200160028201548152602001600382018054611119906159a5565b80601f0160208091040260200160405190810160405280929190818152602001828054611145906159a5565b80156111925780601f1061116757610100808354040283529160200191611192565b820191906000526020600020905b81548152906001019060200180831161117557829003601f168201915b505050505081526020016004820160009054906101000a900473ffffffffffffffffffffffffffffffffffffffff1673ffffffffffffffffffffffffffffffffffffffff1673ffffffffffffffffffffffffffffffffffffffff1681526020016005820160009054906101000a900473ffffffffffffffffffffffffffffffffffffffff1673ffffffffffffffffffffffffffffffffffffffff1673ffffffffffffffffffffffffffffffffffffffff16815250509050611253600b612e31565b83111580156112655750828160000151145b6112a4576040517f08c379a000000000000000000000000000000000000000000000000000000000815260040161129b906152b0565b60405180910390fd5b3373ffffffffffffffffffffffffffffffffffffffff168160a0015173ffffffffffffffffffffffffffffffffffffffff1614611316576040517f08c379a000000000000000000000000000000000000000000000000000000000815260040161130d906151d0565b60405180910390fd5b6000816020015114801561132a5750600082115b80611346575060008160200151118015611345575060008210155b5b611385576040517f08c379a000000000000000000000000000000000000000000000000000000000815260040161137c906150d0565b60405180910390fd5b7ffbf96fcc78e52dc724126274324663c8a5bc540e16d8133f3d113477187329e8838260200151846040516113bc939291906154f5565b60405180910390a1600073ffffffffffffffffffffffffffffffffffffffff166113e5846107bb565b73ffffffffffffffffffffffffffffffffffffffff16141561140c5761140b3084610840565b5b600082141561142157611420600084610840565b5b8181602001818152505080600a60008581526020019081526020016000206000820151816000015560208201518160010155604082015181600201556060820151816003019080519060200190611479929190613ba5565b5060808201518160040160006101000a81548173ffffffffffffffffffffffffffffffffffffffff021916908373ffffffffffffffffffffffffffffffffffffffff16021790555060a08201518160050160006101000a81548173ffffffffffffffffffffffffffffffffffffffff021916908373ffffffffffffffffffffffffffffffffffffffff160217905550905050505050565b6000600a60008481526020019081526020016000206040518060c001604052908160008201548152602001600182015481526020016002820154815260200160038201805461155e906159a5565b80601f016020809104026020016040519081016040528092919081815260200182805461158a906159a5565b80156115d75780601f106115ac576101008083540402835291602001916115d7565b820191906000526020600020905b8154815290600101906020018083116115ba57829003601f168201915b505050505081526020016004820160009054906101000a900473ffffffffffffffffffffffffffffffffffffffff1673ffffffffffffffffffffffffffffffffffffffff1673ffffffffffffffffffffffffffffffffffffffff1681526020016005820160009054906101000a900473ffffffffffffffffffffffffffffffffffffffff1673ffffffffffffffffffffffffffffffffffffffff1673ffffffffffffffffffffffffffffffffffffffff16815250509050611698600b612e31565b83111580156116aa5750828160000151145b6116e9576040517f08c379a00000000000000000000000000000000000000000000000000000000081526004016116e0906152b0565b60405180910390fd5b3373ffffffffffffffffffffffffffffffffffffffff168160a0015173ffffffffffffffffffffffffffffffffffffffff161461175b576040517f08c379a0000000000000000000000000000000000000000000000000000000008152600401611752906151d0565b60405180910390fd5b6000816040015114801561176f5750600082115b8061178b57506000816040015111801561178a575060008210155b5b6117ca576040517f08c379a00000000000000000000000000000000000000000000000000000000081526004016117c1906150f0565b60405180910390fd5b7fd74f4dda031330fab8da16fb8a42ef6b85772d9fe0a056e14a221a7fa18a2fe983826040015184604051611801939291906154f5565b60405180910390a18181604001818152505080600a60008581526020019081526020016000206000820151816000015560208201518160010155604082015181600201556060820151816003019080519060200190611861929190613ba5565b5060808201518160040160006101000a81548173ffffffffffffffffffffffffffffffffffffffff021916908373ffffffffffffffffffffffffffffffffffffffff16021790555060a08201518160050160006101000a81548173ffffffffffffffffffffffffffffffffffffffff021916908373ffffffffffffffffffffffffffffffffffffffff160217905550905050505050565b6000806002600084815260200190815260200160002060009054906101000a900473ffffffffffffffffffffffffffffffffffffffff169050600073ffffffffffffffffffffffffffffffffffffffff168173ffffffffffffffffffffffffffffffffffffffff1614156119a1576040517f08c379a000000000000000000000000000000000000000000000000000000000815260040161199890615270565b60405180910390fd5b80915050919050565b6119b2612d70565b73ffffffffffffffffffffffffffffffffffffffff166119d0612142565b73ffffffffffffffffffffffffffffffffffffffff1614611a26576040517f08c379a0000000000000000000000000000000000000000000000000000000008152600401611a1d90615350565b60405180910390fd5b6000600a60008581526020019081526020016000206040518060c0016040529081600082015481526020016001820154815260200160028201548152602001600382018054611a74906159a5565b80601f0160208091040260200160405190810160405280929190818152602001828054611aa0906159a5565b8015611aed5780601f10611ac257610100808354040283529160200191611aed565b820191906000526020600020905b815481529060010190602001808311611ad057829003601f168201915b505050505081526020016004820160009054906101000a900473ffffffffffffffffffffffffffffffffffffffff1673ffffffffffffffffffffffffffffffffffffffff1673ffffffffffffffffffffffffffffffffffffffff1681526020016005820160009054906101000a900473ffffffffffffffffffffffffffffffffffffffff1673ffffffffffffffffffffffffffffffffffffffff1673ffffffffffffffffffffffffffffffffffffffff16815250509050611bae600b612e31565b8411158015611bc05750838160000151145b611bff576040517f08c379a0000000000000000000000000000000000000000000000000000000008152600401611bf6906152b0565b60405180910390fd5b6000821415611c43576040517f08c379a0000000000000000000000000000000000000000000000000000000008152600401611c3a90615150565b60405180910390fd5b7ff765e420c90c4b989d30cbf0aa346cde4706be3fefbb6a1f31108f0904c8c7e2848484604051611c76939291906154be565b60405180910390a150505050565b600080600c85604051611c979190614ecf565b90815260200160405180910390205414611ce6576040517f08c379a0000000000000000000000000000000000000000000000000000000008152600401611cdd906153d0565b60405180910390fd5b60008311611d29576040517f08c379a0000000000000000000000000000000000000000000000000000000008152600401611d2090615030565b60405180910390fd5b60008211611d6c576040517f08c379a0000000000000000000000000000000000000000000000000000000008152600401611d6390615210565b60405180910390fd5b611d76600b61345e565b6000611d82600b612e31565b9050611d8e3382613474565b611d988186613492565b60006040518060c001604052808381526020018681526020018581526020018781526020013373ffffffffffffffffffffffffffffffffffffffff1681526020013373ffffffffffffffffffffffffffffffffffffffff16815250905080600a60008481526020019081526020016000206000820151816000015560208201518160010155604082015181600201556060820151816003019080519060200190611e43929190613ba5565b5060808201518160040160006101000a81548173ffffffffffffffffffffffffffffffffffffffff021916908373ffffffffffffffffffffffffffffffffffffffff16021790555060a08201518160050160006101000a81548173ffffffffffffffffffffffffffffffffffffffff021916908373ffffffffffffffffffffffffffffffffffffffff16021790555090505081600c87604051611ee69190614ecf565b908152602001604051809103902081905550611f023083610840565b7f584e81111629cd59f3aa4829f0765e569d6e7f1a11237dc8733a72f6b2ee2c588286868933604051611f3995949392919061552c565b60405180910390a181925050509392505050565b60008073ffffffffffffffffffffffffffffffffffffffff168273ffffffffffffffffffffffffffffffffffffffff161415611fbe576040517f08c379a0000000000000000000000000000000000000000000000000000000008152600401611fb590615250565b60405180910390fd5b600360008373ffffffffffffffffffffffffffffffffffffffff1673ffffffffffffffffffffffffffffffffffffffff168152602001908152602001600020549050919050565b61200d612d70565b73ffffffffffffffffffffffffffffffffffffffff1661202b612142565b73ffffffffffffffffffffffffffffffffffffffff1614612081576040517f08c379a000000000000000000000000000000000000000000000000000000000815260040161207890615350565b60405180910390fd5b600073ffffffffffffffffffffffffffffffffffffffff16600760009054906101000a900473ffffffffffffffffffffffffffffffffffffffff1673ffffffffffffffffffffffffffffffffffffffff167f8be0079c531659141344cd1fd0a4f28419497f9722a3daafe3b4186f6b6457e060405160405180910390a36000600760006101000a81548173ffffffffffffffffffffffffffffffffffffffff021916908373ffffffffffffffffffffffffffffffffffffffff160217905550565b6000600760009054906101000a900473ffffffffffffffffffffffffffffffffffffffff16905090565b60606001805461217b906159a5565b80601f01602080910402602001604051908101604052809291908181526020018280546121a7906159a5565b80156121f45780601f106121c9576101008083540402835291602001916121f4565b820191906000526020600020905b8154815290600101906020018083116121d757829003601f168201915b5050505050905090565b612206612d70565b73ffffffffffffffffffffffffffffffffffffffff168273ffffffffffffffffffffffffffffffffffffffff161415612274576040517f08c379a000000000000000000000000000000000000000000000000000000000815260040161226b90615190565b60405180910390fd5b8060056000612281612d70565b73ffffffffffffffffffffffffffffffffffffffff1673ffffffffffffffffffffffffffffffffffffffff16815260200190815260200160002060008473ffffffffffffffffffffffffffffffffffffffff1673ffffffffffffffffffffffffffffffffffffffff16815260200190815260200160002060006101000a81548160ff0219169083151502179055508173ffffffffffffffffffffffffffffffffffffffff1661232e612d70565b73ffffffffffffffffffffffffffffffffffffffff167f17307eab39ab6107e8899845ad3d59bd9653f200f220920489ca2b5937696c31836040516123739190614ff3565b60405180910390a35050565b6000600a60008481526020019081526020016000206040518060c00160405290816000820154815260200160018201548152602001600282015481526020016003820180546123cd906159a5565b80601f01602080910402602001604051908101604052809291908181526020018280546123f9906159a5565b80156124465780601f1061241b57610100808354040283529160200191612446565b820191906000526020600020905b81548152906001019060200180831161242957829003601f168201915b505050505081526020016004820160009054906101000a900473ffffffffffffffffffffffffffffffffffffffff1673ffffffffffffffffffffffffffffffffffffffff1673ffffffffffffffffffffffffffffffffffffffff1681526020016005820160009054906101000a900473ffffffffffffffffffffffffffffffffffffffff1673ffffffffffffffffffffffffffffffffffffffff1673ffffffffffffffffffffffffffffffffffffffff16815250509050612507600b612e31565b83111580156125195750828160000151145b612558576040517f08c379a000000000000000000000000000000000000000000000000000000000815260040161254f906152b0565b60405180910390fd5b3373ffffffffffffffffffffffffffffffffffffffff168160a0015173ffffffffffffffffffffffffffffffffffffffff1614156125cb576040517f08c379a00000000000000000000000000000000000000000000000000000000081526004016125c290615130565b60405180910390fd5b6000816020015111612612576040517f08c379a000000000000000000000000000000000000000000000000000000000815260040161260990615410565b60405180910390fd5b3481602001511115612659576040517f08c379a0000000000000000000000000000000000000000000000000000000008152600401612650906151f0565b60405180910390fd5b60006008546064836020015161266f91906157de565b612679919061580f565b9050600081836020015161268d9190615869565b90507f892605e5aa205718bf5422cbe570beb6c419fe374afe9a7f9c8fc114b99020a8858460a001513334886040516126ca95949392919061546b565b60405180910390a13073ffffffffffffffffffffffffffffffffffffffff166342842e0e8460a001513386600001516040518463ffffffff1660e01b815260040161271793929190614f25565b600060405180830381600087803b15801561273157600080fd5b505af1158015612745573d6000803e3d6000fd5b50505050612757836080015183613073565b6127658360a0015182613073565b338360a0019073ffffffffffffffffffffffffffffffffffffffff16908173ffffffffffffffffffffffffffffffffffffffff16815250506000836020018181525050600083604001818152505082600a60008781526020019081526020016000206000820151816000015560208201518160010155604082015181600201556060820151816003019080519060200190612801929190613ba5565b5060808201518160040160006101000a81548173ffffffffffffffffffffffffffffffffffffffff021916908373ffffffffffffffffffffffffffffffffffffffff16021790555060a08201518160050160006101000a81548173ffffffffffffffffffffffffffffffffffffffff021916908373ffffffffffffffffffffffffffffffffffffffff1602179055509050505050505050565b6128ab6128a5612d70565b83613124565b6128ea576040517f08c379a00000000000000000000000000000000000000000000000000000000081526004016128e1906153f0565b60405180910390fd5b6128f684848484613506565b50505050565b606061290782612d04565b612946576040517f08c379a000000000000000000000000000000000000000000000000000000000815260040161293d90615310565b60405180910390fd5b6000600660008481526020019081526020016000208054612966906159a5565b80601f0160208091040260200160405190810160405280929190818152602001828054612992906159a5565b80156129df5780601f106129b4576101008083540402835291602001916129df565b820191906000526020600020905b8154815290600101906020018083116129c257829003601f168201915b5050505050905060006129f0613562565b9050600081511415612a06578192505050612a49565b600082511115612a3b578082604051602001612a23929190614ee6565b60405160208183030381529060405292505050612a49565b612a4484613579565b925050505b919050565b60085481565b60095481565b6000600560008473ffffffffffffffffffffffffffffffffffffffff1673ffffffffffffffffffffffffffffffffffffffff16815260200190815260200160002060008373ffffffffffffffffffffffffffffffffffffffff1673ffffffffffffffffffffffffffffffffffffffff16815260200190815260200160002060009054906101000a900460ff16905092915050565b612af6612d70565b73ffffffffffffffffffffffffffffffffffffffff16612b14612142565b73ffffffffffffffffffffffffffffffffffffffff1614612b6a576040517f08c379a0000000000000000000000000000000000000000000000000000000008152600401612b6190615350565b60405180910390fd5b600073ffffffffffffffffffffffffffffffffffffffff168173ffffffffffffffffffffffffffffffffffffffff161415612bda576040517f08c379a0000000000000000000000000000000000000000000000000000000008152600401612bd190615090565b60405180910390fd5b8073ffffffffffffffffffffffffffffffffffffffff16600760009054906101000a900473ffffffffffffffffffffffffffffffffffffffff1673ffffffffffffffffffffffffffffffffffffffff167f8be0079c531659141344cd1fd0a4f28419497f9722a3daafe3b4186f6b6457e060405160405180910390a380600760006101000a81548173ffffffffffffffffffffffffffffffffffffffff021916908373ffffffffffffffffffffffffffffffffffffffff16021790555050565b60007f01ffc9a7000000000000000000000000000000000000000000000000000000007bffffffffffffffffffffffffffffffffffffffffffffffffffffffff1916827bffffffffffffffffffffffffffffffffffffffffffffffffffffffff1916149050919050565b60008073ffffffffffffffffffffffffffffffffffffffff166002600084815260200190815260200160002060009054906101000a900473ffffffffffffffffffffffffffffffffffffffff1673ffffffffffffffffffffffffffffffffffffffff1614159050919050565b600033905090565b816004600083815260200190815260200160002060006101000a81548173ffffffffffffffffffffffffffffffffffffffff021916908373ffffffffffffffffffffffffffffffffffffffff160217905550808273ffffffffffffffffffffffffffffffffffffffff16612deb836118f8565b73ffffffffffffffffffffffffffffffffffffffff167f8c5be1e5ebec7d5bd14f71427d1e84f3dd0314c0f7b2291e5b200ac8c7c3b92560405160405180910390a45050565b600081600001549050919050565b60003073ffffffffffffffffffffffffffffffffffffffff16632ef6ea7a846040518263ffffffff1660e01b8152600401612e7a9190615450565b60006040518083038186803b158015612e9257600080fd5b505afa158015612ea6573d6000803e3d6000fd5b505050506040513d6000823e3d601f19601f82011682018060405250810190612ecf9190614085565b905060005b815181101561306c578473ffffffffffffffffffffffffffffffffffffffff16828281518110612f2d577f4e487b7100000000000000000000000000000000000000000000000000000000600052603260045260246000fd5b60200260200101516080015173ffffffffffffffffffffffffffffffffffffffff16148015612f9f575082828281518110612f91577f4e487b7100000000000000000000000000000000000000000000000000000000600052603260045260246000fd5b602002602001015160400151105b8061301a57508473ffffffffffffffffffffffffffffffffffffffff16828281518110612ff5577f4e487b7100000000000000000000000000000000000000000000000000000000600052603260045260246000fd5b60200260200101516080015173ffffffffffffffffffffffffffffffffffffffff1614155b613059576040517f08c379a0000000000000000000000000000000000000000000000000000000008152600401613050906152d0565b60405180910390fd5b8080613064906159d7565b915050612ed4565b5050505050565b7fc7b16f0c91d6e099a9fb831632a80052954f1f27b4c358262703709988e6985682826040516130a4929190614f5c565b60405180910390a18173ffffffffffffffffffffffffffffffffffffffff166108fc829081150290604051600060405180830381858888f19350505050613120576040517f08c379a000000000000000000000000000000000000000000000000000000000815260040161311790615110565b60405180910390fd5b5050565b600061312f82612d04565b61316e576040517f08c379a0000000000000000000000000000000000000000000000000000000008152600401613165906151b0565b60405180910390fd5b6000613179836118f8565b90508073ffffffffffffffffffffffffffffffffffffffff168473ffffffffffffffffffffffffffffffffffffffff1614806131e857508373ffffffffffffffffffffffffffffffffffffffff166131d0846107bb565b73ffffffffffffffffffffffffffffffffffffffff16145b806131f957506131f88185612a5a565b5b91505092915050565b8273ffffffffffffffffffffffffffffffffffffffff16613222826118f8565b73ffffffffffffffffffffffffffffffffffffffff1614613278576040517f08c379a000000000000000000000000000000000000000000000000000000000815260040161326f90615370565b60405180910390fd5b600073ffffffffffffffffffffffffffffffffffffffff168273ffffffffffffffffffffffffffffffffffffffff1614156132e8576040517f08c379a00000000000000000000000000000000000000000000000000000000081526004016132df90615170565b60405180910390fd5b6132f3838383613620565b6132fe600082612d78565b6001600360008573ffffffffffffffffffffffffffffffffffffffff1673ffffffffffffffffffffffffffffffffffffffff168152602001908152602001600020600082825461334e9190615869565b925050819055506001600360008473ffffffffffffffffffffffffffffffffffffffff1673ffffffffffffffffffffffffffffffffffffffff16815260200190815260200160002060008282546133a59190615788565b92505081905550816002600083815260200190815260200160002060006101000a81548173ffffffffffffffffffffffffffffffffffffffff021916908373ffffffffffffffffffffffffffffffffffffffff160217905550808273ffffffffffffffffffffffffffffffffffffffff168473ffffffffffffffffffffffffffffffffffffffff167fddf252ad1be2c89b69c2b068fc378daa952ba7f163c4a11628f55a4df523b3ef60405160405180910390a4505050565b6001816000016000828254019250508190555050565b61348e828260405180602001604052806000815250613625565b5050565b61349b82612d04565b6134da576040517f08c379a00000000000000000000000000000000000000000000000000000000081526004016134d190615290565b60405180910390fd5b80600660008481526020019081526020016000209080519060200190613501929190613ba5565b505050565b613511848484613202565b61351d84848484613680565b61355c576040517f08c379a000000000000000000000000000000000000000000000000000000000815260040161355390615070565b60405180910390fd5b50505050565b606060405180602001604052806000815250905090565b606061358482612d04565b6135c3576040517f08c379a00000000000000000000000000000000000000000000000000000000081526004016135ba90615390565b60405180910390fd5b60006135cd613562565b905060008151116135ed5760405180602001604052806000815250613618565b806135f784613817565b604051602001613608929190614ee6565b6040516020818303038152906040525b915050919050565b505050565b61362f83836139c4565b61363c6000848484613680565b61367b576040517f08c379a000000000000000000000000000000000000000000000000000000000815260040161367290615070565b60405180910390fd5b505050565b60006136a18473ffffffffffffffffffffffffffffffffffffffff16613b92565b1561380a578373ffffffffffffffffffffffffffffffffffffffff1663150b7a026136ca612d70565b8786866040518563ffffffff1660e01b81526004016136ec9493929190614f85565b602060405180830381600087803b15801561370657600080fd5b505af192505050801561373757506040513d601f19601f8201168201806040525081019061373491906140ef565b60015b6137ba573d8060008114613767576040519150601f19603f3d011682016040523d82523d6000602084013e61376c565b606091505b506000815114156137b2576040517f08c379a00000000000000000000000000000000000000000000000000000000081526004016137a990615070565b60405180910390fd5b805181602001fd5b63150b7a0260e01b7bffffffffffffffffffffffffffffffffffffffffffffffffffffffff1916817bffffffffffffffffffffffffffffffffffffffffffffffffffffffff19161491505061380f565b600190505b949350505050565b6060600082141561385f576040518060400160405280600181526020017f300000000000000000000000000000000000000000000000000000000000000081525090506139bf565b600082905060005b6000821461389157808061387a906159d7565b915050600a8261388a91906157de565b9150613867565b60008167ffffffffffffffff8111156138d3577f4e487b7100000000000000000000000000000000000000000000000000000000600052604160045260246000fd5b6040519080825280601f01601f1916602001820160405280156139055781602001600182028036833780820191505090505b5090505b600085146139b85760018261391e9190615869565b9150600a8561392d9190615a20565b60306139399190615788565b60f81b818381518110613975577f4e487b7100000000000000000000000000000000000000000000000000000000600052603260045260246000fd5b60200101907effffffffffffffffffffffffffffffffffffffffffffffffffffffffffffff1916908160001a905350600a856139b191906157de565b9450613909565b8093505050505b919050565b600073ffffffffffffffffffffffffffffffffffffffff168273ffffffffffffffffffffffffffffffffffffffff161415613a34576040517f08c379a0000000000000000000000000000000000000000000000000000000008152600401613a2b906152f0565b60405180910390fd5b613a3d81612d04565b15613a7d576040517f08c379a0000000000000000000000000000000000000000000000000000000008152600401613a74906150b0565b60405180910390fd5b613a8960008383613620565b6001600360008473ffffffffffffffffffffffffffffffffffffffff1673ffffffffffffffffffffffffffffffffffffffff1681526020019081526020016000206000828254613ad99190615788565b92505081905550816002600083815260200190815260200160002060006101000a81548173ffffffffffffffffffffffffffffffffffffffff021916908373ffffffffffffffffffffffffffffffffffffffff160217905550808273ffffffffffffffffffffffffffffffffffffffff16600073ffffffffffffffffffffffffffffffffffffffff167fddf252ad1be2c89b69c2b068fc378daa952ba7f163c4a11628f55a4df523b3ef60405160405180910390a45050565b600080823b905060008111915050919050565b828054613bb1906159a5565b90600052602060002090601f016020900481019282613bd35760008555613c1a565b82601f10613bec57805160ff1916838001178555613c1a565b82800160010185558215613c1a579182015b82811115613c19578251825591602001919060010190613bfe565b5b509050613c279190613c2b565b5090565b5b80821115613c44576000816000905550600101613c2c565b5090565b6000613c5b613c5684615680565b61564f565b905080838252602082019050828560a0860282011115613c7a57600080fd5b60005b85811015613caa5781613c908882613e2c565b845260208401935060a08301925050600181019050613c7d565b5050509392505050565b6000613cc7613cc2846156ac565b61564f565b905082815260208101848484011115613cdf57600080fd5b613cea848285615963565b509392505050565b6000613d05613d00846156dc565b61564f565b905082815260208101848484011115613d1d57600080fd5b613d28848285615963565b509392505050565b600081359050613d3f81615b1e565b92915050565b600081519050613d5481615b1e565b92915050565b600082601f830112613d6b57600080fd5b8151613d7b848260208601613c48565b91505092915050565b600081359050613d9381615b35565b92915050565b600081359050613da881615b4c565b92915050565b600081359050613dbd81615b63565b92915050565b600081519050613dd281615b63565b92915050565b600082601f830112613de957600080fd5b8135613df9848260208601613cb4565b91505092915050565b600082601f830112613e1357600080fd5b8135613e23848260208601613cf2565b91505092915050565b600060a08284031215613e3e57600080fd5b613e4860a061564f565b90506000613e5884828501613ec9565b6000830152506020613e6c84828501613ec9565b6020830152506040613e8084828501613ec9565b6040830152506060613e9484828501613ec9565b6060830152506080613ea884828501613d45565b60808301525092915050565b600081359050613ec381615b7a565b92915050565b600081519050613ed881615b7a565b92915050565b600060208284031215613ef057600080fd5b6000613efe84828501613d30565b91505092915050565b60008060408385031215613f1a57600080fd5b6000613f2885828601613d30565b9250506020613f3985828601613d30565b9150509250929050565b600080600060608486031215613f5857600080fd5b6000613f6686828701613d30565b9350506020613f7786828701613d30565b9250506040613f8886828701613eb4565b9150509250925092565b60008060008060808587031215613fa857600080fd5b6000613fb687828801613d30565b9450506020613fc787828801613d30565b9350506040613fd887828801613eb4565b925050606085013567ffffffffffffffff811115613ff557600080fd5b61400187828801613dd8565b91505092959194509250565b6000806040838503121561402057600080fd5b600061402e85828601613d30565b925050602061403f85828601613d84565b9150509250929050565b6000806040838503121561405c57600080fd5b600061406a85828601613d30565b925050602061407b85828601613eb4565b9150509250929050565b60006020828403121561409757600080fd5b600082015167ffffffffffffffff8111156140b157600080fd5b6140bd84828501613d5a565b91505092915050565b6000602082840312156140d857600080fd5b60006140e684828501613dae565b91505092915050565b60006020828403121561410157600080fd5b600061410f84828501613dc3565b91505092915050565b60008060006060848603121561412d57600080fd5b600084013567ffffffffffffffff81111561414757600080fd5b61415386828701613e02565b935050602061416486828701613eb4565b925050604061417586828701613eb4565b9150509250925092565b60006020828403121561419157600080fd5b600061419f84828501613eb4565b91505092915050565b600080604083850312156141bb57600080fd5b60006141c985828601613eb4565b92505060206141da85828601613eb4565b9150509250929050565b6000806000606084860312156141f957600080fd5b600061420786828701613eb4565b935050602061421886828701613eb4565b925050604061422986828701613d99565b9150509250925092565b60008060006060848603121561424857600080fd5b600061425686828701613eb4565b935050602061426786828701613eb4565b925050604061427886828701613eb4565b9150509250925092565b600061428e8383614e49565b60a08301905092915050565b6142a38161592d565b82525050565b6142b2816158af565b82525050565b6142c18161589d565b82525050565b6142d08161589d565b82525050565b60006142e18261571c565b6142eb818561574a565b93506142f68361570c565b8060005b8381101561432757815161430e8882614282565b97506143198361573d565b9250506001810190506142fa565b5085935050505092915050565b61433d816158c1565b82525050565b61434c816158cd565b82525050565b600061435d82615727565b614367818561575b565b9350614377818560208601615972565b61438081615b0d565b840191505092915050565b600061439682615732565b6143a0818561576c565b93506143b0818560208601615972565b6143b981615b0d565b840191505092915050565b60006143cf82615732565b6143d9818561577d565b93506143e9818560208601615972565b80840191505092915050565b600061440260158361576c565b91507f494e56414c49442d53454c4c494e472d505249434500000000000000000000006000830152602082019050919050565b600061444260108361576c565b91507f494e56414c49442d4455524154494f4e000000000000000000000000000000006000830152602082019050919050565b600061448260328361576c565b91507f4552433732313a207472616e7366657220746f206e6f6e20455243373231526560008301527f63656976657220696d706c656d656e74657200000000000000000000000000006020830152604082019050919050565b60006144e860268361576c565b91507f4f776e61626c653a206e6577206f776e657220697320746865207a65726f206160008301527f64647265737300000000000000000000000000000000000000000000000000006020830152604082019050919050565b600061454e601c8361576c565b91507f4552433732313a20746f6b656e20616c7265616479206d696e746564000000006000830152602082019050919050565b600061458e60168361576c565b91507f494e56414c49442d53454c4c494e472d555044415445000000000000000000006000830152602082019050919050565b60006145ce60198361576c565b91507f494e56414c49442d4c4943454e5341424c452d555044415445000000000000006000830152602082019050919050565b600061460e600d8361576c565b91507f5041594d454e542d4552524f52000000000000000000000000000000000000006000830152602082019050919050565b600061464e600d8361576c565b91507f414c52454144592d4f574e4552000000000000000000000000000000000000006000830152602082019050919050565b600061468e60118361576c565b91507f494e56414c49442d444154412d484153480000000000000000000000000000006000830152602082019050919050565b60006146ce60248361576c565b91507f4552433732313a207472616e7366657220746f20746865207a65726f2061646460008301527f72657373000000000000000000000000000000000000000000000000000000006020830152604082019050919050565b600061473460198361576c565b91507f4552433732313a20617070726f766520746f2063616c6c6572000000000000006000830152602082019050919050565b6000614774602c8361576c565b91507f4552433732313a206f70657261746f7220717565727920666f72206e6f6e657860008301527f697374656e7420746f6b656e00000000000000000000000000000000000000006020830152604082019050919050565b60006147da60098361576c565b91507f4e4f542d4f574e455200000000000000000000000000000000000000000000006000830152602082019050919050565b600061481a600f8361576c565b91507f494e56414c49442d5041594d454e5400000000000000000000000000000000006000830152602082019050919050565b600061485a60158361576c565b91507f494e56414c49442d4c4943454e53452d505249434500000000000000000000006000830152602082019050919050565b600061489a60388361576c565b91507f4552433732313a20617070726f76652063616c6c6572206973206e6f74206f7760008301527f6e6572206e6f7220617070726f76656420666f7220616c6c00000000000000006020830152604082019050919050565b6000614900602a8361576c565b91507f4552433732313a2062616c616e636520717565727920666f7220746865207a6560008301527f726f2061646472657373000000000000000000000000000000000000000000006020830152604082019050919050565b600061496660298361576c565b91507f4552433732313a206f776e657220717565727920666f72206e6f6e657869737460008301527f656e7420746f6b656e00000000000000000000000000000000000000000000006020830152604082019050919050565b60006149cc602e8361576c565b91507f45524337323155524953746f726167653a2055524920736574206f66206e6f6e60008301527f6578697374656e7420746f6b656e0000000000000000000000000000000000006020830152604082019050919050565b6000614a3260108361576c565b91507f494e56414c49442d544f4b454e2d4944000000000000000000000000000000006000830152602082019050919050565b6000614a7260108361576c565b91507f414c52454144592d4c4943454e534544000000000000000000000000000000006000830152602082019050919050565b6000614ab260208361576c565b91507f4552433732313a206d696e7420746f20746865207a65726f20616464726573736000830152602082019050919050565b6000614af260318361576c565b91507f45524337323155524953746f726167653a2055524920717565727920666f722060008301527f6e6f6e6578697374656e7420746f6b656e0000000000000000000000000000006020830152604082019050919050565b6000614b58602c8361576c565b91507f4552433732313a20617070726f76656420717565727920666f72206e6f6e657860008301527f697374656e7420746f6b656e00000000000000000000000000000000000000006020830152604082019050919050565b6000614bbe60208361576c565b91507f4f776e61626c653a2063616c6c6572206973206e6f7420746865206f776e65726000830152602082019050919050565b6000614bfe60298361576c565b91507f4552433732313a207472616e73666572206f6620746f6b656e2074686174206960008301527f73206e6f74206f776e00000000000000000000000000000000000000000000006020830152604082019050919050565b6000614c64602f8361576c565b91507f4552433732314d657461646174613a2055524920717565727920666f72206e6f60008301527f6e6578697374656e7420746f6b656e00000000000000000000000000000000006020830152604082019050919050565b6000614cca60218361576c565b91507f4552433732313a20617070726f76616c20746f2063757272656e74206f776e6560008301527f72000000000000000000000000000000000000000000000000000000000000006020830152604082019050919050565b6000614d30600e8361576c565b91507f414c52454144592d4d494e5445440000000000000000000000000000000000006000830152602082019050919050565b6000614d7060318361576c565b91507f4552433732313a207472616e736665722063616c6c6572206973206e6f74206f60008301527f776e6572206e6f7220617070726f7665640000000000000000000000000000006020830152604082019050919050565b6000614dd6600c8361576c565b91507f4e4f542d464f522d53414c4500000000000000000000000000000000000000006000830152602082019050919050565b6000614e16600e8361576c565b91507f4e4f542d4c4943454e5341424c450000000000000000000000000000000000006000830152602082019050919050565b60a082016000820151614e5f6000850182614eb1565b506020820151614e726020850182614eb1565b506040820151614e856040850182614eb1565b506060820151614e986060850182614eb1565b506080820151614eab60808501826142b8565b50505050565b614eba81615923565b82525050565b614ec981615923565b82525050565b6000614edb82846143c4565b915081905092915050565b6000614ef282856143c4565b9150614efe82846143c4565b91508190509392505050565b6000602082019050614f1f60008301846142c7565b92915050565b6000606082019050614f3a600083018661429a565b614f4760208301856142c7565b614f546040830184614ec0565b949350505050565b6000604082019050614f7160008301856142a9565b614f7e6020830184614ec0565b9392505050565b6000608082019050614f9a60008301876142c7565b614fa760208301866142c7565b614fb46040830185614ec0565b8181036060830152614fc68184614352565b905095945050505050565b60006020820190508181036000830152614feb81846142d6565b905092915050565b60006020820190506150086000830184614334565b92915050565b60006020820190508181036000830152615028818461438b565b905092915050565b60006020820190508181036000830152615049816143f5565b9050919050565b6000602082019050818103600083015261506981614435565b9050919050565b6000602082019050818103600083015261508981614475565b9050919050565b600060208201905081810360008301526150a9816144db565b9050919050565b600060208201905081810360008301526150c981614541565b9050919050565b600060208201905081810360008301526150e981614581565b9050919050565b60006020820190508181036000830152615109816145c1565b9050919050565b6000602082019050818103600083015261512981614601565b9050919050565b6000602082019050818103600083015261514981614641565b9050919050565b6000602082019050818103600083015261516981614681565b9050919050565b60006020820190508181036000830152615189816146c1565b9050919050565b600060208201905081810360008301526151a981614727565b9050919050565b600060208201905081810360008301526151c981614767565b9050919050565b600060208201905081810360008301526151e9816147cd565b9050919050565b600060208201905081810360008301526152098161480d565b9050919050565b600060208201905081810360008301526152298161484d565b9050919050565b600060208201905081810360008301526152498161488d565b9050919050565b60006020820190508181036000830152615269816148f3565b9050919050565b6000602082019050818103600083015261528981614959565b9050919050565b600060208201905081810360008301526152a9816149bf565b9050919050565b600060208201905081810360008301526152c981614a25565b9050919050565b600060208201905081810360008301526152e981614a65565b9050919050565b6000602082019050818103600083015261530981614aa5565b9050919050565b6000602082019050818103600083015261532981614ae5565b9050919050565b6000602082019050818103600083015261534981614b4b565b9050919050565b6000602082019050818103600083015261536981614bb1565b9050919050565b6000602082019050818103600083015261538981614bf1565b9050919050565b600060208201905081810360008301526153a981614c57565b9050919050565b600060208201905081810360008301526153c981614cbd565b9050919050565b600060208201905081810360008301526153e981614d23565b9050919050565b6000602082019050818103600083015261540981614d63565b9050919050565b6000602082019050818103600083015261542981614dc9565b9050919050565b6000602082019050818103600083015261544981614e09565b9050919050565b60006020820190506154656000830184614ec0565b92915050565b600060a0820190506154806000830188614ec0565b61548d602083018761429a565b61549a60408301866142c7565b6154a76060830185614ec0565b6154b46080830184614ec0565b9695505050505050565b60006060820190506154d36000830186614ec0565b6154e06020830185614ec0565b6154ed6040830184614343565b949350505050565b600060608201905061550a6000830186614ec0565b6155176020830185614ec0565b6155246040830184614ec0565b949350505050565b600060a0820190506155416000830188614ec0565b61554e6020830187614ec0565b61555b6040830186614ec0565b818103606083015261556d818561438b565b905061557c60808301846142c7565b9695505050505050565b600060c08201905061559b6000830189614ec0565b6155a86020830188614ec0565b6155b56040830187614ec0565b81810360608301526155c7818661438b565b90506155d660808301856142a9565b6155e360a08301846142a9565b979650505050505050565b600060c0820190506156036000830189614ec0565b6156106020830188614ec0565b61561d6040830187614ec0565b61562a6060830186614ec0565b61563760808301856142a9565b61564460a0830184614ec0565b979650505050505050565b6000604051905081810181811067ffffffffffffffff8211171561567657615675615ade565b5b8060405250919050565b600067ffffffffffffffff82111561569b5761569a615ade565b5b602082029050602081019050919050565b600067ffffffffffffffff8211156156c7576156c6615ade565b5b601f19601f8301169050602081019050919050565b600067ffffffffffffffff8211156156f7576156f6615ade565b5b601f19601f8301169050602081019050919050565b6000819050602082019050919050565b600081519050919050565b600081519050919050565b600081519050919050565b6000602082019050919050565b600082825260208201905092915050565b600082825260208201905092915050565b600082825260208201905092915050565b600081905092915050565b600061579382615923565b915061579e83615923565b9250827fffffffffffffffffffffffffffffffffffffffffffffffffffffffffffffffff038211156157d3576157d2615a51565b5b828201905092915050565b60006157e982615923565b91506157f483615923565b92508261580457615803615a80565b5b828204905092915050565b600061581a82615923565b915061582583615923565b9250817fffffffffffffffffffffffffffffffffffffffffffffffffffffffffffffffff048311821515161561585e5761585d615a51565b5b828202905092915050565b600061587482615923565b915061587f83615923565b92508282101561589257615891615a51565b5b828203905092915050565b60006158a882615903565b9050919050565b60006158ba82615903565b9050919050565b60008115159050919050565b6000819050919050565b60007fffffffff0000000000000000000000000000000000000000000000000000000082169050919050565b600073ffffffffffffffffffffffffffffffffffffffff82169050919050565b6000819050919050565b60006159388261593f565b9050919050565b600061594a82615951565b9050919050565b600061595c82615903565b9050919050565b82818337600083830152505050565b60005b83811015615990578082015181840152602081019050615975565b8381111561599f576000848401525b50505050565b600060028204905060018216806159bd57607f821691505b602082108114156159d1576159d0615aaf565b5b50919050565b60006159e282615923565b91507fffffffffffffffffffffffffffffffffffffffffffffffffffffffffffffffff821415615a1557615a14615a51565b5b600182019050919050565b6000615a2b82615923565b9150615a3683615923565b925082615a4657615a45615a80565b5b828206905092915050565b7f4e487b7100000000000000000000000000000000000000000000000000000000600052601160045260246000fd5b7f4e487b7100000000000000000000000000000000000000000000000000000000600052601260045260246000fd5b7f4e487b7100000000000000000000000000000000000000000000000000000000600052602260045260246000fd5b7f4e487b7100000000000000000000000000000000000000000000000000000000600052604160045260246000fd5b6000601f19601f8301169050919050565b615b278161589d565b8114615b3257600080fd5b50565b615b3e816158c1565b8114615b4957600080fd5b50565b615b55816158cd565b8114615b6057600080fd5b50565b615b6c816158d7565b8114615b7757600080fd5b50565b615b8381615923565b8114615b8e57600080fd5b5056fea2646970667358221220c9f04d8e97b9b1b517428f6284632a1299c6e052452bb2d482c6831c8360b01d64736f6c63430008000033",
  "linkReferences": {},
  "deployedLinkReferences": {}
}