{
  "_format": "hh-sol-artifact-1",
  "contractName": "DigitalArt",
  "sourceName": "contracts/DigitalArt.sol",
  "abi": [
    {
      "inputs": [],
      "stateMutability": "nonpayable",
      "type": "constructor"
    },
    {
      "anonymous": false,
      "inputs": [
        {
          "indexed": true,
          "internalType": "address",
          "name": "owner",
          "type": "address"
        },
        {
          "indexed": true,
          "internalType": "address",
          "name": "approved",
          "type": "address"
        },
        {
          "indexed": true,
          "internalType": "uint256",
          "name": "tokenId",
          "type": "uint256"
        }
      ],
      "name": "Approval",
      "type": "event"
    },
    {
      "anonymous": false,
      "inputs": [
        {
          "indexed": true,
          "internalType": "address",
          "name": "owner",
          "type": "address"
        },
        {
          "indexed": true,
          "internalType": "address",
          "name": "operator",
          "type": "address"
        },
        {
          "indexed": false,
          "internalType": "bool",
          "name": "approved",
          "type": "bool"
        }
      ],
      "name": "ApprovalForAll",
      "type": "event"
    },
    {
      "anonymous": false,
      "inputs": [
        {
          "indexed": false,
          "internalType": "uint256",
          "name": "tokenId",
          "type": "uint256"
        },
        {
          "indexed": false,
          "internalType": "uint256",
          "name": "oldDailyLicensePrice",
          "type": "uint256"
        },
        {
          "indexed": false,
          "internalType": "uint256",
          "name": "newDailyLicensePrice",
          "type": "uint256"
        }
      ],
      "name": "DailyLicensePriceUpdated",
      "type": "event"
    },
    {
      "anonymous": false,
      "inputs": [
        {
          "indexed": false,
          "internalType": "uint256",
          "name": "tokenId",
          "type": "uint256"
        },
        {
          "indexed": false,
          "internalType": "uint256",
          "name": "durationInDays",
          "type": "uint256"
        },
        {
          "indexed": false,
          "internalType": "uint256",
          "name": "price",
          "type": "uint256"
        },
        {
          "indexed": false,
          "internalType": "uint256",
          "name": "endDateInMillis",
          "type": "uint256"
        },
        {
          "indexed": false,
          "internalType": "address payable",
          "name": "sender",
          "type": "address"
        },
        {
          "indexed": false,
          "internalType": "uint256",
          "name": "timestamp",
          "type": "uint256"
        }
      ],
      "name": "LicensePurchased",
      "type": "event"
    },
    {
      "anonymous": false,
      "inputs": [
        {
          "indexed": false,
          "internalType": "address payable",
          "name": "to",
          "type": "address"
        },
        {
          "indexed": false,
          "internalType": "uint256",
          "name": "amount",
          "type": "uint256"
        }
      ],
      "name": "PaymentExecuted",
      "type": "event"
    },
    {
      "anonymous": false,
      "inputs": [
        {
          "indexed": false,
          "internalType": "uint256",
          "name": "tokenId",
          "type": "uint256"
        },
        {
          "indexed": false,
          "internalType": "uint256",
          "name": "oldSellingPrice",
          "type": "uint256"
        },
        {
          "indexed": false,
          "internalType": "uint256",
          "name": "newSellingPrice",
          "type": "uint256"
        }
      ],
      "name": "SellingPriceUpdated",
      "type": "event"
    },
    {
      "anonymous": false,
      "inputs": [
        {
          "indexed": false,
          "internalType": "uint256",
          "name": "tokenId",
          "type": "uint256"
        },
        {
          "indexed": false,
          "internalType": "uint256",
          "name": "sellingPrice",
          "type": "uint256"
        },
        {
          "indexed": false,
          "internalType": "uint256",
          "name": "dailyLicensePrice",
          "type": "uint256"
        },
        {
          "indexed": false,
          "internalType": "string",
          "name": "tokenURI",
          "type": "string"
        },
        {
          "indexed": false,
          "internalType": "address",
          "name": "owner",
          "type": "address"
        }
      ],
      "name": "TokenMinted",
      "type": "event"
    },
    {
      "anonymous": false,
      "inputs": [
        {
          "indexed": false,
          "internalType": "uint256",
          "name": "tokenId",
          "type": "uint256"
        },
        {
          "indexed": false,
          "internalType": "address",
          "name": "oldOwner",
          "type": "address"
        },
        {
          "indexed": false,
          "internalType": "address",
          "name": "newOwner",
          "type": "address"
        },
        {
          "indexed": false,
          "internalType": "uint256",
          "name": "price",
          "type": "uint256"
        },
        {
          "indexed": false,
          "internalType": "uint256",
          "name": "timestamp",
          "type": "uint256"
        }
      ],
      "name": "TokenPurchased",
      "type": "event"
    },
    {
      "anonymous": false,
      "inputs": [
        {
          "indexed": true,
          "internalType": "address",
          "name": "from",
          "type": "address"
        },
        {
          "indexed": true,
          "internalType": "address",
          "name": "to",
          "type": "address"
        },
        {
          "indexed": true,
          "internalType": "uint256",
          "name": "tokenId",
          "type": "uint256"
        }
      ],
      "name": "Transfer",
      "type": "event"
    },
    {
      "inputs": [
        {
          "internalType": "address",
          "name": "to",
          "type": "address"
        },
        {
          "internalType": "uint256",
          "name": "tokenId",
          "type": "uint256"
        }
      ],
      "name": "approve",
      "outputs": [],
      "stateMutability": "nonpayable",
      "type": "function"
    },
    {
      "inputs": [],
      "name": "artistLicenseRoyalty",
      "outputs": [
        {
          "internalType": "uint256",
          "name": "",
          "type": "uint256"
        }
      ],
      "stateMutability": "view",
      "type": "function"
    },
    {
      "inputs": [],
      "name": "artistResellingRoyalty",
      "outputs": [
        {
          "internalType": "uint256",
          "name": "",
          "type": "uint256"
        }
      ],
      "stateMutability": "view",
      "type": "function"
    },
    {
      "inputs": [
        {
          "internalType": "address",
          "name": "owner",
          "type": "address"
        }
      ],
      "name": "balanceOf",
      "outputs": [
        {
          "internalType": "uint256",
          "name": "",
          "type": "uint256"
        }
      ],
      "stateMutability": "view",
      "type": "function"
    },
    {
      "inputs": [
        {
          "internalType": "address",
          "name": "_licensee",
          "type": "address"
        }
      ],
      "name": "getAllLicensesForLicensee",
      "outputs": [
        {
          "components": [
            {
              "internalType": "uint256",
              "name": "tokenId",
              "type": "uint256"
            },
            {
              "internalType": "uint256",
              "name": "start",
              "type": "uint256"
            },
            {
              "internalType": "uint256",
              "name": "end",
              "type": "uint256"
            },
            {
              "internalType": "uint256",
              "name": "price",
              "type": "uint256"
            },
            {
              "internalType": "address",
              "name": "recipient",
              "type": "address"
            }
          ],
          "internalType": "struct DigitalArt.License[]",
          "name": "_licenses",
          "type": "tuple[]"
        }
      ],
      "stateMutability": "view",
      "type": "function"
    },
    {
      "inputs": [
        {
          "internalType": "uint256",
          "name": "_tokenId",
          "type": "uint256"
        }
      ],
      "name": "getAllLicensesForToken",
      "outputs": [
        {
          "components": [
            {
              "internalType": "uint256",
              "name": "tokenId",
              "type": "uint256"
            },
            {
              "internalType": "uint256",
              "name": "start",
              "type": "uint256"
            },
            {
              "internalType": "uint256",
              "name": "end",
              "type": "uint256"
            },
            {
              "internalType": "uint256",
              "name": "price",
              "type": "uint256"
            },
            {
              "internalType": "address",
              "name": "recipient",
              "type": "address"
            }
          ],
          "internalType": "struct DigitalArt.License[]",
          "name": "_licenses",
          "type": "tuple[]"
        }
      ],
      "stateMutability": "view",
      "type": "function"
    },
    {
      "inputs": [
        {
          "internalType": "uint256",
          "name": "tokenId",
          "type": "uint256"
        }
      ],
      "name": "getApproved",
      "outputs": [
        {
          "internalType": "address",
          "name": "",
          "type": "address"
        }
      ],
      "stateMutability": "view",
      "type": "function"
    },
    {
      "inputs": [
        {
          "internalType": "address",
          "name": "_owner",
          "type": "address"
        },
        {
          "internalType": "uint256",
          "name": "_idx",
          "type": "uint256"
        }
      ],
      "name": "getIdFromIndexForOwner",
      "outputs": [
        {
          "internalType": "uint256",
          "name": "_id",
          "type": "uint256"
        }
      ],
      "stateMutability": "view",
      "type": "function"
    },
    {
      "inputs": [
        {
          "internalType": "address",
          "name": "_owner",
          "type": "address"
        }
      ],
      "name": "getNumberOfTokensForOwner",
      "outputs": [
        {
          "internalType": "uint256",
          "name": "_total",
          "type": "uint256"
        }
      ],
      "stateMutability": "view",
      "type": "function"
    },
    {
      "inputs": [
        {
          "internalType": "uint256",
          "name": "",
          "type": "uint256"
        },
        {
          "internalType": "uint256",
          "name": "",
          "type": "uint256"
        }
      ],
      "name": "idToLicenses",
      "outputs": [
        {
          "internalType": "uint256",
          "name": "tokenId",
          "type": "uint256"
        },
        {
          "internalType": "uint256",
          "name": "start",
          "type": "uint256"
        },
        {
          "internalType": "uint256",
          "name": "end",
          "type": "uint256"
        },
        {
          "internalType": "uint256",
          "name": "price",
          "type": "uint256"
        },
        {
          "internalType": "address",
          "name": "recipient",
          "type": "address"
        }
      ],
      "stateMutability": "view",
      "type": "function"
    },
    {
      "inputs": [
        {
          "internalType": "uint256",
          "name": "",
          "type": "uint256"
        }
      ],
      "name": "idToNFT",
      "outputs": [
        {
          "internalType": "uint256",
          "name": "id",
          "type": "uint256"
        },
        {
          "internalType": "uint256",
          "name": "sellingPrice",
          "type": "uint256"
        },
        {
          "internalType": "uint256",
          "name": "dailyLicensePrice",
          "type": "uint256"
        },
        {
          "internalType": "string",
          "name": "uri",
          "type": "string"
        },
        {
          "internalType": "address payable",
          "name": "artist",
          "type": "address"
        },
        {
          "internalType": "address payable",
          "name": "owner",
          "type": "address"
        }
      ],
      "stateMutability": "view",
      "type": "function"
    },
    {
      "inputs": [
        {
          "internalType": "address",
          "name": "owner",
          "type": "address"
        },
        {
          "internalType": "address",
          "name": "operator",
          "type": "address"
        }
      ],
      "name": "isApprovedForAll",
      "outputs": [
        {
          "internalType": "bool",
          "name": "",
          "type": "bool"
        }
      ],
      "stateMutability": "view",
      "type": "function"
    },
    {
      "inputs": [],
      "name": "name",
      "outputs": [
        {
          "internalType": "string",
          "name": "",
          "type": "string"
        }
      ],
      "stateMutability": "view",
      "type": "function"
    },
    {
      "inputs": [
        {
          "internalType": "uint256",
          "name": "tokenId",
          "type": "uint256"
        }
      ],
      "name": "ownerOf",
      "outputs": [
        {
          "internalType": "address",
          "name": "",
          "type": "address"
        }
      ],
      "stateMutability": "view",
      "type": "function"
    },
    {
      "inputs": [
        {
          "internalType": "uint256",
          "name": "_tokenId",
          "type": "uint256"
        },
        {
          "internalType": "uint256",
          "name": "_days",
          "type": "uint256"
        }
      ],
      "name": "purchaseLicense",
      "outputs": [],
      "stateMutability": "payable",
      "type": "function"
    },
    {
      "inputs": [
        {
          "internalType": "uint256",
          "name": "_tokenId",
          "type": "uint256"
        }
      ],
      "name": "purchaseNFT",
      "outputs": [],
      "stateMutability": "payable",
      "type": "function"
    },
    {
      "inputs": [
        {
          "internalType": "string",
          "name": "_tokenURI",
          "type": "string"
        },
        {
          "internalType": "uint256",
          "name": "_sellingPrice",
          "type": "uint256"
        },
        {
          "internalType": "uint256",
          "name": "_dailyLicensePrice",
          "type": "uint256"
        }
      ],
      "name": "safeMint",
      "outputs": [
        {
          "internalType": "uint256",
          "name": "_newTokenId",
          "type": "uint256"
        }
      ],
      "stateMutability": "nonpayable",
      "type": "function"
    },
    {
      "inputs": [
        {
          "internalType": "address",
          "name": "from",
          "type": "address"
        },
        {
          "internalType": "address",
          "name": "to",
          "type": "address"
        },
        {
          "internalType": "uint256",
          "name": "tokenId",
          "type": "uint256"
        }
      ],
      "name": "safeTransferFrom",
      "outputs": [],
      "stateMutability": "nonpayable",
      "type": "function"
    },
    {
      "inputs": [
        {
          "internalType": "address",
          "name": "from",
          "type": "address"
        },
        {
          "internalType": "address",
          "name": "to",
          "type": "address"
        },
        {
          "internalType": "uint256",
          "name": "tokenId",
          "type": "uint256"
        },
        {
          "internalType": "bytes",
          "name": "_data",
          "type": "bytes"
        }
      ],
      "name": "safeTransferFrom",
      "outputs": [],
      "stateMutability": "nonpayable",
      "type": "function"
    },
    {
      "inputs": [
        {
          "internalType": "address",
          "name": "operator",
          "type": "address"
        },
        {
          "internalType": "bool",
          "name": "approved",
          "type": "bool"
        }
      ],
      "name": "setApprovalForAll",
      "outputs": [],
      "stateMutability": "nonpayable",
      "type": "function"
    },
    {
      "inputs": [
        {
          "internalType": "bytes4",
          "name": "interfaceId",
          "type": "bytes4"
        }
      ],
      "name": "supportsInterface",
      "outputs": [
        {
          "internalType": "bool",
          "name": "",
          "type": "bool"
        }
      ],
      "stateMutability": "view",
      "type": "function"
    },
    {
      "inputs": [],
      "name": "symbol",
      "outputs": [
        {
          "internalType": "string",
          "name": "",
          "type": "string"
        }
      ],
      "stateMutability": "view",
      "type": "function"
    },
    {
      "inputs": [
        {
          "internalType": "uint256",
          "name": "tokenId",
          "type": "uint256"
        }
      ],
      "name": "tokenURI",
      "outputs": [
        {
          "internalType": "string",
          "name": "",
          "type": "string"
        }
      ],
      "stateMutability": "view",
      "type": "function"
    },
    {
      "inputs": [
        {
          "internalType": "address",
          "name": "from",
          "type": "address"
        },
        {
          "internalType": "address",
          "name": "to",
          "type": "address"
        },
        {
          "internalType": "uint256",
          "name": "tokenId",
          "type": "uint256"
        }
      ],
      "name": "transferFrom",
      "outputs": [],
      "stateMutability": "nonpayable",
      "type": "function"
    },
    {
      "inputs": [
        {
          "internalType": "uint256",
          "name": "_tokenId",
          "type": "uint256"
        },
        {
          "internalType": "uint256",
          "name": "_newDailyLicensePrice",
          "type": "uint256"
        }
      ],
      "name": "updateDailyLicensePrice",
      "outputs": [],
      "stateMutability": "nonpayable",
      "type": "function"
    },
    {
      "inputs": [
        {
          "internalType": "uint256",
          "name": "_tokenId",
          "type": "uint256"
        },
        {
          "internalType": "uint256",
          "name": "_newSellingPrice",
          "type": "uint256"
        }
      ],
      "name": "updateSellingPrice",
      "outputs": [],
      "stateMutability": "nonpayable",
      "type": "function"
    }
  ],
  "bytecode": "0x60806040526007805560036008553480156200001a57600080fd5b506040518060400160405280600a81526020017f4469676974616c417274000000000000000000000000000000000000000000008152506040518060400160405280600381526020017f444154000000000000000000000000000000000000000000000000000000000081525081600090805190602001906200009f929190620000c1565b508060019080519060200190620000b8929190620000c1565b505050620001d6565b828054620000cf9062000171565b90600052602060002090601f016020900481019282620000f357600085556200013f565b82601f106200010e57805160ff19168380011785556200013f565b828001600101855582156200013f579182015b828111156200013e57825182559160200191906001019062000121565b5b5090506200014e919062000152565b5090565b5b808211156200016d57600081600090555060010162000153565b5090565b600060028204905060018216806200018a57607f821691505b60208210811415620001a157620001a0620001a7565b5b50919050565b7f4e487b7100000000000000000000000000000000000000000000000000000000600052602260045260246000fd5b615d4b80620001e66000396000f3fe6080604052600436106101815760003560e01c806361d317d3116100d157806395d89b411161008a578063c87b56dd11610064578063c87b56dd146105db578063cd1f6ed914610618578063d650f94c14610643578063e985e9c51461066e57610181565b806395d89b411461055e578063a22cb46514610589578063b88d4fde146105b257610181565b806361d317d3146104045780636352211e1461042d5780636e1f94e11461046a5780636f694366146104a757806370a08231146104e45780638313a3fd1461052157610181565b806323b872dd1161013e57806333aa49cd1161011857806333aa49cd1461032f57806342842e0e14610371578063571a2b6f1461039a57806360a9bdd7146103c357610181565b806323b872dd1461028c5780632407f683146102b55780632ef6ea7a146102f257610181565b806301ffc9a71461018657806306fdde03146101c3578063081812fc146101ee578063095ea7b31461022b57806310e52a3a14610254578063150bde0314610270575b600080fd5b34801561019257600080fd5b506101ad60048036038101906101a891906142fc565b6106ab565b6040516101ba919061517c565b60405180910390f35b3480156101cf57600080fd5b506101d861078d565b6040516101e59190615197565b60405180910390f35b3480156101fa57600080fd5b50610215600480360381019061021091906143b5565b61081f565b6040516102229190615093565b60405180910390f35b34801561023757600080fd5b50610252600480360381019061024d919061427f565b6108a4565b005b61026e600480360381019061026991906143de565b6109bc565b005b61028a600480360381019061028591906143b5565b610fba565b005b34801561029857600080fd5b506102b360048036038101906102ae9190614179565b611600565b005b3480156102c157600080fd5b506102dc60048036038101906102d7919061427f565b611660565b6040516102e991906155d9565b60405180910390f35b3480156102fe57600080fd5b50610319600480360381019061031491906143b5565b6116bb565b604051610326919061515a565b60405180910390f35b34801561033b57600080fd5b50610356600480360381019061035191906143b5565b6117ab565b604051610368969594939291906156d8565b60405180910390f35b34801561037d57600080fd5b5061039860048036038101906103939190614179565b6118af565b005b3480156103a657600080fd5b506103c160048036038101906103bc91906143de565b6118cf565b005b3480156103cf57600080fd5b506103ea60048036038101906103e591906143de565b611d14565b6040516103fb959493929190615740565b60405180910390f35b34801561041057600080fd5b5061042b600480360381019061042691906143de565b611d87565b005b34801561043957600080fd5b50610454600480360381019061044f91906143b5565b61216f565b6040516104619190615093565b60405180910390f35b34801561047657600080fd5b50610491600480360381019061048c919061434e565b612221565b60405161049e91906155d9565b60405180910390f35b3480156104b357600080fd5b506104ce60048036038101906104c99190614114565b61253c565b6040516104db919061515a565b60405180910390f35b3480156104f057600080fd5b5061050b60048036038101906105069190614114565b612658565b60405161051891906155d9565b60405180910390f35b34801561052d57600080fd5b5061054860048036038101906105439190614114565b612710565b60405161055591906155d9565b60405180910390f35b34801561056a57600080fd5b50610573612760565b6040516105809190615197565b60405180910390f35b34801561059557600080fd5b506105b060048036038101906105ab9190614243565b6127f2565b005b3480156105be57600080fd5b506105d960048036038101906105d491906141c8565b612973565b005b3480156105e757600080fd5b5061060260048036038101906105fd91906143b5565b6129d5565b60405161060f9190615197565b60405180910390f35b34801561062457600080fd5b5061062d612b27565b60405161063a91906155d9565b60405180910390f35b34801561064f57600080fd5b50610658612b2d565b60405161066591906155d9565b60405180910390f35b34801561067a57600080fd5b506106956004803603810190610690919061413d565b612b33565b6040516106a2919061517c565b60405180910390f35b60007f80ac58cd000000000000000000000000000000000000000000000000000000007bffffffffffffffffffffffffffffffffffffffffffffffffffffffff1916827bffffffffffffffffffffffffffffffffffffffffffffffffffffffff1916148061077657507f5b5e139f000000000000000000000000000000000000000000000000000000007bffffffffffffffffffffffffffffffffffffffffffffffffffffffff1916827bffffffffffffffffffffffffffffffffffffffffffffffffffffffff1916145b80610786575061078582612bc7565b5b9050919050565b60606000805461079c90615b40565b80601f01602080910402602001604051908101604052809291908181526020018280546107c890615b40565b80156108155780601f106107ea57610100808354040283529160200191610815565b820191906000526020600020905b8154815290600101906020018083116107f857829003601f168201915b5050505050905090565b600061082a82612c31565b610869576040517f08c379a000000000000000000000000000000000000000000000000000000000815260040161086090615499565b60405180910390fd5b6004600083815260200190815260200160002060009054906101000a900473ffffffffffffffffffffffffffffffffffffffff169050919050565b60006108af8261216f565b90508073ffffffffffffffffffffffffffffffffffffffff168373ffffffffffffffffffffffffffffffffffffffff161415610920576040517f08c379a0000000000000000000000000000000000000000000000000000000008152600401610917906154f9565b60405180910390fd5b8073ffffffffffffffffffffffffffffffffffffffff1661093f612c9d565b73ffffffffffffffffffffffffffffffffffffffff16148061096e575061096d81610968612c9d565b612b33565b5b6109ad576040517f08c379a00000000000000000000000000000000000000000000000000000000081526004016109a490615399565b60405180910390fd5b6109b78383612ca5565b505050565b6000600a60008481526020019081526020016000206040518060c0016040529081600082015481526020016001820154815260200160028201548152602001600382018054610a0a90615b40565b80601f0160208091040260200160405190810160405280929190818152602001828054610a3690615b40565b8015610a835780601f10610a5857610100808354040283529160200191610a83565b820191906000526020600020905b815481529060010190602001808311610a6657829003601f168201915b505050505081526020016004820160009054906101000a900473ffffffffffffffffffffffffffffffffffffffff1673ffffffffffffffffffffffffffffffffffffffff1673ffffffffffffffffffffffffffffffffffffffff1681526020016005820160009054906101000a900473ffffffffffffffffffffffffffffffffffffffff1673ffffffffffffffffffffffffffffffffffffffff1673ffffffffffffffffffffffffffffffffffffffff16815250509050610b44600b612d5e565b8311158015610b565750828160000151145b610b95576040517f08c379a0000000000000000000000000000000000000000000000000000000008152600401610b8c90615419565b60405180910390fd5b3373ffffffffffffffffffffffffffffffffffffffff168160a0015173ffffffffffffffffffffffffffffffffffffffff161415610c08576040517f08c379a0000000000000000000000000000000000000000000000000000000008152600401610bff906152b9565b60405180910390fd5b6000816040015111610c4f576040517f08c379a0000000000000000000000000000000000000000000000000000000008152600401610c46906155b9565b60405180910390fd5b60008211610c92576040517f08c379a0000000000000000000000000000000000000000000000000000000008152600401610c89906151f9565b60405180910390fd5b34828260400151610ca391906159b4565b1115610ce4576040517f08c379a0000000000000000000000000000000000000000000000000000000008152600401610cdb90615359565b60405180910390fd5b610cee3384612d6c565b60006008546064848460400151610d0591906159b4565b610d0f9190615983565b610d1991906159b4565b9050600081848460400151610d2e91906159b4565b610d389190615a0e565b9050610d48836080015183612f9f565b610d568360a0015182612f9f565b60006305265c0085610d6891906159b4565b905060006040518060a001604052808881526020016103e842610d8b91906159b4565b8152602001836103e842610d9f91906159b4565b610da9919061592d565b81526020013481526020013373ffffffffffffffffffffffffffffffffffffffff168152509050600e60003373ffffffffffffffffffffffffffffffffffffffff1673ffffffffffffffffffffffffffffffffffffffff1681526020019081526020016000208190806001815401808255809150506001900390600052602060002090600502016000909190919091506000820151816000015560208201518160010155604082015181600201556060820151816003015560808201518160040160006101000a81548173ffffffffffffffffffffffffffffffffffffffff021916908373ffffffffffffffffffffffffffffffffffffffff1602179055505050600960008881526020019081526020016000208190806001815401808255809150506001900390600052602060002090600502016000909190919091506000820151816000015560208201518160010155604082015181600201556060820151816003015560808201518160040160006101000a81548173ffffffffffffffffffffffffffffffffffffffff021916908373ffffffffffffffffffffffffffffffffffffffff16021790555050507fee6d96e6bb15c556dad9055c074dc60e2b01d0b67378d3922ccbbad8d4d7ea8a878734856103e842610f8b91906159b4565b610f95919061592d565b3342604051610fa996959493929190615793565b60405180910390a150505050505050565b6000600a60008381526020019081526020016000206040518060c001604052908160008201548152602001600182015481526020016002820154815260200160038201805461100890615b40565b80601f016020809104026020016040519081016040528092919081815260200182805461103490615b40565b80156110815780601f1061105657610100808354040283529160200191611081565b820191906000526020600020905b81548152906001019060200180831161106457829003601f168201915b505050505081526020016004820160009054906101000a900473ffffffffffffffffffffffffffffffffffffffff1673ffffffffffffffffffffffffffffffffffffffff1673ffffffffffffffffffffffffffffffffffffffff1681526020016005820160009054906101000a900473ffffffffffffffffffffffffffffffffffffffff1673ffffffffffffffffffffffffffffffffffffffff1673ffffffffffffffffffffffffffffffffffffffff16815250509050611142600b612d5e565b82111580156111545750818160000151145b611193576040517f08c379a000000000000000000000000000000000000000000000000000000000815260040161118a90615419565b60405180910390fd5b3373ffffffffffffffffffffffffffffffffffffffff168160a0015173ffffffffffffffffffffffffffffffffffffffff161415611206576040517f08c379a00000000000000000000000000000000000000000000000000000000081526004016111fd906152b9565b60405180910390fd5b600081602001511161124d576040517f08c379a000000000000000000000000000000000000000000000000000000000815260040161124490615599565b60405180910390fd5b3481602001511115611294576040517f08c379a000000000000000000000000000000000000000000000000000000000815260040161128b90615359565b60405180910390fd5b6000600754606483602001516112aa9190615983565b6112b491906159b4565b905060008183602001516112c89190615a0e565b905061131f8360000151600d60003373ffffffffffffffffffffffffffffffffffffffff1673ffffffffffffffffffffffffffffffffffffffff16815260200190815260200160002061305090919063ffffffff16565b61135e576040517f08c379a000000000000000000000000000000000000000000000000000000000815260040161135590615559565b60405180910390fd5b6113b78360000151600d60008660a0015173ffffffffffffffffffffffffffffffffffffffff1673ffffffffffffffffffffffffffffffffffffffff16815260200190815260200160002061306a90919063ffffffff16565b6113f6576040517f08c379a00000000000000000000000000000000000000000000000000000000081526004016113ed90615539565b60405180910390fd5b7f892605e5aa205718bf5422cbe570beb6c419fe374afe9a7f9c8fc114b99020a8848460a001513334426040516114319594939291906155f4565b60405180910390a13073ffffffffffffffffffffffffffffffffffffffff166342842e0e8460a001513386600001516040518463ffffffff1660e01b815260040161147e939291906150ae565b600060405180830381600087803b15801561149857600080fd5b505af11580156114ac573d6000803e3d6000fd5b505050506114be836080015183612f9f565b6114cc8360a0015182612f9f565b338360a0019073ffffffffffffffffffffffffffffffffffffffff16908173ffffffffffffffffffffffffffffffffffffffff16815250506000836020018181525050600083604001818152505082600a60008681526020019081526020016000206000820151816000015560208201518160010155604082015181600201556060820151816003019080519060200190611568929190613df0565b5060808201518160040160006101000a81548173ffffffffffffffffffffffffffffffffffffffff021916908373ffffffffffffffffffffffffffffffffffffffff16021790555060a08201518160050160006101000a81548173ffffffffffffffffffffffffffffffffffffffff021916908373ffffffffffffffffffffffffffffffffffffffff16021790555090505050505050565b61161161160b612c9d565b82613084565b611650576040517f08c379a000000000000000000000000000000000000000000000000000000000815260040161164790615579565b60405180910390fd5b61165b838383613162565b505050565b60006116b382600d60008673ffffffffffffffffffffffffffffffffffffffff1673ffffffffffffffffffffffffffffffffffffffff1681526020019081526020016000206133be90919063ffffffff16565b905092915050565b606060096000838152602001908152602001600020805480602002602001604051908101604052809291908181526020016000905b828210156117a057838290600052602060002090600502016040518060a0016040529081600082015481526020016001820154815260200160028201548152602001600382015481526020016004820160009054906101000a900473ffffffffffffffffffffffffffffffffffffffff1673ffffffffffffffffffffffffffffffffffffffff1673ffffffffffffffffffffffffffffffffffffffff1681525050815260200190600101906116f0565b505050509050919050565b600a6020528060005260406000206000915090508060000154908060010154908060020154908060030180546117e090615b40565b80601f016020809104026020016040519081016040528092919081815260200182805461180c90615b40565b80156118595780601f1061182e57610100808354040283529160200191611859565b820191906000526020600020905b81548152906001019060200180831161183c57829003601f168201915b5050505050908060040160009054906101000a900473ffffffffffffffffffffffffffffffffffffffff16908060050160009054906101000a900473ffffffffffffffffffffffffffffffffffffffff16905086565b6118ca83838360405180602001604052806000815250612973565b505050565b6000600a60008481526020019081526020016000206040518060c001604052908160008201548152602001600182015481526020016002820154815260200160038201805461191d90615b40565b80601f016020809104026020016040519081016040528092919081815260200182805461194990615b40565b80156119965780601f1061196b57610100808354040283529160200191611996565b820191906000526020600020905b81548152906001019060200180831161197957829003601f168201915b505050505081526020016004820160009054906101000a900473ffffffffffffffffffffffffffffffffffffffff1673ffffffffffffffffffffffffffffffffffffffff1673ffffffffffffffffffffffffffffffffffffffff1681526020016005820160009054906101000a900473ffffffffffffffffffffffffffffffffffffffff1673ffffffffffffffffffffffffffffffffffffffff1673ffffffffffffffffffffffffffffffffffffffff16815250509050611a57600b612d5e565b8311158015611a695750828160000151145b611aa8576040517f08c379a0000000000000000000000000000000000000000000000000000000008152600401611a9f90615419565b60405180910390fd5b3373ffffffffffffffffffffffffffffffffffffffff168160a0015173ffffffffffffffffffffffffffffffffffffffff1614611b1a576040517f08c379a0000000000000000000000000000000000000000000000000000000008152600401611b1190615339565b60405180910390fd5b60008160200151148015611b2e5750600082115b80611b4a575060008160200151118015611b49575060008210155b5b611b89576040517f08c379a0000000000000000000000000000000000000000000000000000000008152600401611b8090615259565b60405180910390fd5b7ffbf96fcc78e52dc724126274324663c8a5bc540e16d8133f3d113477187329e883826020015184604051611bc093929190615647565b60405180910390a1600073ffffffffffffffffffffffffffffffffffffffff16611be98461081f565b73ffffffffffffffffffffffffffffffffffffffff161415611c1057611c0f30846108a4565b5b6000821415611c2557611c246000846108a4565b5b8181602001818152505080600a60008581526020019081526020016000206000820151816000015560208201518160010155604082015181600201556060820151816003019080519060200190611c7d929190613df0565b5060808201518160040160006101000a81548173ffffffffffffffffffffffffffffffffffffffff021916908373ffffffffffffffffffffffffffffffffffffffff16021790555060a08201518160050160006101000a81548173ffffffffffffffffffffffffffffffffffffffff021916908373ffffffffffffffffffffffffffffffffffffffff160217905550905050505050565b60096020528160005260406000208181548110611d3057600080fd5b9060005260206000209060050201600091509150508060000154908060010154908060020154908060030154908060040160009054906101000a900473ffffffffffffffffffffffffffffffffffffffff16905085565b6000600a60008481526020019081526020016000206040518060c0016040529081600082015481526020016001820154815260200160028201548152602001600382018054611dd590615b40565b80601f0160208091040260200160405190810160405280929190818152602001828054611e0190615b40565b8015611e4e5780601f10611e2357610100808354040283529160200191611e4e565b820191906000526020600020905b815481529060010190602001808311611e3157829003601f168201915b505050505081526020016004820160009054906101000a900473ffffffffffffffffffffffffffffffffffffffff1673ffffffffffffffffffffffffffffffffffffffff1673ffffffffffffffffffffffffffffffffffffffff1681526020016005820160009054906101000a900473ffffffffffffffffffffffffffffffffffffffff1673ffffffffffffffffffffffffffffffffffffffff1673ffffffffffffffffffffffffffffffffffffffff16815250509050611f0f600b612d5e565b8311158015611f215750828160000151145b611f60576040517f08c379a0000000000000000000000000000000000000000000000000000000008152600401611f5790615419565b60405180910390fd5b3373ffffffffffffffffffffffffffffffffffffffff168160a0015173ffffffffffffffffffffffffffffffffffffffff1614611fd2576040517f08c379a0000000000000000000000000000000000000000000000000000000008152600401611fc990615339565b60405180910390fd5b60008160400151148015611fe65750600082115b80612002575060008160400151118015612001575060008210155b5b612041576040517f08c379a000000000000000000000000000000000000000000000000000000000815260040161203890615279565b60405180910390fd5b7fd74f4dda031330fab8da16fb8a42ef6b85772d9fe0a056e14a221a7fa18a2fe98382604001518460405161207893929190615647565b60405180910390a18181604001818152505080600a600085815260200190815260200160002060008201518160000155602082015181600101556040820151816002015560608201518160030190805190602001906120d8929190613df0565b5060808201518160040160006101000a81548173ffffffffffffffffffffffffffffffffffffffff021916908373ffffffffffffffffffffffffffffffffffffffff16021790555060a08201518160050160006101000a81548173ffffffffffffffffffffffffffffffffffffffff021916908373ffffffffffffffffffffffffffffffffffffffff160217905550905050505050565b6000806002600084815260200190815260200160002060009054906101000a900473ffffffffffffffffffffffffffffffffffffffff169050600073ffffffffffffffffffffffffffffffffffffffff168173ffffffffffffffffffffffffffffffffffffffff161415612218576040517f08c379a000000000000000000000000000000000000000000000000000000000815260040161220f906153d9565b60405180910390fd5b80915050919050565b600080600c856040516122349190615058565b90815260200160405180910390205414612283576040517f08c379a000000000000000000000000000000000000000000000000000000000815260040161227a90615519565b60405180910390fd5b600083116122c6576040517f08c379a00000000000000000000000000000000000000000000000000000000081526004016122bd906151d9565b60405180910390fd5b60008211612309576040517f08c379a000000000000000000000000000000000000000000000000000000000815260040161230090615379565b60405180910390fd5b612313600b6133d8565b600061231f600b612d5e565b905061232b33826133ee565b612335818661340c565b60006040518060c001604052808381526020018681526020018581526020018781526020013373ffffffffffffffffffffffffffffffffffffffff1681526020013373ffffffffffffffffffffffffffffffffffffffff16815250905080600a600084815260200190815260200160002060008201518160000155602082015181600101556040820151816002015560608201518160030190805190602001906123e0929190613df0565b5060808201518160040160006101000a81548173ffffffffffffffffffffffffffffffffffffffff021916908373ffffffffffffffffffffffffffffffffffffffff16021790555060a08201518160050160006101000a81548173ffffffffffffffffffffffffffffffffffffffff021916908373ffffffffffffffffffffffffffffffffffffffff1602179055509050506124c382600d60003373ffffffffffffffffffffffffffffffffffffffff1673ffffffffffffffffffffffffffffffffffffffff16815260200190815260200160002061305090919063ffffffff16565b5081600c876040516124d59190615058565b9081526020016040518091039020819055506124f130836108a4565b7f584e81111629cd59f3aa4829f0765e569d6e7f1a11237dc8733a72f6b2ee2c58828686893360405161252895949392919061567e565b60405180910390a181925050509392505050565b6060600e60008373ffffffffffffffffffffffffffffffffffffffff1673ffffffffffffffffffffffffffffffffffffffff168152602001908152602001600020805480602002602001604051908101604052809291908181526020016000905b8282101561264d57838290600052602060002090600502016040518060a0016040529081600082015481526020016001820154815260200160028201548152602001600382015481526020016004820160009054906101000a900473ffffffffffffffffffffffffffffffffffffffff1673ffffffffffffffffffffffffffffffffffffffff1673ffffffffffffffffffffffffffffffffffffffff16815250508152602001906001019061259d565b505050509050919050565b60008073ffffffffffffffffffffffffffffffffffffffff168273ffffffffffffffffffffffffffffffffffffffff1614156126c9576040517f08c379a00000000000000000000000000000000000000000000000000000000081526004016126c0906153b9565b60405180910390fd5b600360008373ffffffffffffffffffffffffffffffffffffffff1673ffffffffffffffffffffffffffffffffffffffff168152602001908152602001600020549050919050565b6000612759600d60008473ffffffffffffffffffffffffffffffffffffffff1673ffffffffffffffffffffffffffffffffffffffff168152602001908152602001600020613480565b9050919050565b60606001805461276f90615b40565b80601f016020809104026020016040519081016040528092919081815260200182805461279b90615b40565b80156127e85780601f106127bd576101008083540402835291602001916127e8565b820191906000526020600020905b8154815290600101906020018083116127cb57829003601f168201915b5050505050905090565b6127fa612c9d565b73ffffffffffffffffffffffffffffffffffffffff168273ffffffffffffffffffffffffffffffffffffffff161415612868576040517f08c379a000000000000000000000000000000000000000000000000000000000815260040161285f906152f9565b60405180910390fd5b8060056000612875612c9d565b73ffffffffffffffffffffffffffffffffffffffff1673ffffffffffffffffffffffffffffffffffffffff16815260200190815260200160002060008473ffffffffffffffffffffffffffffffffffffffff1673ffffffffffffffffffffffffffffffffffffffff16815260200190815260200160002060006101000a81548160ff0219169083151502179055508173ffffffffffffffffffffffffffffffffffffffff16612922612c9d565b73ffffffffffffffffffffffffffffffffffffffff167f17307eab39ab6107e8899845ad3d59bd9653f200f220920489ca2b5937696c3183604051612967919061517c565b60405180910390a35050565b61298461297e612c9d565b83613084565b6129c3576040517f08c379a00000000000000000000000000000000000000000000000000000000081526004016129ba90615579565b60405180910390fd5b6129cf84848484613495565b50505050565b60606129e082612c31565b612a1f576040517f08c379a0000000000000000000000000000000000000000000000000000000008152600401612a1690615479565b60405180910390fd5b6000600660008481526020019081526020016000208054612a3f90615b40565b80601f0160208091040260200160405190810160405280929190818152602001828054612a6b90615b40565b8015612ab85780601f10612a8d57610100808354040283529160200191612ab8565b820191906000526020600020905b815481529060010190602001808311612a9b57829003601f168201915b505050505090506000612ac96134f1565b9050600081511415612adf578192505050612b22565b600082511115612b14578082604051602001612afc92919061506f565b60405160208183030381529060405292505050612b22565b612b1d84613508565b925050505b919050565b60075481565b60085481565b6000600560008473ffffffffffffffffffffffffffffffffffffffff1673ffffffffffffffffffffffffffffffffffffffff16815260200190815260200160002060008373ffffffffffffffffffffffffffffffffffffffff1673ffffffffffffffffffffffffffffffffffffffff16815260200190815260200160002060009054906101000a900460ff16905092915050565b60007f01ffc9a7000000000000000000000000000000000000000000000000000000007bffffffffffffffffffffffffffffffffffffffffffffffffffffffff1916827bffffffffffffffffffffffffffffffffffffffffffffffffffffffff1916149050919050565b60008073ffffffffffffffffffffffffffffffffffffffff166002600084815260200190815260200160002060009054906101000a900473ffffffffffffffffffffffffffffffffffffffff1673ffffffffffffffffffffffffffffffffffffffff1614159050919050565b600033905090565b816004600083815260200190815260200160002060006101000a81548173ffffffffffffffffffffffffffffffffffffffff021916908373ffffffffffffffffffffffffffffffffffffffff160217905550808273ffffffffffffffffffffffffffffffffffffffff16612d188361216f565b73ffffffffffffffffffffffffffffffffffffffff167f8c5be1e5ebec7d5bd14f71427d1e84f3dd0314c0f7b2291e5b200ac8c7c3b92560405160405180910390a45050565b600081600001549050919050565b60003073ffffffffffffffffffffffffffffffffffffffff16632ef6ea7a836040518263ffffffff1660e01b8152600401612da791906155d9565b60006040518083038186803b158015612dbf57600080fd5b505afa158015612dd3573d6000803e3d6000fd5b505050506040513d6000823e3d601f19601f82011682018060405250810190612dfc91906142bb565b905060005b8151811015612f99578373ffffffffffffffffffffffffffffffffffffffff16828281518110612e5a577f4e487b7100000000000000000000000000000000000000000000000000000000600052603260045260246000fd5b60200260200101516080015173ffffffffffffffffffffffffffffffffffffffff16148015612ecc575042828281518110612ebe577f4e487b7100000000000000000000000000000000000000000000000000000000600052603260045260246000fd5b602002602001015160400151105b80612f4757508373ffffffffffffffffffffffffffffffffffffffff16828281518110612f22577f4e487b7100000000000000000000000000000000000000000000000000000000600052603260045260246000fd5b60200260200101516080015173ffffffffffffffffffffffffffffffffffffffff1614155b612f86576040517f08c379a0000000000000000000000000000000000000000000000000000000008152600401612f7d90615439565b60405180910390fd5b8080612f9190615b72565b915050612e01565b50505050565b7fc7b16f0c91d6e099a9fb831632a80052954f1f27b4c358262703709988e698568282604051612fd09291906150e5565b60405180910390a18173ffffffffffffffffffffffffffffffffffffffff166108fc829081150290604051600060405180830381858888f1935050505061304c576040517f08c379a000000000000000000000000000000000000000000000000000000000815260040161304390615299565b60405180910390fd5b5050565b6000613062836000018360001b6135af565b905092915050565b600061307c836000018360001b61361f565b905092915050565b600061308f82612c31565b6130ce576040517f08c379a00000000000000000000000000000000000000000000000000000000081526004016130c590615319565b60405180910390fd5b60006130d98361216f565b90508073ffffffffffffffffffffffffffffffffffffffff168473ffffffffffffffffffffffffffffffffffffffff16148061314857508373ffffffffffffffffffffffffffffffffffffffff166131308461081f565b73ffffffffffffffffffffffffffffffffffffffff16145b8061315957506131588185612b33565b5b91505092915050565b8273ffffffffffffffffffffffffffffffffffffffff166131828261216f565b73ffffffffffffffffffffffffffffffffffffffff16146131d8576040517f08c379a00000000000000000000000000000000000000000000000000000000081526004016131cf906154b9565b60405180910390fd5b600073ffffffffffffffffffffffffffffffffffffffff168273ffffffffffffffffffffffffffffffffffffffff161415613248576040517f08c379a000000000000000000000000000000000000000000000000000000000815260040161323f906152d9565b60405180910390fd5b61325383838361379d565b61325e600082612ca5565b6001600360008573ffffffffffffffffffffffffffffffffffffffff1673ffffffffffffffffffffffffffffffffffffffff16815260200190815260200160002060008282546132ae9190615a0e565b925050819055506001600360008473ffffffffffffffffffffffffffffffffffffffff1673ffffffffffffffffffffffffffffffffffffffff1681526020019081526020016000206000828254613305919061592d565b92505081905550816002600083815260200190815260200160002060006101000a81548173ffffffffffffffffffffffffffffffffffffffff021916908373ffffffffffffffffffffffffffffffffffffffff160217905550808273ffffffffffffffffffffffffffffffffffffffff168473ffffffffffffffffffffffffffffffffffffffff167fddf252ad1be2c89b69c2b068fc378daa952ba7f163c4a11628f55a4df523b3ef60405160405180910390a4505050565b60006133cd83600001836137a2565b60001c905092915050565b6001816000016000828254019250508190555050565b61340882826040518060200160405280600081525061383c565b5050565b61341582612c31565b613454576040517f08c379a000000000000000000000000000000000000000000000000000000000815260040161344b906153f9565b60405180910390fd5b8060066000848152602001908152602001600020908051906020019061347b929190613df0565b505050565b600061348e82600001613897565b9050919050565b6134a0848484613162565b6134ac848484846138a8565b6134eb576040517f08c379a00000000000000000000000000000000000000000000000000000000081526004016134e290615219565b60405180910390fd5b50505050565b606060405180602001604052806000815250905090565b606061351382612c31565b613552576040517f08c379a0000000000000000000000000000000000000000000000000000000008152600401613549906154d9565b60405180910390fd5b600061355c6134f1565b9050600081511161357c57604051806020016040528060008152506135a7565b8061358684613a3f565b60405160200161359792919061506f565b6040516020818303038152906040525b915050919050565b60006135bb8383613bec565b613614578260000182908060018154018082558091505060019003906000526020600020016000909190919091505582600001805490508360010160008481526020019081526020016000208190555060019050613619565b600090505b92915050565b600080836001016000848152602001908152602001600020549050600081146137915760006001826136519190615a0e565b90506000600186600001805490506136699190615a0e565b905060008660000182815481106136a9577f4e487b7100000000000000000000000000000000000000000000000000000000600052603260045260246000fd5b90600052602060002001549050808760000184815481106136f3577f4e487b7100000000000000000000000000000000000000000000000000000000600052603260045260246000fd5b9060005260206000200181905550838760010160008381526020019081526020016000208190555086600001805480613755577f4e487b7100000000000000000000000000000000000000000000000000000000600052603160045260246000fd5b60019003818190600052602060002001600090559055866001016000878152602001908152602001600020600090556001945050505050613797565b60009150505b92915050565b505050565b6000818360000180549050116137ed576040517f08c379a00000000000000000000000000000000000000000000000000000000081526004016137e4906151b9565b60405180910390fd5b826000018281548110613829577f4e487b7100000000000000000000000000000000000000000000000000000000600052603260045260246000fd5b9060005260206000200154905092915050565b6138468383613c0f565b61385360008484846138a8565b613892576040517f08c379a000000000000000000000000000000000000000000000000000000000815260040161388990615219565b60405180910390fd5b505050565b600081600001805490509050919050565b60006138c98473ffffffffffffffffffffffffffffffffffffffff16613ddd565b15613a32578373ffffffffffffffffffffffffffffffffffffffff1663150b7a026138f2612c9d565b8786866040518563ffffffff1660e01b8152600401613914949392919061510e565b602060405180830381600087803b15801561392e57600080fd5b505af192505050801561395f57506040513d601f19601f8201168201806040525081019061395c9190614325565b60015b6139e2573d806000811461398f576040519150601f19603f3d011682016040523d82523d6000602084013e613994565b606091505b506000815114156139da576040517f08c379a00000000000000000000000000000000000000000000000000000000081526004016139d190615219565b60405180910390fd5b805181602001fd5b63150b7a0260e01b7bffffffffffffffffffffffffffffffffffffffffffffffffffffffff1916817bffffffffffffffffffffffffffffffffffffffffffffffffffffffff191614915050613a37565b600190505b949350505050565b60606000821415613a87576040518060400160405280600181526020017f30000000000000000000000000000000000000000000000000000000000000008152509050613be7565b600082905060005b60008214613ab9578080613aa290615b72565b915050600a82613ab29190615983565b9150613a8f565b60008167ffffffffffffffff811115613afb577f4e487b7100000000000000000000000000000000000000000000000000000000600052604160045260246000fd5b6040519080825280601f01601f191660200182016040528015613b2d5781602001600182028036833780820191505090505b5090505b60008514613be057600182613b469190615a0e565b9150600a85613b559190615bbb565b6030613b61919061592d565b60f81b818381518110613b9d577f4e487b7100000000000000000000000000000000000000000000000000000000600052603260045260246000fd5b60200101907effffffffffffffffffffffffffffffffffffffffffffffffffffffffffffff1916908160001a905350600a85613bd99190615983565b9450613b31565b8093505050505b919050565b600080836001016000848152602001908152602001600020541415905092915050565b600073ffffffffffffffffffffffffffffffffffffffff168273ffffffffffffffffffffffffffffffffffffffff161415613c7f576040517f08c379a0000000000000000000000000000000000000000000000000000000008152600401613c7690615459565b60405180910390fd5b613c8881612c31565b15613cc8576040517f08c379a0000000000000000000000000000000000000000000000000000000008152600401613cbf90615239565b60405180910390fd5b613cd46000838361379d565b6001600360008473ffffffffffffffffffffffffffffffffffffffff1673ffffffffffffffffffffffffffffffffffffffff1681526020019081526020016000206000828254613d24919061592d565b92505081905550816002600083815260200190815260200160002060006101000a81548173ffffffffffffffffffffffffffffffffffffffff021916908373ffffffffffffffffffffffffffffffffffffffff160217905550808273ffffffffffffffffffffffffffffffffffffffff16600073ffffffffffffffffffffffffffffffffffffffff167fddf252ad1be2c89b69c2b068fc378daa952ba7f163c4a11628f55a4df523b3ef60405160405180910390a45050565b600080823b905060008111915050919050565b828054613dfc90615b40565b90600052602060002090601f016020900481019282613e1e5760008555613e65565b82601f10613e3757805160ff1916838001178555613e65565b82800160010185558215613e65579182015b82811115613e64578251825591602001919060010190613e49565b5b509050613e729190613e76565b5090565b5b80821115613e8f576000816000905550600101613e77565b5090565b6000613ea6613ea184615825565b6157f4565b905080838252602082019050828560a0860282011115613ec557600080fd5b60005b85811015613ef55781613edb8882614062565b845260208401935060a08301925050600181019050613ec8565b5050509392505050565b6000613f12613f0d84615851565b6157f4565b905082815260208101848484011115613f2a57600080fd5b613f35848285615afe565b509392505050565b6000613f50613f4b84615881565b6157f4565b905082815260208101848484011115613f6857600080fd5b613f73848285615afe565b509392505050565b600081359050613f8a81615cb9565b92915050565b600081519050613f9f81615cb9565b92915050565b600082601f830112613fb657600080fd5b8151613fc6848260208601613e93565b91505092915050565b600081359050613fde81615cd0565b92915050565b600081359050613ff381615ce7565b92915050565b60008151905061400881615ce7565b92915050565b600082601f83011261401f57600080fd5b813561402f848260208601613eff565b91505092915050565b600082601f83011261404957600080fd5b8135614059848260208601613f3d565b91505092915050565b600060a0828403121561407457600080fd5b61407e60a06157f4565b9050600061408e848285016140ff565b60008301525060206140a2848285016140ff565b60208301525060406140b6848285016140ff565b60408301525060606140ca848285016140ff565b60608301525060806140de84828501613f90565b60808301525092915050565b6000813590506140f981615cfe565b92915050565b60008151905061410e81615cfe565b92915050565b60006020828403121561412657600080fd5b600061413484828501613f7b565b91505092915050565b6000806040838503121561415057600080fd5b600061415e85828601613f7b565b925050602061416f85828601613f7b565b9150509250929050565b60008060006060848603121561418e57600080fd5b600061419c86828701613f7b565b93505060206141ad86828701613f7b565b92505060406141be868287016140ea565b9150509250925092565b600080600080608085870312156141de57600080fd5b60006141ec87828801613f7b565b94505060206141fd87828801613f7b565b935050604061420e878288016140ea565b925050606085013567ffffffffffffffff81111561422b57600080fd5b6142378782880161400e565b91505092959194509250565b6000806040838503121561425657600080fd5b600061426485828601613f7b565b925050602061427585828601613fcf565b9150509250929050565b6000806040838503121561429257600080fd5b60006142a085828601613f7b565b92505060206142b1858286016140ea565b9150509250929050565b6000602082840312156142cd57600080fd5b600082015167ffffffffffffffff8111156142e757600080fd5b6142f384828501613fa5565b91505092915050565b60006020828403121561430e57600080fd5b600061431c84828501613fe4565b91505092915050565b60006020828403121561433757600080fd5b600061434584828501613ff9565b91505092915050565b60008060006060848603121561436357600080fd5b600084013567ffffffffffffffff81111561437d57600080fd5b61438986828701614038565b935050602061439a868287016140ea565b92505060406143ab868287016140ea565b9150509250925092565b6000602082840312156143c757600080fd5b60006143d5848285016140ea565b91505092915050565b600080604083850312156143f157600080fd5b60006143ff858286016140ea565b9250506020614410858286016140ea565b9150509250929050565b60006144268383614fd2565b60a08301905092915050565b61443b81615ac8565b82525050565b61444a81615a54565b82525050565b61445981615a42565b82525050565b61446881615a42565b82525050565b6000614479826158c1565b61448381856158ef565b935061448e836158b1565b8060005b838110156144bf5781516144a6888261441a565b97506144b1836158e2565b925050600181019050614492565b5085935050505092915050565b6144d581615a66565b82525050565b60006144e6826158cc565b6144f08185615900565b9350614500818560208601615b0d565b61450981615ca8565b840191505092915050565b600061451f826158d7565b6145298185615911565b9350614539818560208601615b0d565b61454281615ca8565b840191505092915050565b6000614558826158d7565b6145628185615922565b9350614572818560208601615b0d565b80840191505092915050565b600061458b602283615911565b91507f456e756d657261626c655365743a20696e646578206f7574206f6620626f756e60008301527f64730000000000000000000000000000000000000000000000000000000000006020830152604082019050919050565b60006145f1601583615911565b91507f494e56414c49442d53454c4c494e472d505249434500000000000000000000006000830152602082019050919050565b6000614631601083615911565b91507f494e56414c49442d4455524154494f4e000000000000000000000000000000006000830152602082019050919050565b6000614671603283615911565b91507f4552433732313a207472616e7366657220746f206e6f6e20455243373231526560008301527f63656976657220696d706c656d656e74657200000000000000000000000000006020830152604082019050919050565b60006146d7601c83615911565b91507f4552433732313a20746f6b656e20616c7265616479206d696e746564000000006000830152602082019050919050565b6000614717601683615911565b91507f494e56414c49442d53454c4c494e472d555044415445000000000000000000006000830152602082019050919050565b6000614757601983615911565b91507f494e56414c49442d4c4943454e5341424c452d555044415445000000000000006000830152602082019050919050565b6000614797600d83615911565b91507f5041594d454e542d4552524f52000000000000000000000000000000000000006000830152602082019050919050565b60006147d7600d83615911565b91507f414c52454144592d4f574e4552000000000000000000000000000000000000006000830152602082019050919050565b6000614817602483615911565b91507f4552433732313a207472616e7366657220746f20746865207a65726f2061646460008301527f72657373000000000000000000000000000000000000000000000000000000006020830152604082019050919050565b600061487d601983615911565b91507f4552433732313a20617070726f766520746f2063616c6c6572000000000000006000830152602082019050919050565b60006148bd602c83615911565b91507f4552433732313a206f70657261746f7220717565727920666f72206e6f6e657860008301527f697374656e7420746f6b656e00000000000000000000000000000000000000006020830152604082019050919050565b6000614923600983615911565b91507f4e4f542d4f574e455200000000000000000000000000000000000000000000006000830152602082019050919050565b6000614963600f83615911565b91507f494e56414c49442d5041594d454e5400000000000000000000000000000000006000830152602082019050919050565b60006149a3601583615911565b91507f494e56414c49442d4c4943454e53452d505249434500000000000000000000006000830152602082019050919050565b60006149e3603883615911565b91507f4552433732313a20617070726f76652063616c6c6572206973206e6f74206f7760008301527f6e6572206e6f7220617070726f76656420666f7220616c6c00000000000000006020830152604082019050919050565b6000614a49602a83615911565b91507f4552433732313a2062616c616e636520717565727920666f7220746865207a6560008301527f726f2061646472657373000000000000000000000000000000000000000000006020830152604082019050919050565b6000614aaf602983615911565b91507f4552433732313a206f776e657220717565727920666f72206e6f6e657869737460008301527f656e7420746f6b656e00000000000000000000000000000000000000000000006020830152604082019050919050565b6000614b15602e83615911565b91507f45524337323155524953746f726167653a2055524920736574206f66206e6f6e60008301527f6578697374656e7420746f6b656e0000000000000000000000000000000000006020830152604082019050919050565b6000614b7b601083615911565b91507f494e56414c49442d544f4b454e2d4944000000000000000000000000000000006000830152602082019050919050565b6000614bbb601083615911565b91507f414c52454144592d4c4943454e534544000000000000000000000000000000006000830152602082019050919050565b6000614bfb602083615911565b91507f4552433732313a206d696e7420746f20746865207a65726f20616464726573736000830152602082019050919050565b6000614c3b603183615911565b91507f45524337323155524953746f726167653a2055524920717565727920666f722060008301527f6e6f6e6578697374656e7420746f6b656e0000000000000000000000000000006020830152604082019050919050565b6000614ca1602c83615911565b91507f4552433732313a20617070726f76656420717565727920666f72206e6f6e657860008301527f697374656e7420746f6b656e00000000000000000000000000000000000000006020830152604082019050919050565b6000614d07602983615911565b91507f4552433732313a207472616e73666572206f6620746f6b656e2074686174206960008301527f73206e6f74206f776e00000000000000000000000000000000000000000000006020830152604082019050919050565b6000614d6d602f83615911565b91507f4552433732314d657461646174613a2055524920717565727920666f72206e6f60008301527f6e6578697374656e7420746f6b656e00000000000000000000000000000000006020830152604082019050919050565b6000614dd3602183615911565b91507f4552433732313a20617070726f76616c20746f2063757272656e74206f776e6560008301527f72000000000000000000000000000000000000000000000000000000000000006020830152604082019050919050565b6000614e39600e83615911565b91507f414c52454144592d4d494e5445440000000000000000000000000000000000006000830152602082019050919050565b6000614e79600e83615911565b91507f4e4f542d52454d4f5645442d49440000000000000000000000000000000000006000830152602082019050919050565b6000614eb9600c83615911565b91507f4455504c49434154452d494400000000000000000000000000000000000000006000830152602082019050919050565b6000614ef9603183615911565b91507f4552433732313a207472616e736665722063616c6c6572206973206e6f74206f60008301527f776e6572206e6f7220617070726f7665640000000000000000000000000000006020830152604082019050919050565b6000614f5f600c83615911565b91507f4e4f542d464f522d53414c4500000000000000000000000000000000000000006000830152602082019050919050565b6000614f9f600e83615911565b91507f4e4f542d4c4943454e5341424c450000000000000000000000000000000000006000830152602082019050919050565b60a082016000820151614fe8600085018261503a565b506020820151614ffb602085018261503a565b50604082015161500e604085018261503a565b506060820151615021606085018261503a565b5060808201516150346080850182614450565b50505050565b61504381615abe565b82525050565b61505281615abe565b82525050565b6000615064828461454d565b915081905092915050565b600061507b828561454d565b9150615087828461454d565b91508190509392505050565b60006020820190506150a8600083018461445f565b92915050565b60006060820190506150c36000830186614432565b6150d0602083018561445f565b6150dd6040830184615049565b949350505050565b60006040820190506150fa6000830185614441565b6151076020830184615049565b9392505050565b6000608082019050615123600083018761445f565b615130602083018661445f565b61513d6040830185615049565b818103606083015261514f81846144db565b905095945050505050565b60006020820190508181036000830152615174818461446e565b905092915050565b600060208201905061519160008301846144cc565b92915050565b600060208201905081810360008301526151b18184614514565b905092915050565b600060208201905081810360008301526151d28161457e565b9050919050565b600060208201905081810360008301526151f2816145e4565b9050919050565b6000602082019050818103600083015261521281614624565b9050919050565b6000602082019050818103600083015261523281614664565b9050919050565b60006020820190508181036000830152615252816146ca565b9050919050565b600060208201905081810360008301526152728161470a565b9050919050565b600060208201905081810360008301526152928161474a565b9050919050565b600060208201905081810360008301526152b28161478a565b9050919050565b600060208201905081810360008301526152d2816147ca565b9050919050565b600060208201905081810360008301526152f28161480a565b9050919050565b6000602082019050818103600083015261531281614870565b9050919050565b60006020820190508181036000830152615332816148b0565b9050919050565b6000602082019050818103600083015261535281614916565b9050919050565b6000602082019050818103600083015261537281614956565b9050919050565b6000602082019050818103600083015261539281614996565b9050919050565b600060208201905081810360008301526153b2816149d6565b9050919050565b600060208201905081810360008301526153d281614a3c565b9050919050565b600060208201905081810360008301526153f281614aa2565b9050919050565b6000602082019050818103600083015261541281614b08565b9050919050565b6000602082019050818103600083015261543281614b6e565b9050919050565b6000602082019050818103600083015261545281614bae565b9050919050565b6000602082019050818103600083015261547281614bee565b9050919050565b6000602082019050818103600083015261549281614c2e565b9050919050565b600060208201905081810360008301526154b281614c94565b9050919050565b600060208201905081810360008301526154d281614cfa565b9050919050565b600060208201905081810360008301526154f281614d60565b9050919050565b6000602082019050818103600083015261551281614dc6565b9050919050565b6000602082019050818103600083015261553281614e2c565b9050919050565b6000602082019050818103600083015261555281614e6c565b9050919050565b6000602082019050818103600083015261557281614eac565b9050919050565b6000602082019050818103600083015261559281614eec565b9050919050565b600060208201905081810360008301526155b281614f52565b9050919050565b600060208201905081810360008301526155d281614f92565b9050919050565b60006020820190506155ee6000830184615049565b92915050565b600060a0820190506156096000830188615049565b6156166020830187614432565b615623604083018661445f565b6156306060830185615049565b61563d6080830184615049565b9695505050505050565b600060608201905061565c6000830186615049565b6156696020830185615049565b6156766040830184615049565b949350505050565b600060a0820190506156936000830188615049565b6156a06020830187615049565b6156ad6040830186615049565b81810360608301526156bf8185614514565b90506156ce608083018461445f565b9695505050505050565b600060c0820190506156ed6000830189615049565b6156fa6020830188615049565b6157076040830187615049565b81810360608301526157198186614514565b90506157286080830185614441565b61573560a0830184614441565b979650505050505050565b600060a0820190506157556000830188615049565b6157626020830187615049565b61576f6040830186615049565b61577c6060830185615049565b615789608083018461445f565b9695505050505050565b600060c0820190506157a86000830189615049565b6157b56020830188615049565b6157c26040830187615049565b6157cf6060830186615049565b6157dc6080830185614441565b6157e960a0830184615049565b979650505050505050565b6000604051905081810181811067ffffffffffffffff8211171561581b5761581a615c79565b5b8060405250919050565b600067ffffffffffffffff8211156158405761583f615c79565b5b602082029050602081019050919050565b600067ffffffffffffffff82111561586c5761586b615c79565b5b601f19601f8301169050602081019050919050565b600067ffffffffffffffff82111561589c5761589b615c79565b5b601f19601f8301169050602081019050919050565b6000819050602082019050919050565b600081519050919050565b600081519050919050565b600081519050919050565b6000602082019050919050565b600082825260208201905092915050565b600082825260208201905092915050565b600082825260208201905092915050565b600081905092915050565b600061593882615abe565b915061594383615abe565b9250827fffffffffffffffffffffffffffffffffffffffffffffffffffffffffffffffff0382111561597857615977615bec565b5b828201905092915050565b600061598e82615abe565b915061599983615abe565b9250826159a9576159a8615c1b565b5b828204905092915050565b60006159bf82615abe565b91506159ca83615abe565b9250817fffffffffffffffffffffffffffffffffffffffffffffffffffffffffffffffff0483118215151615615a0357615a02615bec565b5b828202905092915050565b6000615a1982615abe565b9150615a2483615abe565b925082821015615a3757615a36615bec565b5b828203905092915050565b6000615a4d82615a9e565b9050919050565b6000615a5f82615a9e565b9050919050565b60008115159050919050565b60007fffffffff0000000000000000000000000000000000000000000000000000000082169050919050565b600073ffffffffffffffffffffffffffffffffffffffff82169050919050565b6000819050919050565b6000615ad382615ada565b9050919050565b6000615ae582615aec565b9050919050565b6000615af782615a9e565b9050919050565b82818337600083830152505050565b60005b83811015615b2b578082015181840152602081019050615b10565b83811115615b3a576000848401525b50505050565b60006002820490506001821680615b5857607f821691505b60208210811415615b6c57615b6b615c4a565b5b50919050565b6000615b7d82615abe565b91507fffffffffffffffffffffffffffffffffffffffffffffffffffffffffffffffff821415615bb057615baf615bec565b5b600182019050919050565b6000615bc682615abe565b9150615bd183615abe565b925082615be157615be0615c1b565b5b828206905092915050565b7f4e487b7100000000000000000000000000000000000000000000000000000000600052601160045260246000fd5b7f4e487b7100000000000000000000000000000000000000000000000000000000600052601260045260246000fd5b7f4e487b7100000000000000000000000000000000000000000000000000000000600052602260045260246000fd5b7f4e487b7100000000000000000000000000000000000000000000000000000000600052604160045260246000fd5b6000601f19601f8301169050919050565b615cc281615a42565b8114615ccd57600080fd5b50565b615cd981615a66565b8114615ce457600080fd5b50565b615cf081615a72565b8114615cfb57600080fd5b50565b615d0781615abe565b8114615d1257600080fd5b5056fea2646970667358221220eec2751a9d22485ecd416cd9bd548f8b45b6575c239f88d4466254eddb7e701a64736f6c63430008000033",
  "linkReferences": {},
  "deployedLinkReferences": {}
}